:020000040800F2
:1000000000000220210B0008250900082B09000828
:1000100031090008370900083D0900080000000008
:100020000000000000000000000000006142000825
:100030004309000800000000B14400088D200008BA
:10004000710B0008710B0008710B0008710B0008A0
:10005000710B0008710B0008710B0008710B000890
:10006000710B0008710B0008710B0008710B000880
:10007000710B0008710B0008710B0008710B000870
:10008000710B0008710B0008710B0008710B000860
:10009000710B0008710B0008710B0008710B000850
:1000A000710B0008710B0008710B0008710B000840
:1000B000710B0008710B0008710B0008710B000830
:1000C000710B0008710B0008710B0008710B000820
:1000D000710B0008710B0008710B0008710B000810
:1000E000710B0008710B0008710B0008710B000800
:1000F000710B0008710B0008710B0008710B0008F0
:10010000710B0008710B0008710B0008710B0008DF
:10011000710B0008710B000851090008710B0008F1
:10012000710B0008710B0008710B0008710B0008BF
:10013000710B0008710B0008710B0008710B0008AF
:10014000710B0008710B0008710B0008710B00089F
:10015000710B0008710B0008710B0008710B00088F
:10016000710B0008710B0008710B0008710B00087F
:10017000710B0008710B0008710B000800000000F3
:08018000710B0008710B00086F
:1001900010B5054C237833B9044B13B10448AFF3C1
:1001A00000800123237010BD7800002000000000B3
:1001B0007058000808B5034B1BB103490348AFF35F
:1001C000008008BD000000007C000020705800087E
:1001D00001F0FF01102A2BDB10F0070F08D010F8F8
:1001E000013B013A8B422DD010F0070F42B3F6D1FC
:1001F000F0B441EA012141EA014122F007047FF015
:1002000000070023F0E80256083C85EA010586EA6B
:10021000010685FA47F5A3FA87F586FA47F6A5FAA7
:1002200087F68EB9EED1F0BC01F0FF0102F00702B3
:1002300032B110F8013B013A83EA010313B1F8D15E
:100240000020704701387047002D06BF354603383F
:10025000073815F0010F07D1013015F4807F02BF78
:10026000013015F4C03F0130F0BC0138704700BFC9
:1002700053B94AB9002908BF00281CBF4FF0FF310D
:100280004FF0FF3000F070B9ADF1080C6DE904CE0D
:1002900000F006F8DDF804E0DDE9022304B0704761
:1002A0002DE9F047089E0D4604460F46002B4AD123
:1002B0008A42944665D9B2FA82F343B102FA03FC4A
:1002C000C3F120029F4020FA02F217439C404FEAFC
:1002D0001C4E1FFA8CF5B7FBFEF1220C0EFB1177BA
:1002E00042EA074201FB05F090420AD91CEB0202E8
:1002F00001F1FF3780F01C81904240F219810239F0
:100300006244121AA4B2B2FBFEF00EFB102244EAC1
:10031000024400FB05F5A5420AD91CEB040400F1D8
:10032000FF3280F00781A54240F204816444023824
:1003300040EA0140641B00211EB1DC400023C6E9F5
:100340000043BDE8F0878B4208D9002E00F0ED8015
:100350000021C6E900050846BDE8F087B3FA83F13D
:10036000002949D1AB4202D3824200F2F880841ABC
:1003700065EB030201201746002EE2D0C6E90047D4
:10038000DFE702B9FFDEB2FA82F3002B40F0908083
:100390008A1A4FEA1C471FFA8CFE0121B2FBF7F5BF
:1003A00007FB1520220C42EA00420EFB05F09042AA
:1003B00008D91CEB020205F1FF3802D2904200F28C
:1003C000CB804546121AA4B2B2FBF7F007FB10220D
:1003D00044EA02440EFB00FEA64508D91CEB0404C7
:1003E00000F1FF3202D2A64500F2BB801046A4EB1A
:1003F0000E0440EA05409FE7C1F120078B4022FA36
:1004000007FC4CEA030C05FA01F420FA07F3FD405F
:100410004FEA1C492343B5FBF9F81FFA8CFE09FB90
:1004200018551C0C44EA054408FB0EF5A54202FAD7
:1004300001F200FA01F00BD91CEB040408F1FF3AB9
:1004400080F08880A54240F28580A8F102086444CB
:10045000641B9DB2B4FBF9F309FB134445EA044461
:1004600003FB0EFEA64508D91CEB040403F1FF357F
:100470006CD2A6456AD9023B644443EA0843A3FB15
:100480000295A4EB0E04AC42C846AE4656D353D0F8
:1004900056B1B0EB080264EB0E0404FA07F7CA4049
:1004A000CC401743C6E9007418460021BDE8F08728
:1004B000C3F1200102FA03FC20FA01F225FA01F14E
:1004C0009D402A434FEA1C471FFA8CFEB1FBF7F010
:1004D00007FB1015110C41EA054100FB0EF58D429A
:1004E00004FA03F408D91CEB010100F1FF382FD204
:1004F0008D422DD902386144491B92B2B1FBF7F508
:1005000007FB151142EA014205FB0EF1914208D9A1
:100510001CEB020205F1FF3816D2914214D9023DBC
:100520006244521A45EA004138E73146304608E74E
:100530003946E6E61046FBE64845A9D2B9EB020883
:1005400065EB0C0E013BA3E74546EAE72B4694E733
:100550004046D1E7D0467BE7023D624432E7084699
:100560000AE76444023842E7704700BF80B400AF36
:1005700000BFBD465DF8047B7047000080B582B0C7
:1005800002AF0E4B01932D2300930D4B80220D499A
:100590000D4802F010FC03460C4A13600C4B01930B
:1005A0002E2300930B4B80220B490C4802F003FCD6
:1005B00003460B4A136000BFBD4680BD9C0000206F
:1005C00000000020A8580008E5050008940000205D
:1005D000A000002004000020C458000819060008EC
:1005E0009800002080B584B000AF78607B681B68FD
:1005F000FB60F968064804F0B9FA7B681B68194685
:10060000044804F0B3FAFA2002F01CFDF1E700BF41
:10061000605900087859000880B582B000AF786052
:100620007B681B681946074804F0A0FA7B685B6882
:100630001946054804F09AFA4FF4FA7002F002FDE8
:10064000EEE700BF90590008A859000880B588B0AF
:1006500000AF07F10C0300221A605A609A60DA605A
:100660001A610023BB60204B1B6B1F4A43F08003C1
:1006700013631D4B1B6B03F08003BB60BB6800233F
:100680007B60194B1B6B184A43F008031363164B2E
:100690001B6B03F008037B607B6800233B60124BFD
:1006A0001B6B114A43F0010313630F4B1B6B03F0E9
:1006B00001033B603B6800224FF470410B4800F09F
:1006C0003DFD4FF47043FB6001233B6100237B61E0
:1006D0000023BB6107F10C031946044800F092FBAC
:1006E00000BF2037BD4680BD00380240000C0240EC
:1006F00080B500AF00F03EFA00F00CF8FFF7A6FF5F
:1007000001F0DEFCFFF73AFF01F0FEFCFA2000F0FA
:1007100073FAFBE780B594B000AF07F120033022F5
:100720000021184604F077FA07F10C0300221A6042
:100730005A609A60DA601A610023BB60284B1B6C18
:10074000274A43F080531364254B1B6C03F08053FE
:10075000BB60BB6800237B60224B1B68214A43F4CB
:10076000804313601F4B1B6803F480437B607B68EE
:1007700001233B624FF4A0237B620223BB634FF44F
:100780008003FB6304233B64A8237B640223BB64D4
:100790000423FB6407F12003184600F0E9FC03463C
:1007A000002B01D000F032F80F23FB6002233B61E5
:1007B00000237B614FF4A053BB614FF48053FB6176
:1007C00007F10C030521184600F04AFF0346002BF1
:1007D00001D000F01BF800BF5037BD4680BD00BF00
:1007E000003802400070004080B582B000AF7860F1
:1007F0007B681B68044A934201D100F0DDF900BF19
:100800000837BD4680BD00BF0010004080B400AF77
:1008100072B600BFFEE7000080B582B000AF0023D3
:100820007B60124B5B6C114A43F4804353640F4B63
:100830005B6C03F480437B607B6800233B600B4B65
:100840001B6C0A4A43F080531364084B1B6C03F083
:1008500080533B603B6800220F216FF0010000F0E5
:10086000A7FA00BF0837BD4680BD00BF0038024070
:1008700080B58CB000AF78600023FB620023BB62C0
:1008800000227968362000F093FA362000F0ACFAA6
:100890000023FB601F4B1B6C1E4A43F010031364C4
:1008A0001C4B1B6C03F01003FB60FB6807F110028C
:1008B00007F114031146184601F0DEF801F0C8F8FC
:1008C00003465B00FB62FB6A134AA2FB03239B0CFB
:1008D000013BBB62114B124A1A60104B40F2E732E7
:1008E000DA600E4ABB6A53600C4B00221A610B4B54
:1008F00000229A60094801F0F1F80346002B04D168
:10090000064801F045F9034600E001231846303758
:10091000BD4680BD0038024083DE1B43A40000209A
:100920000010004080B400AFFEE780B400AFFEE7E7
:1009300080B400AFFEE780B400AFFEE780B400AF44
:10094000FEE780B400AF00BFBD465DF8047B704792
:1009500080B500AF024801F08BF900BF80BD00BF39
:10096000A400002080B483B000AF0346FB710F4B9E
:100970001B680E4A43F0807313600D4B1B680C4AD2
:1009800043F00103136000BF4FF060431B6803F0A6
:100990000103002BF8D04FF06042FB79136000BFD9
:1009A0000C37BD465DF8047B704700BFFCED00E0EE
:1009B000000E00E080B586B000AFF860B9607A60E4
:1009C00000237B610AE0AFF300800146BB685A1C3C
:1009D000BA60CAB21A707B6901337B617A697B683D
:1009E0009A42F0DB7B6818461837BD4680BD80B55B
:1009F00086B000AFF860B9607A6000237B6109E0DF
:100A0000BB685A1CBA601B781846FFF7ABFF7B69BE
:100A100001337B617A697B689A42F1DB7B68184617
:100A20001837BD4680BD80B483B000AF78604FF00A
:100A3000FF3318460C37BD465DF8047B704780B421
:100A400083B000AF786039603B684FF400525A6061
:100A5000002318460C37BD465DF8047B704780B410
:100A600083B000AF7860012318460C37BD465DF8AF
:100A7000047B704780B485B000AFF860B9607A60DD
:100A8000002318461437BD465DF8047B704700000C
:100A900080B586B000AF7860144A154BD31A7B61DD
:100AA0007B693B61134B1B68002B02D1114B124A2F
:100AB0001A60104B1A687B6813443A699A4207D24D
:100AC00004F0F8F803460C221A604FF0FF3309E0F7
:100AD000084B1B68FB60074B1A687B681344054A88
:100AE0001360FB6818461837BD4680BD0000022021
:100AF00000040000EC000020984B002080B400AF00
:100B0000064BD3F88830054A43F47003C2F88830A6
:100B100000BFBD465DF8047B704700BF00ED00E0FC
:100B2000DFF834D00D480E490E4A002302E0D458B5
:100B3000C4500433C4188C42F9D30B4A0B4C002325
:100B400001E013600432A242FBD3FFF7D7FF04F0A9
:100B5000B7F8FFF7CDFD704700000220000000202D
:100B600078000020345A000878000020984B0020BC
:100B7000FEE7000080B500AF0E4B1B680D4A43F442
:100B8000007313600B4B1B680A4A43F480631360C5
:100B9000084B1B68074A43F480731360032000F07E
:100BA000FCF80F20FFF764FEFFF736FE002318461F
:100BB00080BD00BF003C024080B400AF064B1B78F4
:100BC0001A46064B1B681344044A136000BFBD4617
:100BD0005DF8047B704700BF14000020F000002087
:100BE00080B400AF034B1B681846BD465DF8047B1C
:100BF000704700BFF000002080B584B000AF78607F
:100C0000FFF7EEFFB8607B68FB60FB68B3F1FF3F66
:100C100005D00A4B1B781A46FB681344FB6000BFE3
:100C2000FFF7DEFF0246BB68D31AFA689A42F7D88C
:100C300000BF00BF1037BD4680BD00BF14000020BC
:100C400080B485B000AF78607B6803F00703FB6079
:100C50000C4BDB68BB60BA684FF6FF031340BB6008
:100C6000FB681A02BB68134343F0BF6343F40033CD
:100C7000BB60044ABB68D36000BF1437BD465DF853
:100C8000047B704700ED00E080B400AF044BDB68EC
:100C90001B0A03F007031846BD465DF8047B704746
:100CA00000ED00E080B483B000AF0346FB7197F91C
:100CB0000730002B0BDBFB7903F01F02074997F984
:100CC00007305B09012000FA02F241F8232000BF3F
:100CD0000C37BD465DF8047B704700BF00E100E0C3
:100CE00080B483B000AF03463960FB7197F90730D9
:100CF000002B0ADB3B68DAB20C4997F90730120186
:100D0000D2B20B4483F800230AE03B68DAB2084908
:100D1000FB7903F00F03043B1201D2B20B441A76A5
:100D200000BF0C37BD465DF8047B704700E100E072
:100D300000ED00E080B489B000AFF860B9607A607F
:100D4000FB6803F00703FB61FB69C3F10703042B96
:100D500028BF0423BB61FB690433062B02D9FB695E
:100D6000033B00E000237B614FF0FF32BB6902FAD6
:100D700003F3DA43BB681A407B699A404FF0FF31B6
:100D80007B6901FA03F3D9437B680B401343184690
:100D90002437BD465DF8047B704780B582B000AF54
:100DA00078607868FFF74CFF00BF0837BD4680BD0C
:100DB00080B586B000AF0346B9607A60FB7300234C
:100DC0007B61FFF761FF78617A68B9687869FFF73E
:100DD000B1FF024697F90F3011461846FFF780FF22
:100DE00000BF1837BD4680BD80B582B000AF034656
:100DF000FB7197F907301846FFF754FF00BF08371B
:100E0000BD4680BD80B489B000AF786039600023F2
:100E10007B6100233B610023BB610023FB616BE12D
:100E20000122FB6902FA03F37B613B681B687A6964
:100E300013403B613A697B699A4240F05A813B68B2
:100E40005B6803F00303012B05D03B685B6803F08C
:100E50000303022B30D17B689B68BB61FB695B009D
:100E6000032202FA03F3DB43BA691340BB613B6818
:100E7000DA68FB695B0002FA03F3BA691343BB61EA
:100E80007B68BA699A607B685B68BB610122FB6919
:100E900002FA03F3DB43BA691340BB613B685B684A
:100EA0001B0903F00102FB6902FA03F3BA69134359
:100EB000BB617B68BA695A603B685B6803F00303F7
:100EC000032B17D07B68DB68BB61FB695B000322E7
:100ED00002FA03F3DB43BA691340BB613B689A68CB
:100EE000FB695B0002FA03F3BA691343BB617B68D9
:100EF000BA69DA603B685B6803F00303022B23D115
:100F0000FB69DA087B68083253F82230BB61FB6961
:100F100003F007039B000F2202FA03F3DB43BA69D5
:100F20001340BB613B681A69FB6903F007039B0030
:100F300002FA03F3BA691343BB61FB69DA087B6801
:100F40000832B96943F822107B681B68BB61FB69F2
:100F50005B00032202FA03F3DB43BA691340BB616F
:100F60003B685B6803F00302FB695B0002FA03F372
:100F7000BA691343BB617B68BA691A603B685B68F6
:100F800003F44033002B00F0B4800023FB60604B7F
:100F90005B6C5F4A43F4804353645D4B5B6C03F4CA
:100FA0008043FB60FB685B4AFB699B08023352F895
:100FB0002330BB61FB6903F003039B000F2202FA9D
:100FC00003F3DB43BA691340BB617B68524A934227
:100FD0002BD07B68514A934225D07B68504A93427C
:100FE0001FD07B684F4A934219D07B684E4A934288
:100FF00013D07B684D4A93420DD07B684C4A934294
:1010000007D07B684B4A934201D107230EE00823A7
:101010000CE006230AE0052308E0042306E003238E
:1010200004E0022302E0012300E00023FA6902F059
:10103000030292009340BA691343BB613549FB69CF
:101040009B080233BA6941F823203B4B1B68BB6104
:101050003B69DB43BA691340BB613B685B6803F4DF
:101060008033002B03D0BA693B691343BB61324A1A
:10107000BB691360304B5B68BB613B69DB43BA699A
:101080001340BB613B685B6803F40033002B03D063
:10109000BA693B691343BB61274ABB695360264B5E
:1010A0009B68BB613B69DB43BA691340BB613B682A
:1010B0005B6803F48013002B03D0BA693B691343C8
:1010C000BB611D4ABB6993601B4BDB68BB613B691D
:1010D000DB43BA691340BB613B685B6803F40013F0
:1010E000002B03D0BA693B691343BB61124ABB6949
:1010F000D360FB690133FB61FB690F2B7FF690AE78
:1011000000BF00BF2437BD465DF8047B704700BFB9
:101110000038024000380140000002400004024054
:1011200000080240000C024000100240001402407F
:1011300000180240001C0240003C014080B483B013
:1011400000AF78600B467B8013467B707B78002B6A
:1011500003D07A887B689A6103E07B881A047B68F5
:101160009A6100BF0C37BD465DF8047B70470000F4
:1011700080B586B000AF78607B68002B01D1012379
:1011800067E27B681B6803F00103002B75D0884B76
:101190009B6803F00C03042B0CD0854B9B6803F079
:1011A0000C03082B12D1824B5B6803F48003B3F568
:1011B000800F0BD17E4B1B6803F40033002B5BD0F8
:1011C0007B685B68002B57D1012342E27B685B6838
:1011D000B3F5803F06D1764B1B68754A43F48033E4
:1011E00013601DE07B685B68B3F5A02F0CD1704BDA
:1011F0001B686F4A43F4802313606D4B1B686C4A75
:1012000043F4803313600BE0694B1B68684A23F496
:1012100080331360664B1B68654A23F48023136098
:101220007B685B68002B13D0FFF7DAFC386108E0BD
:10123000FFF7D6FC02463B69D31A642B01D903237E
:1012400007E25B4B1B6803F40033002BF0D014E083
:10125000FFF7C6FC386108E0FFF7C2FC02463B69B5
:10126000D31A642B01D90323F3E1514B1B6803F418
:101270000033002BF0D100E000BF7B681B6803F057
:101280000203002B63D04A4B9B6803F00C03002B36
:101290000BD0474B9B6803F00C03082B1CD1444B2D
:1012A0005B6803F48003002B16D1414B1B6803F0ED
:1012B0000203002B05D07B68DB68012B01D00123E2
:1012C000C7E13B4B1B6823F0F8027B681B69DB001E
:1012D000374913430B603AE07B68DB68002B20D072
:1012E000344B01221A60FFF77BFC386108E0FFF7FE
:1012F00077FC02463B69D31A022B01D90323A8E1EC
:101300002B4B1B6803F00203002BF0D0284B1B680B
:1013100023F0F8027B681B69DB00254913430B604F
:1013200015E0244B00221A60FFF75AFC386108E0F0
:10133000FFF756FC02463B69D31A022B01D903235F
:1013400087E11B4B1B6803F00203002BF0D17B6885
:101350001B6803F00803002B36D07B685B69002B09
:1013600016D0154B01221A60FFF73AFC386108E0ED
:10137000FFF736FC02463B69D31A022B01D903233F
:1013800067E10B4B5B6F03F00203002BF0D01BE017
:10139000094B00221A60FFF723FC38610EE0FFF7CB
:1013A0001FFC02463B69D31A022B07D9032350E1E5
:1013B0000038024000004742800E4742884B5B6F76
:1013C00003F00203002BEAD17B681B6803F00403DF
:1013D000002B00F097800023FB75814B1B6C03F002
:1013E0008053002B0FD10023BB607D4B1B6C7C4ACC
:1013F00043F0805313647A4B1B6C03F08053BB6043
:10140000BB680123FB75774B1B6803F48073002BCB
:1014100018D1744B1B68734A43F480731360FFF751
:10142000DFFB386108E0FFF7DBFB02463B69D31ABC
:10143000022B01D903230CE16A4B1B6803F4807370
:10144000002BF0D07B689B68012B06D1644B1B6F8F
:10145000634A43F0010313671CE07B689B68052B1C
:101460000CD15F4B1B6F5E4A43F0040313675C4B68
:101470001B6F5B4A43F0010313670BE0584B1B6F74
:10148000574A23F001031367554B1B6F544A23F04F
:10149000040313677B689B68002B15D0FFF7A0FB44
:1014A00038610AE0FFF79CFB02463B69D31A41F220
:1014B0008832934201D90323CBE0494B1B6F03F0E1
:1014C0000203002BEED014E0FFF78AFB38610AE03C
:1014D000FFF786FB02463B69D31A41F288329342FA
:1014E00001D90323B5E03E4B1B6F03F00203002B31
:1014F000EED1FB7D012B05D1394B1B6C384A23F013
:10150000805313647B689B69002B00F0A180344BEF
:101510009B6803F00C03082B5CD07B689B69022B53
:1015200041D1314B00221A60FFF75AFB386108E0C5
:10153000FFF756FB02463B69D31A022B01D903235E
:1015400087E0274B1B6803F00073002BF0D17B680A
:10155000DA697B681B6A1A437B685B6A9B011A43E2
:101560007B689B6A5B08013B1B041A437B68DB6A50
:101570001B061B4913434B601B4B01221A60FFF7EC
:101580002FFB386108E0FFF72BFB02463B69D31ABB
:10159000022B01D903235CE0114B1B6803F000739D
:1015A000002BF0D054E0104B00221A60FFF718FB1C
:1015B000386108E0FFF714FB02463B69D31A022B9F
:1015C00001D9032345E0064B1B6803F00073002B91
:1015D000F0D13DE07B689B69012B07D1012338E006
:1015E0000038024000700040600047421B4B5B68BF
:1015F000FB607B689B69012B28D0FB6803F48002A9
:101600007B68DB699A4221D1FB6803F03F027B686B
:101610001B6A9A421AD1FA6847F6C07313407A6877
:10162000526A9201934211D1FB6803F440327B6805
:101630009B6A5B08013B1B049A4207D1FB6803F0DD
:1016400070627B68DB6A1B069A4201D0012300E0CE
:10165000002318461837BD4680BD00BF0038024041
:1016600080B584B000AF786039607B68002B01D111
:101670000123CCE0684B1B6803F007033A689A42E9
:101680000CD9654B3A68D2B21A70634B1B6803F0F1
:1016900007033A689A4201D00123B8E07B681B68CF
:1016A00003F00203002B20D07B681B6803F00403C7
:1016B000002B05D0594B9B68584A43F4E053936084
:1016C0007B681B6803F00803002B05D0534B9B6815
:1016D000524A43F460439360504B9B6823F0F002FE
:1016E0007B689B684D4913438B607B681B6803F0E4
:1016F0000103002B44D07B685B68012B07D1474B6B
:101700001B6803F40033002B19D101237FE07B68B1
:101710005B68022B03D07B685B68032B07D13F4BD0
:101720001B6803F00073002B09D101236FE03B4BD2
:101730001B6803F00203002B01D1012367E0374B44
:101740009B6823F003027B685B68344913438B601A
:10175000FFF746FAF8600AE0FFF742FA0246FB6834
:10176000D31A41F28832934201D903234FE02B4B25
:101770009B6803F00C027B685B689B009A42EBD18C
:10178000254B1B6803F007033A689A420CD2224BA0
:101790003A68D2B21A70204B1B6803F007033A680C
:1017A0009A4201D0012332E07B681B6803F00403F6
:1017B000002B08D0194B9B6823F4E0527B68DB6850
:1017C000164913438B607B681B6803F00803002BEA
:1017D00009D0124B9B6823F460427B681B69DB00D5
:1017E0000E4913438B6000F021F802460B4B9B68B7
:1017F0001B0903F00F030A49CB5C22FA03F3094AE1
:101800001360094B1B681846FFF732F8002318468F
:101810001037BD4680BD00BF003C0240003802408A
:10182000D85900080C000020100000202DE9B04F0E
:1018300094B000AF00237B640023FB6400233B646F
:101840000023BB64794B9B6803F00C03082B0DD07D
:10185000082B00F2E180002B02D0042B03D0DBE048
:10186000734BBB64DBE0734BBB64D8E06F4B5B68CE
:1018700003F03F037B646D4B5B6803F48003002B34
:1018800063D06A4B5B689B090022BB63FA63BB6B46
:10189000C3F308033B6300237B63D7E90C4522466F
:1018A0002B464FF000004FF00001590141EAD26190
:1018B000500102460B462146511A3961294663EB15
:1018C00001037B614FF000024FF00003D7E904AB46
:1018D00059468B01514643EA916351468A0151466C
:1018E000B2EB0108594663EB01094FF000024FF0DB
:1018F00000034FEAC90343EA58734FEAC80290460F
:101900009946234618EB0303BB602B4649EB0303C0
:10191000FB604FF000024FF00003D7E90245294673
:101920004B02214643EAD15321464A02104619464A
:101930007B6C0022BB62FA62D7E90A23FEF798FCAF
:1019400002460B461346FB6458E0384B5B689B0924
:10195000002218461146C0F308033B6200237B6255
:10196000D7E9088942464B464FF000004FF000018E
:10197000590141EAD261500102460B464146B2EBA1
:10198000010A494663EB010B4FF000024FF00003E0
:101990004FEA8B1343EA9A634FEA8A12B2EB0A04C6
:1019A00063EB0B054FF000024FF00003EB0043EA3E
:1019B0005473E20014461D464346E3183B604B4611
:1019C00045EB03037B604FF000024FF00003D7E9C3
:1019D000004529468B02214643EA915321468A025B
:1019E000104619467B6C0022BB61FA61D7E90623D9
:1019F000FEF73EFC02460B461346FB640B4B5B684E
:101A00001B0C03F0030301335B003B64FA6C3B6C7B
:101A1000B2FBF3F3BB6402E0054BBB6400BFBB6CDD
:101A200018465037BD46BDE8B08F00BF00380240B1
:101A30000024F40000127A0080B400AF034B1B684E
:101A40001846BD465DF8047B704700BF0C000020BF
:101A500080B500AFFFF7F0FF0246054B9B689B0A7D
:101A600003F007030349CB5C22FA03F3184680BD59
:101A700000380240E859000880B483B000AF7860B5
:101A800039607B680F221A60124B9B6803F00302D7
:101A90007B685A600F4B9B6803F0F0027B689A608A
:101AA0000C4B9B6803F4E0527B68DA60094B9B683F
:101AB000DB0803F4E0527B681A61074B1B6803F0F4
:101AC00007023B681A6000BF0C37BD465DF8047B17
:101AD000704700BF00380240003C024080B582B031
:101AE00000AF78607B68002B01D1012341E07B6867
:101AF00093F83D30DBB2002B06D17B68002283F8DF
:101B00003C20786800F039F87B68022283F83D2099
:101B10007B681A687B6804331946104600F0D8F9D0
:101B20007B68012283F846207B68012283F83E20EF
:101B30007B68012283F83F207B68012283F84020E4
:101B40007B68012283F841207B68012283F84220D0
:101B50007B68012283F843207B68012283F84420BC
:101B60007B68012283F845207B68012283F83D20B1
:101B7000002318460837BD4680BD80B483B000AF4F
:101B8000786000BF0C37BD465DF8047B70470000ED
:101B900080B485B000AF78607B6893F83D30DBB2ED
:101BA000012B01D001234EE07B68022283F83D2007
:101BB0007B681B68DA687B681B6842F00102DA60A8
:101BC0007B681B68234A934222D07B681B68B3F171
:101BD000804F1DD07B681B681F4A934218D07B68DA
:101BE0001B681E4A934213D07B681B681C4A9342B1
:101BF0000ED07B681B681B4A934209D07B681B6828
:101C0000194A934204D07B681B68184A934211D149
:101C10007B681B689B6803F00703FB60FB68062B6F
:101C200010D07B681B681A687B681B6842F0010251
:101C30001A6007E07B681B681A687B681B6842F0C3
:101C400001021A60002318461437BD465DF8047B74
:101C5000704700BF00000140000400400008004041
:101C6000000C00400004014000400140001800400A
:101C700080B582B000AF78607B681B681B6903F099
:101C80000203022B22D17B681B68DB6803F002038E
:101C9000022B1BD17B681B686FF002021A617B6804
:101CA00001221A777B681B689B6903F00303002BF2
:101CB00003D0786800F0EEF805E0786800F0E0F80E
:101CC000786800F0F1F87B6800221A777B681B685F
:101CD0001B6903F00403042B22D17B681B68DB68BB
:101CE00003F00403042B1BD17B681B686FF0040214
:101CF0001A617B6802221A777B681B689B6903F470
:101D00004073002B03D0786800F0C4F805E07868D1
:101D100000F0B6F8786800F0C7F87B6800221A7700
:101D20007B681B681B6903F00803082B22D17B68C2
:101D30001B68DB6803F00803082B1BD17B681B685A
:101D40006FF008021A617B6804221A777B681B68AF
:101D5000DB6903F00303002B03D0786800F09AF8E6
:101D600005E0786800F08CF8786800F09DF87B68F2
:101D700000221A777B681B681B6903F01003102B85
:101D800022D17B681B68DB6803F01003102B1BD18A
:101D90007B681B686FF010021A617B6808221A7753
:101DA0007B681B68DB6903F44073002B03D0786801
:101DB00000F070F805E0786800F062F8786800F0EC
:101DC00073F87B6800221A777B681B681B6903F035
:101DD0000103012B0ED17B681B68DB6803F0010354
:101DE000012B07D17B681B686FF001021A617868CC
:101DF000FEF7FAFC7B681B681B6903F08003802BED
:101E00000ED17B681B68DB6803F08003802B07D151
:101E10007B681B686FF080021A61786800F002F935
:101E20007B681B681B6903F04003402B0ED17B6865
:101E30001B68DB6803F04003402B07D17B681B68FD
:101E40006FF040021A61786800F038F87B681B6810
:101E50001B6903F02003202B0ED17B681B68DB6815
:101E600003F02003202B07D17B681B686FF0200252
:101E70001A61786800F0CCF800BF0837BD4680BD15
:101E800080B483B000AF786000BF0C37BD465DF80A
:101E9000047B704780B483B000AF786000BF0C371C
:101EA000BD465DF8047B704780B483B000AF7860B6
:101EB00000BF0C37BD465DF8047B704780B483B02B
:101EC00000AF786000BF0C37BD465DF8047B7047FB
:101ED00080B485B000AF786039607B681B68FB60B8
:101EE0007B68404A934213D07B68B3F1804F0FD098
:101EF0007B683D4A93420BD07B683C4A934207D0B3
:101F00007B683B4A934203D07B683A4A934208D1AC
:101F1000FB6823F07003FB603B685B68FA6813435F
:101F2000FB607B682F4A93422BD07B68B3F1804FD4
:101F300027D07B682C4A934223D07B682B4A93425C
:101F40001FD07B682A4A93421BD07B68294A934260
:101F500017D07B68284A934213D07B68274A934264
:101F60000FD07B68264A93420BD07B68254A934268
:101F700007D07B68244A934203D07B68234A93426C
:101F800008D1FB6823F44073FB603B68DB68FA68A8
:101F90001343FB60FB6823F080023B685B691343DB
:101FA000FB607B68FA681A603B689A687B68DA6253
:101FB0003B681A687B689A627B680A4A934203D03E
:101FC0007B680C4A934203D13B681A697B681A63A9
:101FD0007B6801225A6100BF1437BD465DF8047B5F
:101FE000704700BF000001400004004000080040AE
:101FF000000C00400004014000400140004401404A
:102000000048014000180040001C00400020004033
:1020100080B483B000AF786000BF0C37BD465DF878
:10202000047B704780B483B000AF786000BF0C378A
:10203000BD465DF8047B704780B483B000AF0346B3
:102040003960FB7197F90730002B0ADB3B68DAB285
:102050000C4997F907301201D2B20B4483F80023E0
:102060000AE03B68DAB20849FB7903F00F03043B4E
:102070001201D2B20B441A7600BF0C37BD465DF890
:10208000047B704700E100E000ED00E080B500AFA8
:10209000054B1B6801F054FC0346012B01D002F0F4
:1020A0003BFA00BF80BD00BF10E000E080B500AF8C
:1020B00000216FF00400FFF7BFFF00BF80BD0000EC
:1020C00080B483B000AFEFF305833B603B68002B27
:1020D00003D06FF005037B600CE00A4B1B68002BFC
:1020E00005D1084B01221A6000237B6002E04FF00B
:1020F000FF337B607B6818460C37BD465DF8047B78
:10210000704700BFF400002080B582B000AFEFF34D
:1021100005833B603B68002B03D06FF005037B60B9
:1021200010E00B4B1B68012B09D1FFF7BFFF084BD9
:1021300002221A6000F0BAFF00237B6002E04FF039
:10214000FF337B607B6818460837BD4680BD00BF03
:10215000F400002080B485B000AFF860B9607A6008
:10216000FB68074A1A60BB68064A1A607B688022CF
:102170001A6000BF1437BD465DF8047B704700BF8E
:10218000F80000205801002080B485B000AFF8604E
:10219000B9607A60FB68074A1A60BB68064A1A6031
:1021A0007B684FF480721A6000BF1437BD465DF83B
:1021B000047B704758030020B803002080B483B02C
:1021C00000AF78607B6803F108027B685A607B6827
:1021D0004FF0FF329A607B6803F108027B68DA6097
:1021E0007B6803F108027B681A617B6800221A6031
:1021F00000BF0C37BD465DF8047B704780B483B0E8
:1022000000AF78607B6800221A6100BF0C37BD46C2
:102210005DF8047B704780B485B000AF78603960AA
:102220007B685B68FB603B68FA685A60FB689A6889
:102230003B689A60FB689B683A685A60FB683A683A
:102240009A603B687A681A617B681B685A1C7B68D5
:102250001A6000BF1437BD465DF8047B704780B438
:1022600085B000AF786039603B681B68BB60BB68B5
:10227000B3F1FF3F03D17B681B69FB600CE07B6817
:102280000833FB6002E0FB685B68FB60FB685B682F
:102290001B68BA689A42F6D2FB685A683B685A6073
:1022A0003B685B683A689A603B68FA689A60FB68CA
:1022B0003A685A603B687A681A617B681B685A1CE6
:1022C0007B681A6000BF1437BD465DF8047B704719
:1022D00080B485B000AF78607B681B69FB607B6869
:1022E0005B687A6892689A607B689B687A685268D3
:1022F0005A60FB685B687A689A4203D17B689A6887
:10230000FB685A607B6800221A61FB681B685A1ED2
:10231000FB681A60FB681B6818461437BD465DF8F9
:10232000047B704780B584B000AF786039607B680B
:10233000FB60FB68002B0AD14FF0500383F3118838
:10234000BFF36F8FBFF34F8FBB6000BFFEE702F09C
:1023500051F8FB681A68FB68DB6BF968096C01FBD4
:1023600003F31A44FB689A60FB6800229A63FB68D7
:102370001A68FB685A60FB681A68FB68DB6B013BF4
:10238000F968096C01FB03F31A44FB68DA60FB6827
:10239000FF2283F84420FB68FF2283F845203B6836
:1023A000002B14D1FB681B69002B1AD0FB6810337B
:1023B000184601F005F90346002B12D00C4B4FF0E4
:1023C00080521A60BFF34F8FBFF36F8F09E0FB6835
:1023D00010331846FFF7F2FEFB6824331846FFF768
:1023E000EDFE02F037F8012318461037BD4680BDD8
:1023F00004ED00E080B58EB002AFF860B9607A609D
:102400003B60FB68002B0AD14FF0500383F3118827
:10241000BFF36F8FBFF34F8FBB6200BFFEE73B6818
:10242000002B0AD14FF0500383F31188BFF36F8F55
:10243000BFF34F8F7B6200BFFEE77B68002B02D0AB
:10244000BB68002B01D0012300E00023002B0AD140
:102450004FF0500383F31188BFF36F8FBFF34F8F9B
:102460003B6200BFFEE77B68002B02D1BB68002BFC
:1024700001D1012300E00023002B0AD14FF05003CB
:1024800083F31188BFF36F8FBFF34F8FFB6100BFE2
:10249000FEE750237B617B69502B0AD04FF050033D
:1024A00083F31188BFF36F8FBFF34F8FBB6100BF02
:1024B000FEE77B693B68FB62FB6A002B0DD0FB6A81
:1024C000012283F8462097F83820FB6A00931346D0
:1024D0007A68B968F86800F005F8FB6A1846303782
:1024E000BD4680BD80B584B000AFF860B9607A6049
:1024F000FB70BB68002B03D1BB69BA691A6002E0AC
:10250000BB697A681A60BB69FA68DA63BB69BA6842
:102510001A640121B869FFF705FFBB69FA7883F8EF
:102520004C2000BF1037BD4680BD000080B58EB086
:1025300000AFF860B9607A603B6000237B63FB68A2
:102540003B633B6B002B0AD14FF0500383F31188A0
:10255000BFF36F8FBFF34F8FBB6200BFFEE7BB6857
:10256000002B03D13B6B1B6C002B01D1012300E03E
:102570000023002B0AD14FF0500383F31188BFF3DF
:102580006F8FBFF34F8F7B6200BFFEE73B68022B6C
:1025900003D13B6BDB6B012B01D1012300E0002356
:1025A000002B0AD14FF0500383F31188BFF36F8FD4
:1025B000BFF34F8F3B6200BFFEE701F0C1F9034656
:1025C000002B02D17B68002B01D1012300E0002306
:1025D000002B0AD14FF0500383F31188BFF36F8FA4
:1025E000BFF34F8FFB6100BFFEE701F003FF3B6BC2
:1025F0009A6B3B6BDB6B9A4202D33B68022B29D16F
:102600003A68B968386B00F00BFAF8623B6B5B6AAA
:10261000002B10D03B6B2433184600F0D1FF03464B
:10262000002B13D03F4B4FF080521A60BFF34F8FF7
:10263000BFF36F8F0AE0FB6A002B07D0394B4FF0D6
:1026400080521A60BFF34F8FBFF36F8F01F002FF0C
:10265000012363E07B68002B03D101F0FBFE002324
:102660005CE07B6B002B06D107F11403184601F0E8
:102670000BF801237B6301F0EDFE00F07DFD01F01E
:10268000B9FE3B6B93F844305BB2B3F1FF3F03D12B
:102690003B6B002283F844203B6B93F845305BB2E0
:1026A000B3F1FF3F03D13B6B002283F8452001F0DB
:1026B000D1FE3A1D07F114031146184600F0FAFF47
:1026C0000346002B24D1386B00F0A2FA0346002BFE
:1026D00018D03B6B10337A681146184600F020FF83
:1026E000386B00F02DFA00F055FD0346002B7FF407
:1026F0007CAF0C4B4FF080521A60BFF34F8FBFF38B
:102700006F8F72E7386B00F01BFA00F043FD6CE747
:10271000386B00F015FA00F03DFD002318463837FD
:10272000BD4680BD04ED00E080B590B000AFF8601C
:10273000B9607A603B60FB68BB63BB6B002B0AD15E
:102740004FF0500383F31188BFF36F8FBFF34F8FA8
:10275000BB6200BFFEE7BB68002B03D1BB6B1B6CE9
:10276000002B01D1012300E00023002B0AD14FF000
:10277000500383F31188BFF36F8FBFF34F8F7B62DA
:1027800000BFFEE73B68022B03D1BB6BDB6B012B69
:1027900001D1012300E00023002B0AD14FF05003A8
:1027A00083F31188BFF36F8FBFF34F8F3B6200BF7E
:1027B000FEE701F001FFEFF311824FF0500383F3C6
:1027C0001188BFF36F8FBFF34F8FFA61BB61FB6955
:1027D0007B63BB6B9A6BBB6BDB6B9A4202D33B6830
:1027E000022B2FD1BB6B93F8453087F83330BB6B8E
:1027F0009B6BFB623A68B968B86B00F011F997F906
:102800003330B3F1FF3F12D1BB6B5B6A002B16D0A4
:10281000BB6B2433184600F0D3FE0346002B0ED0CA
:102820007B68002B0BD07B6801221A6007E097F8C9
:1028300033300133DBB25AB2BB6B83F8452001233E
:10284000FB6301E00023FB637B6B7B617B6983F3AC
:10285000118800BFFB6B18464037BD4680BD0000A5
:1028600080B58CB000AFF860B9607A600023FB627D
:10287000FB68BB62BB6A002B0AD14FF0500383F3A5
:102880001188BFF36F8FBFF34F8F3B6200BFFEE72E
:10289000BB68002B03D1BB6A1B6C002B01D1012349
:1028A00000E00023002B0AD14FF0500383F311887E
:1028B000BFF36F8FBFF34F8FFB6100BFFEE701F0E7
:1028C0003FF80346002B02D17B68002B01D1012386
:1028D00000E00023002B0AD14FF0500383F311884E
:1028E000BFF36F8FBFF34F8FBB6100BFFEE701F0F7
:1028F00081FDBB6A9B6B7B627B6A002B1FD0B96832
:10290000B86A00F0F7F87B6A5A1EBB6A9A63BB6A22
:102910001B69002B0FD0BB6A1033184600F050FE25
:102920000346002B07D03D4B4FF080521A60BFF397
:102930004F8FBFF36F8F01F08DFD012369E07B683E
:10294000002B03D101F086FD002362E0FB6A002B1F
:1029500006D107F11003184600F096FE0123FB6232
:1029600001F078FD00F008FC01F044FDBB6A93F82B
:1029700044305BB2B3F1FF3F03D1BB6A002283F85E
:102980004420BB6A93F845305BB2B3F1FF3F03D1FB
:10299000BB6A002283F8452001F05CFD3A1D07F177
:1029A00010031146184600F085FE0346002B23D184
:1029B000B86A00F017F90346002B17D0BB6A24331E
:1029C0007A681146184600F0ABFDB86A00F0B8F816
:1029D00000F0E0FB0346002B89D1104B4FF08052F2
:1029E0001A60BFF34F8FBFF36F8F80E7B86A00F0B4
:1029F000A7F800F0CFFB7AE7B86A00F0A1F800F082
:102A0000C9FBB86A00F0EEF80346002B3FF46FAF45
:102A1000002318463037BD4680BD00BF04ED00E0FE
:102A200080B586B000AFF860B9607A6000237B6142
:102A3000FB689B6B3B61FB681B6C002B0DD1FB683B
:102A40001B68002B4DD1FB689B68184600F096FF71
:102A50007861FB6800229A6043E07B68002B19D103
:102A6000FB685868FB681B6C1A46B96802F04EF99F
:102A7000FB685A68FB681B6C1A44FB685A60FB6869
:102A80005A68FB689B689A422BD3FB681A68FB68FC
:102A90005A6026E0FB68D868FB681B6C1A46B96868
:102AA00002F034F9FB68DA68FB681B6C5B421A447D
:102AB000FB68DA60FB68DA68FB681B689A4207D239
:102AC000FB689A68FB681B6C5B421A44FB68DA601F
:102AD0007B68022B05D13B69002B02D03B69013B8F
:102AE0003B613B695A1CFB689A637B69184618373F
:102AF000BD4680BD80B582B000AF786039607B682C
:102B00001B6C002B18D07B68DA687B681B6C1A443E
:102B10007B68DA607B68DA687B689B689A4203D3DB
:102B20007B681A687B68DA607B68D9687B681B6C95
:102B30001A46386802F0EAF800BF0837BD4680BD83
:102B400080B584B000AF786001F054FC7B6893F8E6
:102B50004530FB7311E07B685B6A002B12D07B6809
:102B60002433184600F02CFD0346002B01D000F062
:102B700003FEFB7B013BDBB2FB7397F90F30002BAD
:102B8000E9DC00E000BF7B68FF2283F8452001F00C
:102B900061FC01F02FFC7B6893F84430BB7311E0BB
:102BA0007B681B69002B12D07B681033184600F03D
:102BB00007FD0346002B01D000F0DEFDBB7B013B8F
:102BC000DBB2BB7397F90E30002BE9DC00E000BFED
:102BD0007B68FF2283F8442001F03CFC00BF1037E3
:102BE000BD4680BD80B584B000AF786001F002FCC6
:102BF0007B689B6B002B02D10123FB6001E000236B
:102C0000FB6001F027FCFB6818461037BD4680BD0D
:102C100080B584B000AF786001F0ECFB7B689A6B04
:102C20007B68DB6B9A4202D10123FB6001E0002349
:102C3000FB6001F00FFCFB6818461037BD4680BDF5
:102C400080B485B000AF786039600023FB6014E089
:102C50000F4AFB6852F83330002B0BD10C49FB684C
:102C60003A6841F833200A4AFB68DB0013447A686B
:102C70005A6006E0FB680133FB60FB68072BE7D96D
:102C800000BF00BF1437BD465DF8047B704700BF2E
:102C9000B807002080B586B000AFF860B9607A60F0
:102CA000FB687B6101F0A6FB7B6993F844305BB263
:102CB000B3F1FF3F03D17B69002283F844207B6995
:102CC00093F845305BB2B3F1FF3F03D17B6900223B
:102CD00083F8452001F0BEFB7B699B6B002B06D17E
:102CE0007B6924337A68B968184600F03DFC78693E
:102CF000FFF726FF00BF1837BD4680BD80B58EB0F8
:102D000004AFF860B9607A603B607B6B002B0AD13E
:102D10004FF0500383F31188BFF36F8FBFF34F8FD2
:102D20003B6200BFFEE7BB6B002B0AD14FF05003A4
:102D300083F31188BFF36F8FBFF34F8FFB6100BF29
:102D4000FEE760233B613B69602B0AD04FF05003E4
:102D500083F31188BFF36F8FBFF34F8FBB6100BF49
:102D6000FEE73B69BB6B002B1ED07B6B002B1BD09F
:102D7000BB6B7B627B6A7A6B1A637B6A022283F885
:102D80005D20002303937B6A029307F114030193F0
:102D90003B6B00933B687A68B968F86800F050F8BC
:102DA000786A00F0DFF801E000237B617B69184658
:102DB0002837BD4680BD80B58CB004AFF860B960DF
:102DC0003B601346FB80FB889B00184601F034FCF7
:102DD00078617B69002B0ED0602001F02DFCF8613A
:102DE000FB69002B03D0FB697A691A6305E07869F7
:102DF00001F0EEFC01E00023FB61FB69002B17D022
:102E0000FB69002283F85D20FA8800230393FB69A5
:102E10000293FB6A0193BB6A00933B68B968F86848
:102E200000F00EF8F86900F09DF80123BB6102E0A4
:102E30004FF0FF33BB61BB6918462037BD4680BDEC
:102E400080B588B000AFF860B9607A603B603B6BDA
:102E5000186B7B689B001A46A52101F0DCFE3B6BDA
:102E60001A6B7B6803F18043013B9B001344BB61F9
:102E7000BB6923F00703BB61BB6903F00703002BA9
:102E80000AD04FF0500383F31188BFF36F8FBFF365
:102E90004F8F7B6100BFFEE73B6BBA695A64BB682A
:102EA000002B1FD00023FB6112E0BA68FB691344BA
:102EB00019783A6BFB69134434330A461A70BA68BE
:102EC000FB6913441B78002B06D0FB690133FB61BF
:102ED000FB690F2BE9D900E000BF3B6B002283F8B0
:102EE000432003E03B6B002283F83420BB6A372B7E
:102EF00001D93723BB623B6BBA6ADA623B6BBA6AB1
:102F00001A653B6B00225A653B6B04331846FFF78A
:102F100075F93B6B18331846FFF770F93B6B3A6B4A
:102F20001A61BB6AC3F138023B6B9A613B6B3A6B27
:102F30005A623B6B00229A653B6B002283F85C204F
:102F40003A68F968B86901F029F902463B6B1A60E2
:102F5000FB6A002B02D0FB6A3A6B1A6000BF203775
:102F6000BD4680BD80B582B000AF786001F042FA06
:102F70002D4B1B6801332C4A13602C4B1B68002B14
:102F800009D12A4A7B681360274B1B68012B10D19B
:102F900000F018FC0DE0264B1B68002B09D1234BD9
:102FA0001B68DA6A7B68DB6A9A4202D81F4A7B6830
:102FB0001360204B1B6801331E4A13601D4B1A68B7
:102FC0007B689A647B68DA6A1B4B1B689A4203D958
:102FD0007B68DB6A184A13607B68DA6A13469B00D9
:102FE00013449B00154A1A447B6804331946104663
:102FF000FFF711F901F02EFA0D4B1B68002B0ED0D4
:103000000A4B1B68DA6A7B68DB6A9A4207D20C4B70
:103010004FF080521A60BFF34F8FBFF36F8F00BF26
:103020000837BD4680BD00BFCC0C0020F80700204B
:10303000D80C0020E80C0020D40C0020FC07002055
:1030400004ED00E080B584B000AF78600023FB6041
:103050007B68002B17D0134B1B68002B0AD04FF056
:10306000500383F31188BFF36F8FBFF34F8FBB60A3
:1030700000BFFEE700F080F80021786800F0ECFC6B
:1030800000F088F8F860FB68002B07D1064B4FF082
:1030900080521A60BFF34F8FBFF36F8F00BF10379E
:1030A000BD4680BDF40C002004ED00E080B58AB080
:1030B00004AF0023BB6000237B603A46391D07F153
:1030C00008031846FFF746F839687B68BA68029229
:1030D00001930023009300230A4621492148FFF76A
:1030E0000DFE0346204A13601F4B1B68002B02D0C5
:1030F00001237B6101E000237B617B69012B02D10D
:1031000000F0FEFC78617B69012B16D14FF0500373
:1031100083F31188BFF36F8FBFF34F8F3B6100BF05
:10312000124B4FF0FF321A60114B01221A60114B03
:1031300000221A6001F0BCF80EE07B69B3F1FF3F9A
:103140000AD14FF0500383F31188BFF36F8FBFF3A1
:103150004F8FFB6000BFFEE700BF1837BD4680BD44
:10316000C059000891370008F00C0020EC0C00203A
:10317000D80C0020D00C002080B400AF044B1B689A
:103180000133034A136000BFBD465DF8047B7047FE
:10319000F40C002080B584B000AF0023FB60002356
:1031A000BB60424B1B68002B0AD14FF0500383F3E6
:1031B0001188BFF36F8FBFF34F8F3B6000BFFEE7F7
:1031C00001F018F9394B1B68013B384A1360374B43
:1031D0001B68002B62D1364B1B68002B5ED02FE0A2
:1031E000344BDB68DB68FB60FB6818331846FFF77D
:1031F0006FF8FB6804331846FFF76AF8FB68DA6A71
:103200002D4B1B689A4203D9FB68DB6A2A4A13607C
:10321000FB68DA6A13469B0013449B00274A1A4452
:10322000FB68043319461046FEF7F5FFFB68DA6ABF
:10323000234B1B68DB6A9A4202D3224B01221A609D
:103240001C4B1B68002BCBD1FB68002B01D000F07E
:1032500057FB1D4B1B687B607B68002B10D000F078
:1032600047F80346002B02D0164B01221A607B68F8
:10327000013B7B607B68002BF1D1134B00221A606D
:10328000104B1B68002B09D00123BB600F4B4FF084
:1032900080521A60BFF34F8FBFF36F8F01F0DAF8DF
:1032A000BB6818461037BD4680BD00BFF40C002037
:1032B000CC0C00208C0C0020D40C0020FC0700203B
:1032C000F8070020E00C0020DC0C002004ED00E0FA
:1032D00080B483B000AF054B1B687B607B681846E9
:1032E0000C37BD465DF8047B704700BFD00C002052
:1032F00080B586B000AF00237B614F4B1B68002B6D
:1033000040F08F804D4B1B6801333B614B4A3B695A
:1033100013603B69002B20D1494B1B681B68002BB5
:103320000AD04FF0500383F31188BFF36F8FBFF3C0
:103330004F8F3B6000BFFEE7414B1B68FB60414B7A
:103340001B683F4A13603F4AFB6813603E4B1B6893
:1033500001333D4A136000F0D3FA3C4B1B683A69D5
:103360009A4249D3364B1B681B68002B04D1374B5C
:103370004FF0FF321A603FE0314B1B68DB68DB68BF
:10338000BB60BB685B687B603A697B689A4203D22A
:103390002E4A7B6813602FE0BB6804331846FEF7A3
:1033A00097FFBB689B6A002B04D0BB681833184694
:1033B000FEF78EFFBB68DA6A254B1B689A4203D979
:1033C000BB68DB6A224A1360BB68DA6A13469B005B
:1033D00013449B001F4A1A44BB6804331946104625
:1033E000FEF719FFBB68DA6A1B4B1B68DB6A9A425F
:1033F000B8D301237B61B5E7174B1B68DA6A15491F
:1034000013469B0013449B000B441B68012B01D9FE
:1034100001237B61114B1B68002B07D001237B61CB
:1034200004E00F4B1B6801330D4A13607B6918469B
:103430001837BD4680BD00BFF40C0020D00C002022
:10344000840C0020880C0020E40C0020EC0C0020F0
:10345000D40C0020FC070020F8070020E00C00201E
:10346000DC0C002080B485B000AF284B1B68002B1B
:1034700003D0274B01221A6041E0254B00221A603D
:10348000244B1B68FB6010E0FB68002B0AD14FF057
:10349000500383F31188BFF36F8FBFF34F8F7B60AF
:1034A00000BFFEE7FB68013BFB601B49FA6813465F
:1034B0009B0013449B000B441B68002BE4D0FA686C
:1034C00013469B0013449B00134A1344BB60BB6824
:1034D0005B685A68BB685A60BB685A68BB68083347
:1034E0009A4204D1BB685B685A68BB685A60BB6883
:1034F0005B68DB68094A1360064AFB68136000BF1B
:103500001437BD465DF8047B704700BFF40C002003
:10351000E00C0020D40C0020FC070020F80700205D
:1035200080B584B000AF786039607B68002B0AD129
:103530004FF0500383F31188BFF36F8FBFF34F8FAA
:10354000FB6000BFFEE7074B1B681833194678681D
:10355000FEF785FE0121386800F07EFA00BF1037C3
:10356000BD4680BDF807002080B586B000AFF8608A
:10357000B9607A60FB68002B0AD14FF0500383F3E7
:103580001188BFF36F8FBFF34F8F7B6100BFFEE7E2
:103590000A4B1B6818331946F868FEF73CFE7B6837
:1035A000002B02D04FF0FF33BB607968B86800F0A1
:1035B00053FA00BF1837BD4680BD00BFF807002092
:1035C00080B586B000AF78607B68DB68DB683B6104
:1035D0003B69002B0AD14FF0500383F31188BFF3EE
:1035E0006F8FBFF34F8FFB6000BFFEE73B6918335F
:1035F0001846FEF76DFE1E4B1B68002B1DD13B6964
:1036000004331846FEF764FE3B69DA6A194B1B68FF
:103610009A4203D93B69DB6A164A13603B69DA6A4E
:1036200013469B0013449B00134A1A443B6904331E
:1036300019461046FEF7EFFD05E03B6918331946C1
:103640000E48FEF7E8FD3B69DA6A0D4B1B68DB6A42
:103650009A4205D901237B610A4B01221A6001E0DD
:1036600000237B617B6918461837BD4680BD00BFCB
:10367000F40C0020D40C0020FC0700208C0C00204F
:10368000F8070020E00C002080B483B000AF786021
:10369000064B1A687B681A60054B1A687B685A608B
:1036A00000BF0C37BD465DF8047B7047E40C00207A
:1036B000D00C002080B588B000AF786039607B689E
:1036C000002B0AD14FF0500383F31188BFF36F8FA3
:1036D000BFF34F8F3B6100BFFEE73B68002B0AD171
:1036E0004FF0500383F31188BFF36F8FBFF34F8FF9
:1036F000FB6000BFFEE700F07DFE1D4B1B68BB6159
:103700007B685B68BA69D31A7B613B681B68B3F15D
:10371000FF3F02D10023FB6123E07B681A68154B51
:103720001B689A4207D07B685B68BA699A4202D3E9
:103730000123FB6115E03B681B687A699A420BD252
:103740003B681A687B69D21A3B681A607868FFF791
:103750009BFF0023FB6104E03B6800221A60012309
:10376000FB6100F077FEFB6918462037BD4680BD3F
:10377000D00C0020E40C002080B400AF034B0122E9
:103780001A6000BFBD465DF8047B7047E00C002066
:1037900080B582B000AF786000F054F8074B1B682A
:1037A000012B07D9064B4FF080521A60BFF34F8FA1
:1037B000BFF36F8FFCF7DAFEEEE700BFFC070020D7
:1037C00004ED00E080B582B000AF00237B600CE028
:1037D0007A6813469B0013449B00124A1344184610
:1037E000FEF7ECFC7B6801337B607B68372BEFD9FD
:1037F0000D48FEF7E3FC0D48FEF7E0FC0C48FEF731
:10380000DDFC0C48FEF7DAFC0B48FEF7D7FC0B4B4F
:10381000054A1A600A4B054A1A6000BF0837BD46C0
:1038200080BD00BFFC0700205C0C0020700C002055
:103830008C0C0020A00C0020B80C0020840C002070
:10384000880C002080B582B000AF19E000F0D2FDF6
:10385000104BDB68DB687B607B6804331846FEF73F
:1038600037FD0D4B1B68013B0B4A13600B4B1B686C
:10387000013B0A4A136000F0EDFD786800F010F893
:10388000064B1B68002BE1D100BF00BF0837BD46C7
:1038900080BD00BFA00C0020CC0C0020B40C002088
:1038A00080B584B000AF78607B6893F85D30002B02
:1038B00008D17B681B6B184600F08AFF786800F01F
:1038C00087FF18E07B6893F85D30012B03D178689F
:1038D00000F07EFF0FE07B6893F85D30022B0AD08A
:1038E0004FF0500383F31188BFF36F8FBFF34F8FF7
:1038F000FB6000BFFEE700BF1037BD4680BD000083
:1039000080B483B000AF0C4B1B681B68002B04D144
:103910000A4B4FF0FF321A6008E0074B1B68DB6868
:10392000DB687B607B685B68044A136000BF0C3710
:10393000BD465DF8047B7047840C0020EC0C002031
:1039400080B483B000AF0B4B1B68002B02D1012366
:103950007B6008E0084B1B68002B02D102237B60D0
:1039600001E000237B607B6818460C37BD465DF89C
:10397000047B7047D80C0020F40C002080B586B082
:1039800000AF78607B683B6100237B617B68002B24
:1039900056D02E4B1B683A699A420AD04FF050031A
:1039A00083F31188BFF36F8FBFF34F8FFB6000BFAE
:1039B000FEE73B695B6D002B0AD14FF0500383F3A8
:1039C0001188BFF36F8FBFF34F8FBB6000BFFEE75F
:1039D0003B695B6D5A1E3B695A653B69DA6A3B6914
:1039E0001B6D9A422CD03B695B6D002B28D13B6943
:1039F00004331846FEF76CFC3B691A6D3B69DA62CA
:103A00003B69DB6AC3F138023B699A613B69DA6A58
:103A10000F4B1B689A4203D93B69DB6A0C4A13605F
:103A20003B69DA6A13469B0013449B00094A1A4417
:103A30003B69043319461046FEF7EDFB01237B6119
:103A40007B6918461837BD4680BD00BFF8070020C7
:103A5000D40C0020FC07002080B584B000AF786053
:103A60003960214B1B68FB60204B1B6804331846F0
:103A7000FEF72EFC7B68B3F1FF3F0AD13B68002BB9
:103A800007D01A4B1B68043319461948FEF7C3FBCD
:103A900026E0FA687B681344BB60144B1B68BA6865
:103AA0005A60BA68FB689A4209D2124B1A680F4BE7
:103AB0001B68043319461046FEF7D1FB10E00E4B8D
:103AC0001A680A4B1B68043319461046FEF7C7FBF9
:103AD0000A4B1B68BA689A4202D2084ABB68136054
:103AE00000BF1037BD4680BDD00C0020F807002075
:103AF000B80C0020880C0020840C0020EC0C002066
:103B000080B58AB004AF00237B6100F007FB1C4B3B
:103B10001B68002B21D00023FB600023BB603A1DF3
:103B200007F1080107F10C031846FEF72DFB796831
:103B3000BB68FA68029201930223009300230A46AD
:103B400010491148FFF7DAF80346104A13600F4B8B
:103B50001B68002B01D001237B617B69002B0AD1FC
:103B60004FF0500383F31188BFF36F8FBFF34F8F74
:103B70003B6100BFFEE77B6918461837BD4680BD34
:103B8000280D0020C8590008C53C00082C0D002055
:103B900080B58AB000AFF860B9607A603B600023FE
:103BA0007B62FB68002B0AD14FF0500383F311882E
:103BB000BFF36F8FBFF34F8F3B6200BFFEE71A4B1F
:103BC0001B68002B2AD0BB683B617B687B61FB686C
:103BD000BB61BB68052B18DCFFF7B2FE0346022B66
:103BE00009D1114B186807F1100100233A6BFEF759
:103BF0009DFC786212E00C4B186807F1100100235D
:103C00000022FEF793FC786208E0074B186807F182
:103C1000100100233A68FEF787FD78627B6A184638
:103C20002837BD4680BD00BF280D002080B588B074
:103C300002AF78603960224B1B68DB68DB687B6110
:103C40007B6904331846FEF743FB7B6993F8283001
:103C500003F00403002B22D07B699A697B68D1189A
:103C60007B683A68786900F0D1F80346002B1FD0D2
:103C70000023009300237A6800217869FFF788FF0A
:103C800038613B69002B13D14FF0500383F3118847
:103C9000BFF36F8FBFF34F8FFB6000BFFEE77B6901
:103CA00093F8283023F00103DAB27B6983F82820E7
:103CB0007B691B6A7869984700BF1837BD4680BD8D
:103CC000200D002080B584B000AF786007F10803B4
:103CD000184600F057F8F860BB681946F86800F01D
:103CE00003F800F0D5F8F1E780B584B000AF786054
:103CF0003960FFF741FA07F10803184600F066F84B
:103D0000F860BB68002B30D13B68002B0AD17A6881
:103D1000FB689A4206D8FFF73DFAF9687868FFF722
:103D200085FF24E03B68002B08D0134B1B681B6801
:103D3000002B01D1012300E000233B600F4B1868EA
:103D40007A68FB68D31A3A681946FEF7A3FFFFF7B3
:103D500021FA0346002B0AD1094B4FF080521A601A
:103D6000BFF34F8FBFF36F8F01E0FFF713FA00BF70
:103D70001037BD4680BD00BF240D0020280D002057
:103D800004ED00E080B485B000AF78600E4B1B6896
:103D90001B68002B01D1012200E000227B681A6021
:103DA0007B681B68002B05D1074B1B68DB681B6811
:103DB000FB6001E00023FB60FB6818461437BD463A
:103DC0005DF8047B704700BF200D002080B584B0F3
:103DD00000AF7860FFF77CFAF8600B4B1B68FA685D
:103DE0009A4205D200F036F97B6801221A6002E09F
:103DF0007B6800221A60044AFB681360FB6818465F
:103E00001037BD4680BD00BF300D002080B586B0A4
:103E100000AFF860B9607A603B6000237B61FB68AB
:103E2000BA685A60FB68FA681A61BA687B689A4295
:103E300012D87A683B68D21AFB689B699A4202D30F
:103E400001237B611BE0104B1A68FB6804331946A1
:103E50001046FEF704FA12E07A683B689A4206D2EE
:103E6000BA683B689A4202D301237B6107E0074BA3
:103E70001A68FB68043319461046FEF7F0F97B69AF
:103E800018461837BD4680BD240D0020200D0020A7
:103E900080B58EB002AFCAE07B68002B18DA3B1DFC
:103EA0000433FB62FB6A002B0AD14FF0500383F30B
:103EB0001188BFF36F8FBFF34F8FFB6100BFFEE729
:103EC000FB6A1B68FA6A5068FA6A9268114698475A
:103ED0007B68002BC0F2AB80FB68BB62BB6A5B698E
:103EE000002B04D0BB6A04331846FEF7F1F93B46B9
:103EF0001846FFF76BFF78627B68092B00F296800B
:103F000001A252F823F000BF313F0008313F000802
:103F1000313F0008A53F0008B93F000803400008F2
:103F2000313F0008313F0008A53F0008B93F0008B5
:103F3000BB6A93F8283043F00103DAB2BB6A83F816
:103F40002820BA68BB6A9B69D118BB687A6AB86ACC
:103F5000FFF75CFF0346002B69D0BB6A1B6AB86A97
:103F60009847BB6A93F8283003F00403002B5ED017
:103F7000BA68BB6A9B691A4400230093002300219E
:103F8000B86AFFF705FE38623B6A002B4FD14FF04D
:103F9000500383F31188BFF36F8FBFF34F8FBB6163
:103FA00000BFFEE7BB6A93F8283023F00103DAB2C2
:103FB000BB6A83F828203AE0BB6A93F8283043F0C4
:103FC0000103DAB2BB6A83F82820BA68BB6A9A6137
:103FD000BB6A9B69002B0AD14FF0500383F3118811
:103FE000BFF36F8FBFF34F8F7B6100BFFEE7BB6AEC
:103FF0009A697B6AD1187B6A7A6AB86AFFF706FF0A
:1040000015E0BB6A93F8283003F00203002B03D1BC
:10401000B86A00F0DDFB0AE0BB6A93F8283023F0B1
:104020000103DAB2BB6A83F8282000E000BF084B26
:104030001B68391D00221846FEF712FC0346002BB0
:104040007FF42AAF00BF00BF3037BD4680BD00BF40
:10405000280D002080B588B002AF48E02D4B1B68CA
:10406000DB681B683B612B4B1B68DB68DB68FB6014
:10407000FB6804331846FEF72BF9FB681B6AF868E7
:104080009847FB6893F8283003F00403002B2ED0E8
:10409000FB689B693A691344BB60BA683B699A4202
:1040A0000ED9FB68BA685A60FB68FA681A61194B46
:1040B0001A68FB68043319461046FEF7D0F816E07C
:1040C0000023009300233A690021F868FFF760FDA0
:1040D00078607B68002B0AD14FF0500383F311887E
:1040E000BFF36F8FBFF34F8F3B6000BFFEE7094BFD
:1040F0001B681B68002BB1D1064B1B687B61064B0C
:104100001B68044A1360044A7B69136000BF1837B8
:10411000BD4680BD200D0020240D002080B582B05A
:1041200002AF00F067F9154B1B68002B20D1144833
:10413000FEF744F81348FEF741F8134B104A1A6093
:10414000124B104A1A6000230093114B114A1021A0
:104150000A20FEF74FF90346084A1360074B1B6815
:10416000002B05D0054B1B680B491846FEF768FD70
:1041700000F070F900BFBD4680BD00BF280D0020D3
:10418000F80C00200C0D0020200D0020240D002034
:10419000D40D0020340D0020D059000880B485B023
:1041A00000AFF860B9607A60FB68043BFB60FB68B5
:1041B0004FF080721A60FB68043BFB60BB6823F021
:1041C0000102FB681A60FB68043BFB600C4AFB6859
:1041D0001A60FB68143BFB607A68FB681A60FB6836
:1041E000043BFB60FB686FF002021A60FB68203B37
:1041F000FB60FB6818461437BD465DF8047B7047CA
:104200000542000880B485B000AF00237B60124BEC
:104210001B68B3F1FF3F0AD04FF0500383F31188BE
:10422000BFF36F8FBFF34F8FFB6000BFFEE74FF010
:10423000500383F31188BFF36F8FBFF34F8FBB60C1
:1042400000BF00BF7B68002BFCD000BF00BF14374D
:10425000BD465DF8047B7047180000200000000098
:10426000074B19680868B0E8F04F80F30988BFF37E
:104270006F8F4FF0000080F311887047AFF300801C
:10428000F807002000BF00BF08480068006880F3FE
:1042900008884FF0000080F3148862B661B6BFF35F
:1042A0004F8FBFF36F8F00DF00BF00BF08ED00E04E
:1042B00080B586B000AF464B1B68464A93420AD190
:1042C0004FF0500383F31188BFF36F8FBFF34F8F0D
:1042D0003B6100BFFEE73E4B1B683F4A93420AD159
:1042E0004FF0500383F31188BFF36F8FBFF34F8FED
:1042F000FB6000BFFEE7394B7B617B691B78DBB25B
:104300007B607B69FF221A707B691B78DBB2FB70D4
:10431000FB78DBB203F05003DAB2314B1A70314B49
:1043200007221A6009E02F4B1B68013B2D4A1360DE
:10433000FB78DBB25B00DBB2FB70FB78DBB203F037
:104340008003802BEFD0274B1B68C3F10703042B9E
:104350000AD04FF0500383F31188BFF36F8FBFF380
:104360004F8FBB6000BFFEE71E4B1B681B021D4A40
:1043700013601C4B1B6803F4E0631A4A13607B68EC
:10438000DAB27B691A70184B1B68174A43F4700342
:104390001360154B1B68144A43F07043136000F020
:1043A000DDF8124B00221A6000F0FCF8104B1B687D
:1043B0000F4A43F040431360FFF766FFFFF752F8E0
:1043C000FFF720FF002318461837BD4680BD00BF09
:1043D00000ED00E071C20F4170C20F4100E400E047
:1043E000240E0020280E002020ED00E01800002000
:1043F00034EF00E080B483B000AF4FF0500383F39C
:104400001188BFF36F8FBFF34F8F7B6000BF0F4BDF
:104410001B6801330D4A13600C4B1B68012B0FD135
:104420000B4B1B68DBB2002B0AD04FF0500383F319
:104430001188BFF36F8FBFF34F8F3B6000BFFEE764
:1044400000BF0C37BD465DF8047B704718000020A4
:1044500004ED00E080B483B000AF124B1B68002B6A
:104460000AD14FF0500383F31188BFF36F8FBFF36E
:104470004F8F7B6000BFFEE70A4B1B68013B094A78
:104480001360084B1B68002B05D100233B603B6881
:1044900083F3118800BF00BF0C37BD465DF8047B75
:1044A000704700BF1800002000000000000000005E
:1044B000EFF30980BFF36F8F154B1A681EF0100FD2
:1044C00008BF20ED108A20E9F04F10602DE90900A7
:1044D0004FF0500080F31188BFF34F8FBFF36F8F01
:1044E000FEF7C0FF4FF0000080F3118809BC196887
:1044F0000868B0E8F04F1EF0100F08BFB0EC108A4B
:1045000080F30988BFF36F8F704700BFAFF300805F
:10451000F807002000BF00BF80B582B000AF4FF0A9
:10452000500383F31188BFF36F8FBFF34F8F7B600E
:1045300000BFFEF7DDFE0346002B03D0064B4FF015
:1045400080521A6000233B603B6883F3118800BFF0
:1045500000BF0837BD4680BD04ED00E080B400AF69
:104560000B4B00221A600B4B00221A600A4B1B688F
:104570000A4AA2FB03239B09094A013B1360044B2F
:1045800007221A6000BFBD465DF8047B704700BF7C
:1045900010E000E018E000E00C000020D34D6210B5
:1045A00014E000E0DFF80C00016841F470010160E4
:1045B000704700BF88ED00E080B485B000AFEFF336
:1045C0000583FB60FB680F2B14D9174AFB68134463
:1045D0001B78FB72154B1B78FA7A9A420AD24FF07D
:1045E000500383F31188BFF36F8FBFF34F8F7B604E
:1045F00000BFFEE70E4B1B6803F4E0620D4B1B6827
:104600009A420AD94FF0500383F31188BFF36F8F9A
:10461000BFF34F8F3B6000BFFEE700BF1437BD46BE
:104620005DF8047B704700BFF0E300E0240E00203B
:104630000CED00E0280E002080B58AB000AF786055
:104640000023FB61FEF798FD5B4B1B68002B01D13B
:1046500000F020F9594B1A687B681340002B40F09A
:1046600093807B68002B1DD008227B6813447B60FD
:104670007B6803F00703002B14D07B6823F007034B
:1046800008337B607B6803F00703002B0AD04FF0F0
:10469000500383F31188BFF36F8FBFF34F8F7B619C
:1046A00000BFFEE77B68002B6ED0454B1B687A6825
:1046B0009A4269D8434B3B62424B1B687B6204E0E1
:1046C0007B6A3B627B6A1B687B627B6A5B687A6899
:1046D0009A4203D97B6A1B68002BF1D1364B1B68C9
:1046E0007A6A9A4250D03B6A1B6808221344FB61E5
:1046F0007B6A1A683B6A1A607B6A5A687B68D21ABE
:1047000008235B009A421FD97A6A7B681344BB6115
:10471000BB6903F00703002B0AD04FF0500383F36B
:104720001188BFF36F8FBFF34F8F3B6100BFFEE770
:104730007B6A5A687B68D21ABB695A607B6A7A685E
:104740005A60B86900F008F91D4B1A687B6A5B680B
:10475000D31A1B4A13601A4B1A681B4B1B689A42E8
:1047600003D2174B1B68184A13607B6A5A68134BB5
:104770001B681A437B6A5A607B6A00221A60134BDB
:104780001B680133114A1360FEF704FDFB6903F057
:104790000703002B0AD04FF0500383F31188BFF3B7
:1047A0006F8FBFF34F8FFB6000BFFEE7FB691846BA
:1047B0002837BD4680BD00BF344A0020484A00204B
:1047C000384A00202C4A00203C4A0020404A002061
:1047D00080B586B000AF78607B687B617B68002B1A
:1047E0004DD008235B427A6913447B617B693B614E
:1047F0003B695A68244B1B681340002B0AD14FF0C9
:10480000500383F31188BFF36F8FBFF34F8FFB60AB
:1048100000BFFEE73B691B68002B0AD04FF0500336
:1048200083F31188BFF36F8FBFF34F8FBB6000BF5F
:10483000FEE73B695A68144B1B681340002B1ED0DF
:104840003B691B68002B1AD13B695A680E4B1B68E9
:10485000DB431A403B695A60FEF78EFC3B695A689D
:104860000A4B1B681344094A1360386900F074F856
:10487000074B1B680133064A1360FEF78BFC00BF31
:104880001837BD4680BD00BF484A0020384A002086
:10489000444A002080B485B000AF4FF47053BB6031
:1048A000274BFB60FB6803F00703002B0CD0FB6871
:1048B0000733FB60FB6823F00703FB60BA68FB6803
:1048C000D31A1F4A1344BB60FB687B601D4A7B6898
:1048D00013601C4B00225A607B68BA681344FB606B
:1048E0000822FB689B1AFB60FB6823F00703FB6050
:1048F000FB68154A1360144B1B6800225A60124B68
:104900001B6800221A607B683B603B68FA68D21A19
:104910003B685A600C4B1A683B681A603B685B68DE
:104920000A4A13603B685B68094A1360094B4FF001
:1049300000421A6000BF1437BD465DF8047B704723
:104940002C0E00202C4A0020344A00203C4A002033
:10495000384A0020484A002080B485B000AF786013
:10496000284BFB6002E0FB681B68FB60FB681B6870
:104970007A689A42F7D8FB68BB60FB685B68BA68E4
:1049800013447A689A4208D1FB685A687B685B686E
:104990001A44FB685A60FB687B607B68BB607B687D
:1049A0005B68BA681A44FB681B689A4218D1FB68B6
:1049B0001A68154B1B689A420DD07B685A68FB68D1
:1049C0001B685B681A447B685A60FB681B681A683E
:1049D0007B681A6008E00C4B1A687B681A6003E079
:1049E000FB681A687B681A60FA687B689A4202D092
:1049F000FB687A681A6000BF1437BD465DF8047B17
:104A0000704700BF2C4A0020344A0020002310B514
:104A10000446C0E90033C0E9043383608181436602
:104A2000C2818361194608225C3000F0F4F8054B1E
:104A30006362054BA362054BE362054B246223636B
:104A400010BD00BF914B0008B34B0008EB4B0008B2
:104A50000F4C0008024A0349034800F069B800BF40
:104A60001C000020CD5500082800002041680C4B98
:104A7000994210B5044601D000F0A8FDA168094B89
:104A8000994202D0204600F0A1FDE168064B994210
:104A900004D02046BDE8104000F098BD10BD00BF16
:104AA0004C4A0020B44A00201C4B002010B50B4B90
:104AB0000B4C0C4A1A60204600220421FFF7A6FF87
:104AC00004F1680001220921FFF7A0FF04F1D000E2
:104AD0000222BDE810401221FFF798BF844B00204E
:104AE0004C4A0020554A0008014800F00DB900BFAB
:104AF0008D4B0020014800F008B900BF8D4B00200D
:104B000010B50446FFF7F0FF236A1BB1BDE8104063
:104B1000FFF7F0BF044B2362044B1B68002BF5D159
:104B2000FFF7C4FFF2E700BF6D4A0008844B002086
:104B30002DE9F8430746884614460026D4E9019536
:104B4000B9F1010905D52468002CF7D13046BDE83C
:104B5000F883AB89012B07D9B5F90E30013303D0A7
:104B600029463846C04706436835E9E70FB407B51C
:104B7000064904AB086853F8042B8168019300F0E0
:104B8000F5F903B05DF804EB04B070477400002041
:104B900010B50C46B1F90E1000F068F80028ABBF54
:104BA000636DA3891B1823F48053ACBF6365A38195
:104BB00010BD2DE9F0411F468B89DB0505460C46EB
:104BC000164605D5B1F90E100223002200F03CF87C
:104BD000A389B4F90E1023F48053A38132463B46D7
:104BE0002846BDE8F04100F053B810B50C46B1F9C5
:104BF0000E1000F029F8431CA38915BF606523F44B
:104C0000805343F48053A38118BFA38110BDB1F931
:104C10000E1000F009B802440346934200D17047D9
:104C200003F8011BF9E7000038B5064D00230446E0
:104C300008462B60FBF7F7FE431C02D12B6803B13B
:104C4000236038BD884B002038B5074D0446084620
:104C5000114600222A601A46FBF70CFF431C02D1C2
:104C60002B6803B1236038BD884B002038B5074D51
:104C700004460846114600222A601A46FBF79AFEAF
:104C8000431C02D12B6803B1236038BD884B002040
:104C900038B5074D04460846114600222A601A46D8
:104CA000FBF7A5FE431C02D12B6803B1236038BD7E
:104CB000884B0020014B1868704700BF740000202B
:104CC00070B50D4D0D4C641BA4100026A64209D1F1
:104CD0000B4D0C4C00F0CCFD641BA4100026A6422A
:104CE00005D170BD55F8043B98470136EEE755F8FD
:104CF000043B98470136F2E72C5A00082C5A00086A
:104D00002C5A0008305A0008704770470A449142F4
:104D100000F1FF3300D1704710B511F8014B03F8D3
:104D2000014F9142F9D110BD37B5002944D051F857
:104D3000043C0190002BA1F10404B8BFE41800F07A
:104D4000DFF81E4A0198136833B96360146003B03A
:104D5000BDE8304000F0DAB8A34208D925686119EF
:104D60008B4201BF19685B6849192160EDE71A465B
:104D70005B680BB1A342FAD911685518A5420BD153
:104D8000246821445418A3421160E0D11C685B6878
:104D900053600C441460DAE702D90C230360D6E7B1
:104DA000256861198B4204BF19685B68636004BFA2
:104DB000491921605460CAE703B030BD904B002010
:104DC00070B50E4E0C463168054611B900F0BCFCBA
:104DD00030602146284600F0B7FC431C0AD0C41CB2
:104DE00024F00304A04207D0211A284600F0ACFCAE
:104DF000013001D14FF0FF34204670BD944B0020AC
:104E00002DE9F843CD1C25F0030508350C2D38BFDE
:104E10000C25002D074601DBA94205D90C233B6078
:104E200000263046BDE8F883DFF8D08000F068F84F
:104E3000D8F800301C465CBB29463846FFF7C0FF57
:104E4000431C044655D1D8F800402646002E45D1D3
:104E5000002C48D023683146384604EB030900F0A3
:104E600073FC81453FD121686D1A29463846FFF70A
:104E7000A7FF013037D023682B442360D8F80030D7
:104E8000002B38D05A68A2422BD100225A600FE082
:104E90002268521B1FD40B2A17D96119A34225601F
:104EA00018BF5960636808BFC8F8001062514B60B2
:104EB000384604F10B0600F029F826F00706231DFA
:104EC000F21AAED09B1BA350ABE7A3426268DDD1C0
:104ED000C8F80020ECE723466468ACE734467668FF
:104EE000B4E71346CCE70C233B60384600F00EF8DD
:104EF00097E72560DCE75B60FFDE00BF904B00209A
:104F00000148FFF701BF00BF8C4B00200148FFF7AD
:104F1000FCBE00BF8C4B00209368013B002B10B4FB
:104F2000936008DA9469A34201DB0A2903D15DF892
:104F3000044B00F073BB1368581C106019700846CE
:104F40005DF8044B7047F8B506460F461446D51871
:104F5000AC4201D1002007E014F8011B3A4630466C
:104F6000FFF7DAFF431CF3D1F8BD00002DE9F04F45
:104F70000D469DB014469846064618B1036A0BB913
:104F8000FFF7BEFD6B6ED90705D4AB899A0502D435
:104F9000A86DFFF7B9FEAB891B0701D52B699BB93B
:104FA0002946304600F078FB70B16B6EDC0704D503
:104FB0004FF0FF301DB0BDE8F08FAB899805F7D4F6
:104FC000A86DFFF7A2FEF3E70023099320238DF8D5
:104FD0002930CDF80C803023DFF8B0818DF82A30ED
:104FE0004FF0010923469A4613F8012B0AB1252AEE
:104FF000F9D1BAEB040B0BD05B462246294630466A
:10500000FFF7A1FF013000F0A980099A5A440992E4
:105010009AF80030002B00F0A18000234FF0FF32FF
:10502000CDE905230AF1010A049307938DF8533063
:105030001A935446052214F8011B5448FBF7C8F88C
:10504000049AD8B9D10644BF20238DF853301307F2
:1050500044BF2B238DF853309AF800302A2B15D0FB
:10506000079A544600204FF00A0C214611F8013BE4
:10507000303B092B4DD9B0B1079214E0A0EB0803E7
:1050800009FA03F313430493A246D2E7039B191DC5
:105090001B680391002BBBBF5B4242F002020793E7
:1050A0000793B8BF049223782E2B0CD163782A2B58
:1050B00034D1039B1A1D1B680392002BB8BF4FF01D
:1050C000FF3302340593DFF8D4A021780322504641
:1050D000FBF77EF838B1049BA0EB0A004022824027
:1050E00013430134049314F8011B29488DF8281048
:1050F0000622FBF76DF800283FD0264B1BBB039B15
:10510000073323F0070308330393099B3B440993B8
:1051100068E70CFB02320C460120A6E700230134AD
:10512000059319464FF00A0C204610F8012B303A2F
:10513000092A03D9002BC6D00591C4E70CFB012135
:1051400004460123F0E703AB00932A46124B04A95F
:105150003046AFF300800746781CD6D16B6ED90776
:1051600005D4AB899A0502D4A86DFFF7CEFDAB89B3
:105170005B063FF51DAF09981CE703AB00932A4679
:10518000054B04A9304600F079F8E4E7F05900082F
:10519000FA59000800000000474F0008F6590008BF
:1051A0002DE9F047164699468A680B69DDF820809C
:1051B0009342B8BF1346336091F8432007460C462C
:1051C0000AB1013333602368990642BF3368023362
:1051D0003360256815F0060506D104F1190AE36865
:1051E00032689B1AAB4226DC94F84320131E2268D7
:1051F00018BF012392062BD404F1430249463846D6
:10520000C04701301ED02368226903F00603042B37
:1052100002BFE5683368ED1AA3680CBF25EAE5759F
:1052200000259342C4BF9B1AED1800261A34B542DC
:105230001AD1002008E00123524649463846C047AB
:10524000013003D14FF0FF30BDE8F0870135C6E7EC
:10525000E1185A1C302081F84300224494F845108C
:1052600082F843100233C7E70123224649463846F5
:10527000C0470130E6D00136D9E700002DE9FF47ED
:105280000F7E0C9D782F914680460C469A4601F180
:10529000430207D8622F0AD8002F00F0D480582F7D
:1052A00000F0C08004F1420584F842703AE0A7F1B2
:1052B0006303152BF6D801A151F823F0155300080C
:1052C00029530008A5520008A5520008A55200085D
:1052D000A552000829530008A5520008A55200084D
:1052E000A5520008A55200082D5400085553000887
:1052F000E7530008A5520008A55200084F540008C3
:10530000A552000855530008A5520008A5520008F0
:10531000EF5300082B681A1D1B682A6004F1420530
:1053200084F8423001239FE020682B68070603F1D0
:105330000401296001D51E6803E04606FBD5B3F9D8
:105340000060002E03DA2D23764284F843305A4859
:105350000A2312E02B682068191D2960050601D573
:105360001E6802E04106FBD51E8853486F2F0CBF14
:1053700008230A23002184F843106568A560002DE6
:10538000A2BF216821F0040121600EB9002D4BD08D
:105390001546B6FBF3F103FB1167C75D05F8017D08
:1053A0003746BB420E46F4D9082B0BD12368DE07E3
:1053B00008D5236961689942DEBF302305F8013CB6
:1053C00005F1FF35521B2261CDF800A04B4603AA20
:1053D00021464046FFF7E4FE01304AD14FF0FF304E
:1053E00004B0BDE8F087236843F02003236033480E
:1053F000782784F84570236829681F0651F8046BE4
:1054000002D45F0648BFB6B2DF0748BF43F02003AF
:10541000296048BF23601EB9236823F0200323605E
:105420001023A7E72448E4E71546BDE72B68266864
:105430006169181D286035061B6801D5196002E0F6
:105440007006FBD51980002323611546BCE72B6845
:105450001A1D2A601D68626800212846FAF7B8FE06
:1054600008B1401B606063682361002384F8433007
:10547000AAE723692A4649464046D0470130ADD0C5
:1054800023689B0713D4E068039B9842B8BF184673
:10549000A6E70123324649464046D04701309DD019
:1054A0000135E36803995B1AAB42F2DCEBE70025B8
:1054B00004F11906F5E700BF015A0008125A000866
:1054C0008A892DE9F041054610070C4658D44B68EF
:1054D000002B05DC0B6C002B02DC0020BDE8F0810A
:1054E000E66A002EF9D0002312F480522F68216A58
:1054F0002B6032D0606DA3895A0705D56368C01A46
:10550000636B0BB1236CC01A00230246E66A216A62
:105510002846B047431CA38906D129681D292BD8EA
:10552000294A0A41D60727D400226260D904226999
:10553000226004D5421C01D12B6803B96065616B00
:105540002F600029C9D004F14403994202D02846B3
:10555000FFF7EAFB00206063C0E701232846B0475D
:10556000411CC8D12B68002BC5D01D2B01D0162B98
:1055700001D12F60B1E7A38943F04003A381ADE7D8
:105580000F69002FA9D093070E6808BF4B690F6001
:1055900018BF0023A6EB07088B60B8F1000F9CDD55
:1055A000216AA66A43463A462846B047002806DCE8
:1055B000A38943F04003A3814FF0FF308EE70744F7
:1055C000A8EB0008E9E700BFFEFFBFDF38B50B69B5
:1055D00005460C4613B90025284638BD18B1036AA4
:1055E0000BB9FFF78DFAB4F90C30002BF3D0626ED3
:1055F000D00704D4990502D4A06DFFF785FB284697
:105600002146FFF75DFF636EDA070546E4D4A38900
:105610009B05E1D4A06DFFF778FBDDE7F8B50E46FA
:105620001446054618B1036A0BB9FFF769FAA36976
:10563000A360A3891A0725D523691BB323682269B0
:10564000981A6369F6B28342374604DC214628463D
:10565000FFF7BCFFE0B9A368013BA36023685A1CB5
:1056600022601E706269431C9A4204D0A389DB0742
:1056700006D50A2E04D121462846FFF7A7FF38B9E0
:105680003846F8BD2146284600F006F80028D5D057
:105690004FF0FF37F4E7000038B52A4B054618688D
:1056A0000C4618B1036A0BB9FFF72AFAA389B4F9BB
:1056B0000C20180722D4D90607D409232B6042F006
:1056C0004003A3814FF0FF3034E0580712D5616BDF
:1056D00041B104F14403994202D02846FFF724FB6C
:1056E00000236363A38923F02403A3810023636061
:1056F00023692360A38943F00803A38123694BB97D
:10570000A38903F42073B3F5007F03D02146284614
:1057100000F050F8A089B4F90C2010F001030AD071
:105720000023A36063695B42A361236943B910F05E
:105730008000C4D138BD810758BF6369A360F4E716
:105740000020F7E77400002038B5064D002304461A
:1057500008462B60FBF79CF9431C02D12B6803B170
:10576000236038BD884B002070B50C46B1F90E108F
:10577000002996B015461E460DDAA38913F0800F56
:105780004FF000010CBF4FF48063402300203160D4
:105790002B6016B070BD6A4600F048F80028ECDBBC
:1057A000019901F47041A1F50053594259414FF458
:1057B0008063EBE78B8973B59D0706460C4607D5DA
:1057C00004F14703236023610123636102B070BDCC
:1057D00001AB6A46FFF7C8FF009905463046FFF760
:1057E0000FFB48B9B4F90C309A05EFD423F003034A
:1057F00043F00203A381E3E7A389206043F0800321
:10580000A381009B6361019B20615BB1B4F90E1021
:10581000304600F01DF828B1A38923F0030343F0BC
:105820000103A381A3891D43A581CFE738B5074DA7
:1058300000230446084611462B60FBF700F9431C81
:1058400002D12B6803B1236038BD00BF884B002014
:1058500038B5064D0023044608462B60FBF7FFF8D9
:10586000431C02D12B6803B1236038BD884B002054
:10587000F8B500BFF8BC08BC9E467047F8B500BF3D
:08588000F8BC08BC9E4670470D
:105888005461736B5F3100005461736B5F320000C9
:105898005461736B5F3300005461736B5F340000B5
:1058A8005468697320697320765461736B436F641D
:1058B800654F6E65205461736B000000546869730E
:1058C80020697320765461736B436F646554776FF6
:1058D800205461736B0000005461736B5F4F6E65F9
:1058E80020436F756E7465725F5461736B203D2041
:1058F8002569200A000000005461736B5F54776FBC
:1059080020436F756E7465725F5461736B203D2020
:105918002569200A000000005461736B5F546872A7
:10592800656520436F756E7465725F5461736B2093
:105938003D202569200A00005461736B5F466F752E
:105948007220436F756E7465725F5461736B203D8E
:10595800202569200A000000765461736B436F6448
:10596800654F6E652030782558203D3E200A00009E
:10597800765461736B436F64654F6E65203078258C
:1059880058202D3E200A000053747564656E7420FB
:105998004944202020203A202569200A00000000E0
:1059A80053747564656E74204772616465203A208B
:1059B8002569200A0000000049444C450000000009
:1059C800546D722053766300546D725100000000CC
:1059D8000000000000000000010203040607080997
:1059E8000000000001020304232D302B2000686C06
:1059F8004C006566674546470030313233343536EA
:105A08003738394142434445460030313233343522
:0C5A18003637383961626364656600004F
:085A24007CA8FF7F01000000D7
:045A2C00B5010008B8
:045A300091010008D8
:105A34004433221158000000630000000024F400E5
:105A44001000000001000000AAAAAAAA0000000099
:105A5400030000004C4A0020000000004C4A0020D3
:105A6400B44A00201C4B002000000000000000008D
:105A74000000000000000000000000000000000022
:105A84000000000000000000000000000000000012
:105A94000000000000000000000000000000000002
:085AA4000000000028000020B2
:0400000508000B21C3
:00000001FF
