:020000040800F2
:1000000000000120E5080008BD080008BF0800083E
:10001000C1080008C3080008C50800080000000067
:10002000000000000000000000000000C7080008F9
:10003000C908000800000000CB080008CD0800082F
:100040003509000835090008350900083509000898
:100050003509000835090008350900083509000888
:100060003509000835090008350900083509000878
:100070003509000835090008350900083509000868
:10008000350900083509000835090008000000009E
:10009000000000000000000000000000350900081A
:1000A0003509000835090008350900083509000838
:1000B0003509000835090008350900083509000828
:1000C0003509000835090008350900083509000818
:1000D000350900083509000835090008000000004E
:1000E000350900083509000835090008000000003E
:1000F00000000000000000000000000035090008BA
:10010000000000003509000835090008350900081D
:1001100000000000000000000000000000000000DF
:1001200035090008350900083509000835090008B7
:100130003509000800000000000000000000000079
:100140000000000000000000000000003509000869
:100150003509000835090008350900083509000887
:100160003509000835090008000000000000000003
:10017000000000000000000000000000000000007F
:100180000000000035090008000000000000000029
:040190003509000825
:1001940010B5054C237833B9044B13B10448AFF3BD
:1001A40000800123237010BD0C000020000000001B
:1001B4001C17000808B5034B1BB103490348AFF3F0
:1001C400008008BD00000000100000201C1700087B
:1001D40053B94AB9002908BF00281CBF4FF0FF31AA
:1001E4004FF0FF3000F070B9ADF1080C6DE904CEAA
:1001F40000F006F8DDF804E0DDE9022304B07047FE
:100204002DE9F047089E0D4604460F46002B4AD1BF
:100214008A42944665D9B2FA82F343B102FA03FCE6
:10022400C3F120029F4020FA02F217439C404FEA98
:100234001C4E1FFA8CF5B7FBFEF1220C0EFB117756
:1002440042EA074201FB05F090420AD91CEB020284
:1002540001F1FF3780F01C81904240F2198102398C
:100264006244121AA4B2B2FBFEF00EFB102244EA5E
:10027400024400FB05F5A5420AD91CEB040400F175
:10028400FF3280F00781A54240F2048164440238C1
:1002940040EA0140641B00211EB1DC400023C6E992
:1002A4000043BDE8F0878B4208D9002E00F0ED80B2
:1002B4000021C6E900050846BDE8F087B3FA83F1DA
:1002C400002949D1AB4202D3824200F2F880841A59
:1002D40065EB030201201746002EE2D0C6E9004771
:1002E400DFE702B9FFDEB2FA82F3002B40F0908020
:1002F4008A1A4FEA1C471FFA8CFE0121B2FBF7F55C
:1003040007FB1520220C42EA00420EFB05F0904246
:1003140008D91CEB020205F1FF3802D2904200F228
:10032400CB804546121AA4B2B2FBF7F007FB1022A9
:1003340044EA02440EFB00FEA64508D91CEB040463
:1003440000F1FF3202D2A64500F2BB801046A4EBB6
:100354000E0440EA05409FE7C1F120078B4022FAD2
:1003640007FC4CEA030C05FA01F420FA07F3FD40FC
:100374004FEA1C492343B5FBF9F81FFA8CFE09FB2D
:1003840018551C0C44EA054408FB0EF5A54202FA74
:1003940001F200FA01F00BD91CEB040408F1FF3A56
:1003A40080F08880A54240F28580A8F10208644468
:1003B400641B9DB2B4FBF9F309FB134445EA0444FE
:1003C40003FB0EFEA64508D91CEB040403F1FF351C
:1003D4006CD2A6456AD9023B644443EA0843A3FBB2
:1003E4000295A4EB0E04AC42C846AE4656D353D095
:1003F40056B1B0EB080264EB0E0404FA07F7CA40E6
:10040400CC401743C6E9007418460021BDE8F087C4
:10041400C3F1200102FA03FC20FA01F225FA01F1EA
:100424009D402A434FEA1C471FFA8CFEB1FBF7F0AC
:1004340007FB1015110C41EA054100FB0EF58D4236
:1004440004FA03F408D91CEB010100F1FF382FD2A0
:100454008D422DD902386144491B92B2B1FBF7F5A4
:1004640007FB151142EA014205FB0EF1914208D93E
:100474001CEB020205F1FF3816D2914214D9023D59
:100484006244521A45EA004138E73146304608E7EB
:100494003946E6E61046FBE64845A9D2B9EB020820
:1004A40065EB0C0E013BA3E74546EAE72B4694E7D0
:1004B4004046D1E7D0467BE7023D624432E7084636
:1004C4000AE76444023842E7704700BF10B594B0AD
:1004D400102200210AA801F0F3F81422002103A835
:1004E40001F0EEF8204B002101911A6C42F0805289
:1004F4001A641B6C1D4A03F080530193019B029103
:10050400136823F4404343F400431360136803F473
:1005140040430293029B01224FF48033CDE9082328
:1005240002244FF48003CDE90E4319214FF4A8733C
:10053400CDE9101308A80423CDE9123300F06AFBB7
:1005440008B172B6FEE70F23CDE903344FF48053AC
:10055400CDE906300590214603A800F035FD08B129
:1005640072B6FEE714B010BD0038024000700040BF
:100574002DE9F04192B0002500F000FAFFF7A6FF44
:100584007B4B01951A6B7B4C42F004021A631A6B85
:1005940002F004020192019A02951A6B42F0800261
:1005A4001A631A6B02F080020292029A03951A6B84
:1005B40042F001021A631A6B02F001020392039AD9
:1005C40004951A6B42F002021A631B6B03F00203D8
:1005D40004931022294607A8049B01F071F81C22F9
:1005E40029460BA8CDE905554DF65A5701F068F890
:1005F4004FF080432046C4E90035C4E90375A56083
:10060400A56100F03FFE08B172B6FEE74FF48058D2
:1006140007A92046CDF81C8000F01BFF08B172B674
:10062400FEE7204600F05AFE08B172B6FEE7CDE9B7
:10063400050005A9204601F00DF8024608B172B67E
:10064400FEE76023CDE90B300D900F900BA92046F7
:1006540000F09CFE08B172B6FEE704220BA9204606
:1006640000F094FE08B172B6FEE708220BA92046FA
:1006740000F08CFE08B172B6FEE70C220BA92046EE
:1006840000F084FE054608B172B6FEE7204600F08D
:10069400BBF81022294607A801F012F8364E1C2296
:1006A40029460BA8CDE9055501F00AF8334B35610D
:1006B4003046C6E90035C6E90257B56100F0E2FDEF
:1006C40008B172B6FEE707A93046CDF81C8000F0E9
:1006D400C0FE08B172B6FEE7274800F0FFFD08B17E
:1006E40072B6FEE7CDE9050005A9234800F0B2FF84
:1006F400024608B172B6FEE76023CDE90B300D90D7
:100704000F900BA91C4800F041FE08B172B6FEE739
:10071400194804220BA900F039FE08B172B6FEE7AD
:10072400154808220BA900F031FE054608B172B63F
:10073400FEE711480F4E00F067F80021304600F044
:1007440087FF0028F9D0E168226800238B4208D390
:10075400002BF2D064339BB253639363D36313646B
:10076400F6E764339BB253639563D3631364EDE795
:1007740000380240280000207000002000040040DF
:1007840082B00C4B002100915A6C42F480425A64AE
:100794005A6C02F480420092009A01911A6C42F061
:1007A40080521A641B6C03F080530193019B02B0C6
:1007B400704700BF003802400368B3F1804F82B035
:1007C4000DD1002300930E4B1A6C42F001021A64FF
:1007D4001B6C03F001030093009B02B07047094AAD
:1007E4009342FAD100230193054B1A6C42F00202A2
:1007F4001A641B6C03F002030193019BEDE700BF35
:10080400003802400004004030B5044689B0142288
:10081400002103A800F054FF2368B3F1804F17D1DF
:1008240000230093204B21481A6B42F001021A6303
:100834001B6B03F001030093009B0F220223CDE9FD
:1008440003230123079303A900F01CF909B030BD69
:10085400174A9342FAD1144B1448002501951A6B98
:1008640042F001021A631A6B02F001020192019A2A
:1008740002951A6B42F002021A631B6B03F0020327
:1008840002930224029B0794C02303A9CDE90334F5
:1008940000F0F8F80123CDE90334CDE90555054806
:1008A400079403A9D0E700BF0038024000000240CB
:1008B4000004004000040240FEE7FEE7FEE7FEE716
:1008C400FEE770477047704700F072B8034AD2F8E9
:1008D400883043F47003C2F88830704700ED00E0BC
:1008E400DFF834D00D480E490E4A002302E0D458F4
:1008F400C4500433C4188C42F9D30B4A0B4C002364
:1009040001E013600432A242FBD3FFF7DFFF00F0E3
:10091400DFFEFFF72DFE70470000012000000020DD
:100924000C000020541700080C000020BC0000201C
:10093400FEE7000038B50E4B1A784FF47A73B3FB18
:10094400F2F30C4A05461068B0FBF3F000F086F8A9
:10095400044658B90F2D09D8024629464FF0FF30F6
:1009640000F04AF8044B20461D6038BD0120FCE726
:1009740004000020000000200800002008B50B4BF4
:100984001A6842F400721A601A6842F480621A60AB
:100994001A6842F480721A60032000F01BF80F20DA
:1009A400FFF7C8FFFFF7ECFE002008BD003C024043
:1009B400034A044B11681B780B441360704700BF53
:1009C400B800002004000020014B1868704700BFE5
:1009D400B80000200749CA6822F4E0620302120446
:1009E40003F4E063120C134343F0BF6343F4003396
:1009F400CB60704700ED00E0164B30B5DC68C4F303
:100A04000224C4F10703251D042B28BF0423062D4B
:100A14004FF0FF358CBF033C002405FA03F321EAB1
:100A24000303A54022EA0502A340002843EA020387
:100A3400ACBF00F16040084A4FEA0313B8BF00F0AE
:100A44000F00DBB2AABF00F56140135480F80033F5
:100A540030BD00BF00ED00E014ED00E00138B0F15E
:100A6400807F0BD24FF0E023054A5861F02182F8D1
:100A740023100020072298611A61704701207047F3
:100A840000ED00E02DE9F74FDFF884915E4A002382
:100A94000D6801249C4004EA050CAC4340F0A58099
:100AA4004D6805F003044FEA43080326671E06FA5F
:100AB40008F6012F6FEA060634D8876807EA060E9F
:100AC400CF6807FA08F747EA0E078760476827EAFE
:100AD4000C0EC5F300179F4047EA0E074760C7682E
:100AE40007EA060E8F6807FA08F747EA0E07022C92
:100AF400C76019D14FEAD30A00EB8A0A03F0070B47
:100B0400DAF820704FEA8B0B4FF00F0E0EFA0BFE43
:100B140027EA0E0E0F6907FA0BF747EA0E07CAF821
:100B2400207001E0032CDAD1076804FA08F4374096
:100B34003C4315F4403F046057D04FF0000ACDF811
:100B440004A0D9F84460314C46F48046C9F84460A6
:100B5400D9F8446006F480460196019E23F003060A
:100B640006F1804606F59C3603F0030ED6F808809D
:100B74004FEA8E0E0F2707FA0EF7A04228EA07075E
:100B84003AD004F58064A04238D004F58064A042D1
:100B940036D004F58064A04234D004F58064A042C9
:100BA4000CBF0424072404FA0EF43C43B460946894
:100BB4006FEA0C06EF0254BF34404CEA040494601C
:100BC400D468AF0254BF34404CEA0404D46054687F
:100BD400AF0354BF34404CEA040454601468ED037A
:100BE40054BF34404CEA040414600133102B7FF4E6
:100BF4004FAF03B0BDE8F08F5446D4E70124D2E7E9
:100C04000224D0E70324CEE7003C01400000024068
:100C1400003802402DE9F341044640B30368DD0780
:100C240010D4236898075BD423681A0700F19D80C9
:100C340023685B0700F1BD80A069002840F024818F
:100C440000202CE08D4B9A6802F00C02042A07D095
:100C54009A6802F00C02082A0BD15B68590208D585
:100C6400864B1B689A03DCD56368002BD9D101201D
:100C740015E06368814DB3F5803F13D12B6843F4CD
:100C840080332B60FFF7A0FE7C4E054633689B0340
:100C9400C7D4FFF799FE401B6428F7D9032002B09C
:100CA400BDE8F081B3F5A02F04D12B6843F4802371
:100CB4002B60E3E72A6822F480322A602A6822F44F
:100CC40080222A60002BDDD1FFF77EFE06462B68CA
:100CD4009F03A6D5FFF778FE801B6428F7D9DDE7CC
:100CE400664B9A6812F00C0F07D09A6802F00C0257
:100CF400082A11D15B685E020ED4604A13689D070E
:100D040002D5E368012BB2D11368216923F0F803FB
:100D140043EAC103136087E7E268594BB2B1012289
:100D24001A60FFF751FE554D06462B68980707D504
:100D34002B68226923F0F80343EAC2032B6073E7AC
:100D4400FFF742FE801B0228EFD9A7E71A60FFF7DE
:100D54003BFE4A4E0546336899077FF565AFFFF7BA
:100D640033FE401B0228F6D998E76269444B82B1EE
:100D74000122C3F8802EFFF727FE404E0546736F0D
:100D84009F073FF555AFFFF71FFE401B0228F6D91A
:100D940084E7C3F8802EFFF717FE384E0546736FBD
:100DA40098077FF545AFFFF70FFE401B0228F6D9E1
:100DB40074E7324B1A6C12F0805228D101921A6CEB
:100DC40042F080521A641B6C03F080530193019B20
:100DD40001272C4D2B68D9051BD5A368274D012B62
:100DE40027D12B6F43F001032B67FFF7EDFD234E53
:100DF400054641F28838336F9B0739D5002F3FF4FD
:100E04001BAF1E4A136C23F08053136414E70027AE
:100E1400DFE72B6843F480732B60FFF7D5FD0646AC
:100E24002B68DA05D9D4FFF7CFFD801B0228F7D948
:100E340034E7052B04D12B6F43F004032B67D0E771
:100E44002A6F22F001022A672A6F22F004022A671D
:100E5400002BCAD1FFF7B8FD41F2883806462B6F44
:100E64009807CBD5FFF7B0FD801B4045F7D915E7B0
:100E7400FFF7AAFD401B4045BDD90FE700380240EB
:100E84000000474200700040364DAB6803F00C038D
:100E9400082B3DD0344B002202281A662BD1FFF7D1
:100EA40093FD06462B6899011FD4D4E907321343F6
:100EB400626A43EA8213E26A43EA0263A26A52085C
:100EC400013A43EA02436B60274B264D01221A661E
:100ED400FFF77AFD04462B689A013FF5B1AEFFF7A0
:100EE40073FD001B0228F6D9D8E6FFF76DFD801BC1
:100EF4000228D7D9D2E6FFF767FD04462B689B0189
:100F04007FF59EAEFFF760FD001B0228F6D9C5E60B
:100F140001283FF4C4AE6B68E26903F48001914296
:100F24007FF4A5AE216A03F03F028A427FF49FAEAC
:100F3400616A47F6C0721A40B2EB811F7FF497AE24
:100F4400A26A520803F44031013AB1EB024F7FF434
:100F54008EAEE26A03F07063B3EB026F3FF470AEDF
:100F640085E600BF0038024000004742134908B537
:100F74008B6803F00C03042B1CD0082B1CD14A688B
:100F84004B68496813F4800314BF0D480D48C1F33E
:100F9400881118BF002302F03F02A1FB0001FFF7F4
:100FA40017F9064B5B68C3F3014301335B00B0FBE5
:100FB400F3F008BD0248FCE70248FAE700380240B3
:100FC40040787D010024F4002DE9F0410D460446EB
:100FD40010B90120BDE8F081434B1A6802F0070202
:100FE4008A4228D321688F072DD4C80740D43E4BAA
:100FF4001A6802F00702AA4265D8226851076BD426
:10100400130707D5394A2169936823F4604343EAF7
:10101400C1039360FFF7AAFF344B354A9B68C3F3BF
:101024000313D35CD840334B1860334B1868FFF775
:1010340081FC0020CEE7CAB21A701B6803F00703D4
:101044008B42C6D1CEE7294B11F0040F1EBF9A681C
:1010540042F4E0529A600E0742BF9A6842F460423A
:101064009A609A68A06822F0F00202439A60BCE792
:1010740062681E4B012A1CD11B6813F4003FA8D0E0
:101084001A4EB36823F003031343B360FFF79CFCC9
:1010940041F288380746B368626803F00C03B3EB87
:1010A400820FA4D0FFF790FCC01B4045F3D9032066
:1010B40090E7911E01291B6802D813F0007FDEE738
:1010C40013F0020FDBE7EAB21A701B6803F00703A0
:1010D400AB427FF47EAF90E70449E0688B6823F469
:1010E400E05303438B608BE7003C0240003802402E
:1010F400341700080000002008000020036A23F0D1
:1011040001030362036A70B5446882690D6822F0C2
:1011140073022A438D6823F002032B430A4DA8422D
:101124000BD1CD6823F008032B43D1E9055624F4F1
:101134004074354323F004032C43446082614A68BD
:101144004263036270BD00BF00000140036A23F4E0
:1011540080730362036A70B54468C2690D6822F043
:1011640073022A438D6823F4007343EA05230B4D6D
:10117400A8420DD1CD6823F4006343EA0523D1E9E5
:10118400055624F44054354323F4806344EA05149B
:101194004460C2614A68C263036270BD00000140DA
:1011A400036A23F480530362036A30B54468C26956
:1011B4000D6822F4E64242EA05228D6823F40053C6
:1011C40043EA0533064DA84202BF4D6924F4804426
:1011D40044EA85144460C2614A680264036230BD13
:1011E4000000014070470000244A036890420ED07A
:1011F400B0F1804F0BD0A2F57C42904207D002F5AB
:101204008062904203D002F58062904215D14A6810
:1012140023F070031343194A904219D0B0F1804F60
:1012240016D0A2F57C42904212D002F58062904220
:101234000ED002F5806290420AD0114A904207D043
:1012440002F58062904203D002F58062904203D19D
:10125400CA6823F4407313434A6923F08003134399
:1012640003608B68C3620B688362044B984204BFBB
:101274000B69036301234361704700BF0000014011
:101284000040014010B5044630B390F83D3003F0FF
:10129400FF021BB980F83C20FFF78EFA0223206876
:1012A40084F83D30211DFFF79FFF012384F8463069
:1012B400002084F83E3084F83F3084F8403084F8CD
:1012C400413084F8423084F8433084F8443084F860
:1012D400453084F83D3010BD0120FCE710B50446CC
:1012E40030B390F83D3003F0FF021BB980F83C2086
:1012F400FFF778FF0223206884F83D30211DFFF7B3
:1013040073FF012384F84630002084F83E3084F8CB
:101314003F3084F8403084F8413084F8423084F817
:10132400433084F8443084F8453084F83D3010BDAF
:101334000120FCE7036A23F010030362036A70B51B
:10134400446882690D6822F4E64242EA05228D6807
:1013540023F0200343EA05130B4DA8420DD1CD68B9
:1013640023F0800343EA0513D1E9055624F44064CD
:10137400354323F0400344EA8504446082614A68AB
:101384008263036270BD00BF0000014070B590F835
:101394003C30012B054650D00123082A80F83C300C
:1013A4003BD007D8C2B1042A27D01846002385F8B9
:1013B4003C3070BD0C2AF8D10068FFF7F1FEC36918
:1013C4000A6943F40063C361C36923F48063C3619E
:1013D400C36943EA02232EE00068FFF78FFE8369A6
:1013E4000A6943F008038361836923F0040383617A
:1013F4008369134383610020D8E70068FFF79AFFED
:1014040083690A6943F400638361836923F4806315
:101414008361836943EA0223ECE70068FFF796FEE1
:10142400C3690A6943F00803C361C36923F0040371
:10143400C361C3691343C361DDE70220B9E710B593
:101444008468114324F47F4441EA032323438360E3
:1014540010BD38B590F83C30012B04464FF0020320
:1014640000F08E80012280F83D3080F83C20006836
:10147400836823F47F4323F0770383600B68602B36
:101484004FD032D8402B64D016D8202B0DD00AD898
:1014940033F0100109D0012384F83D30002384F88F
:1014A4003C30104638BD302BF5D1826822F07002F2
:1014B400134343F0070328E0502BECD14A68CD686E
:1014C400016A036A23F001030362836921F00A01BC
:1014D40023F0F00343EA05130A438361026283683D
:1014E40023F0700343F057030FE0B3F5805F0DD092
:1014F400B3F5005F0CD0702BCDD1CB68D1E90121BD
:10150400FFF79DFF836843F0770383600022C2E7FF
:10151400CB68D1E90121FFF792FF836843F480434C
:10152400F3E7036A4D68C96823F010030362826914
:10153400036A22F4704223F0A00343EA051342EA4B
:10154400013282610362836823F0700343F067030E
:10155400DBE74A68CD68016A036A23F0010303628A
:10156400836921F00A0123F0F00343EA05130A43D7
:1015740083610262836823F0700343F04703C4E786
:101584001A468EE7036A01F01F0110B501248C404E
:1015940023EA04030362036A8A401A43026210BD09
:1015A40008B529B990F83E30012B21D0012008BD9F
:1015B400042907D190F83F30012BF7D1022380F89A
:1015C4003F3018E0082907D190F84030012BEDD1C5
:1015D400022380F840300EE090F84130012BE5D131
:1015E4000429EBD00829F3D0022380F8413002E02B
:1015F400022380F83E3000680122FFF7C3FF124B3C
:1016040098420AD1436C43F400434364836803F073
:101614000703062B13D10020C9E7B0F1804FF5D0A2
:101624000A4B9842F2D003F580639842EED003F55A
:1016340080639842EAD003F59A339842E6D003686F
:1016440043F001030360E6E70000014000040040AA
:10165400FFF7A6BF30B590F83C30012B4FF00203E2
:101664002AD080F83D3003680D685C689A6824F0DD
:1016740070042C435C60114CA34212D0B3F1804F30
:101684000FD0A4F57C44A3420BD004F58064A3429C
:1016940007D004F58064A34203D004F59A34A3422E
:1016A40004D1496822F080020A439A60012380F839
:1016B4003D30002380F83C30184630BD0000014026
:1016C40002440346934200D1704703F8011BF9E733
:1016D40070B50D4D0D4C641BA4100026A64209D113
:1016E4000B4D0C4C00F018F8641BA4100026A64205
:1016F40005D170BD55F8043B98470136EEE755F81F
:10170400043B98470136F2E74C1700084C170008D1
:101714004C17000850170008F8B500BFF8BC08BC07
:101724009E467047F8B500BFF8BC08BC9E4670479B
:10173400000000000000000001020304060708097D
:08174400C0EAFF7F0100000074
:04174C00B9010008D7
:0417500095010008F7
:0C1754000024F400010000001000000060
:04000005080008E502
:00000001FF
