:020000040800F2
:1000000000000120150E0008690C00086F0C0008A4
:10001000750C00087B0C0008810C00080000000033
:10002000000000000000000000000000D12F0008C8
:10003000870C000800000000213200088932000807
:10004000650E0008650E0008650E0008650E0008C4
:10005000650E0008650E0008650E0008650E0008B4
:10006000650E0008650E0008650E0008650E0008A4
:10007000650E0008650E0008650E0008650E000894
:10008000650E0008650E0008650E000800000000FF
:10009000000000000000000000000000650E0008E5
:1000A000650E0008650E0008650E0008650E000864
:1000B000950C0008650E0008650E0008650E000826
:1000C000650E0008650E0008650E0008650E000844
:1000D000650E0008650E0008650E000800000000AF
:1000E000650E0008650E0008650E0008000000009F
:1000F000000000000000000000000000650E000885
:1001000000000000650E0008650E0008650E00087E
:1001100000000000000000000000000000000000DF
:10012000650E0008650E0008650E0008650E0008E3
:10013000650E000800000000000000000000000044
:10014000000000000000000000000000650E000834
:10015000650E0008650E0008650E0008650E0008B3
:10016000650E0008650E0008000000000000000099
:10017000000000000000000000000000000000007F
:1001800000000000650E00080000000000000000F4
:04019000650E0008F0
:1001A00010B5054C237833B9044B13B10448AFF3B1
:1001B00000800123237010BD6C00002000000000AF
:1001C000F045000808B5034B1BB103490348AFF3E2
:1001D000008008BD0000000070000020F04500080D
:1001E00001F0FF01102A2BDB10F0070F08D010F8E8
:1001F000013B013A8B422DD010F0070F42B3F6D1EC
:10020000F0B441EA012141EA014122F007047FF004
:1002100000070023F0E80256083C85EA010586EA5B
:10022000010685FA47F5A3FA87F586FA47F6A5FA97
:1002300087F68EB9EED1F0BC01F0FF0102F00702A3
:1002400032B110F8013B013A83EA010313B1F8D14E
:100250000020704701387047002D06BF354603382F
:10026000073815F0010F07D1013015F4807F02BF68
:10027000013015F4C03F0130F0BC0138704700BFB9
:1002800053B94AB9002908BF00281CBF4FF0FF31FD
:100290004FF0FF3000F070B9ADF1080C6DE904CEFD
:1002A00000F006F8DDF804E0DDE9022304B0704751
:1002B0002DE9F047089E0D4604460F46002B4AD113
:1002C0008A42944665D9B2FA82F343B102FA03FC3A
:1002D000C3F120029F4020FA02F217439C404FEAEC
:1002E0001C4E1FFA8CF5B7FBFEF1220C0EFB1177AA
:1002F00042EA074201FB05F090420AD91CEB0202D8
:1003000001F1FF3780F01C81904240F219810239DF
:100310006244121AA4B2B2FBFEF00EFB102244EAB1
:10032000024400FB05F5A5420AD91CEB040400F1C8
:10033000FF3280F00781A54240F204816444023814
:1003400040EA0140641B00211EB1DC400023C6E9E5
:100350000043BDE8F0878B4208D9002E00F0ED8005
:100360000021C6E900050846BDE8F087B3FA83F12D
:10037000002949D1AB4202D3824200F2F880841AAC
:1003800065EB030201201746002EE2D0C6E90047C4
:10039000DFE702B9FFDEB2FA82F3002B40F0908073
:1003A0008A1A4FEA1C471FFA8CFE0121B2FBF7F5AF
:1003B00007FB1520220C42EA00420EFB05F090429A
:1003C00008D91CEB020205F1FF3802D2904200F27C
:1003D000CB804546121AA4B2B2FBF7F007FB1022FD
:1003E00044EA02440EFB00FEA64508D91CEB0404B7
:1003F00000F1FF3202D2A64500F2BB801046A4EB0A
:100400000E0440EA05409FE7C1F120078B4022FA25
:1004100007FC4CEA030C05FA01F420FA07F3FD404F
:100420004FEA1C492343B5FBF9F81FFA8CFE09FB80
:1004300018551C0C44EA054408FB0EF5A54202FAC7
:1004400001F200FA01F00BD91CEB040408F1FF3AA9
:1004500080F08880A54240F28580A8F102086444BB
:10046000641B9DB2B4FBF9F309FB134445EA044451
:1004700003FB0EFEA64508D91CEB040403F1FF356F
:100480006CD2A6456AD9023B644443EA0843A3FB05
:100490000295A4EB0E04AC42C846AE4656D353D0E8
:1004A00056B1B0EB080264EB0E0404FA07F7CA4039
:1004B000CC401743C6E9007418460021BDE8F08718
:1004C000C3F1200102FA03FC20FA01F225FA01F13E
:1004D0009D402A434FEA1C471FFA8CFEB1FBF7F000
:1004E00007FB1015110C41EA054100FB0EF58D428A
:1004F00004FA03F408D91CEB010100F1FF382FD2F4
:100500008D422DD902386144491B92B2B1FBF7F5F7
:1005100007FB151142EA014205FB0EF1914208D991
:100520001CEB020205F1FF3816D2914214D9023DAC
:100530006244521A45EA004138E73146304608E73E
:100540003946E6E61046FBE64845A9D2B9EB020873
:1005500065EB0C0E013BA3E74546EAE72B4694E723
:100560004046D1E7D0467BE7023D624432E7084689
:100570000AE76444023842E7704700BF80B485B0A0
:1005800000AFF860B9607A60FB68074A1A60BB6820
:10059000064A1A607B6880221A6000BF1437BD4685
:1005A0005DF8047B704700BFB000002050010020C0
:1005B000B0B5C6B000AF624B07F1FC041D460FCDCD
:1005C0000FC495E8070084E8070007F1FC03002149
:1005D000184601F03AFE03465A4A13605A4B07F197
:1005E000E0041D460FCD0FC495E8070084E807001E
:1005F00007F1E0030021184601F027FE0346534AA5
:100600001360534B07F1C4041D460FCD0FC495E88A
:10061000070084E8070007F1C4030021184601F031
:1006200014FE03464B4A13604B4B07F1A8041D46CA
:100630000FCD0FC495E8070084E8070007F1A80371
:100640000021184601F001FE0346444A1360444B62
:1006500007F18C041D460FCD0FC495E8070084E810
:10066000070007F18C030021184601F0EEFD034658
:100670003C4A13603C4B07F170041D460FCD0FC47C
:1006800095E8070084E8070007F170030021184689
:1006900001F0DBFD0346354A1360354B07F1540486
:1006A0001D460FCD0FC495E8070084E8070007F149
:1006B00054030021184601F0C8FD03462D4A13607B
:1006C0002D4B07F138041D460FCD0FC495E80700E8
:1006D00084E8070007F138030021184601F0B5FD52
:1006E0000346264A1360264B07F11C041D460FCD16
:1006F0000FC495E8070084E8070007F11C030021F8
:10070000184601F0A2FD03461E4A136007F58C73DC
:10071000A3F58C731C4A1C4615460FCD0FC495E8F3
:10072000070084E807003B460021184601F08DFDD4
:100730000346164A136000BF07F58C77BD46B0BD6F
:1007400014460008880000203C4600088C00002069
:1007500064460008900000208C46000894000020A9
:10076000B446000898000020DC4600089C000020E9
:1007700004470008A00000202C470008A400002027
:1007800054470008A80000207C470008AC00002067
:1007900080B582B000AF7860012001F0A2FDFBE7D8
:1007A00080B584B000AF78600023FB60FB68013344
:1007B000FB60F968054803F051F80121044800F096
:1007C00014FE4FF4FA7001F08CFDEFE79847000833
:1007D0000000024080B584B000AF78600023FB6069
:1007E000FB680133FB60F968054803F037F8022124
:1007F000044800F0FAFD4FF47A7001F072FDEFE763
:10080000984700080000024080B584B000AF7860CF
:100810000023FB60FB680133FB60F968054803F0C7
:100820001DF80421044800F0E0FD40F2DC5001F026
:1008300058FDEFE7984700080000024080B584B0FB
:1008400000AF78600023FB60FB680133FB60F96850
:10085000054803F003F80821044800F0C6FD4FF4F2
:10086000FA6001F03EFDEFE7984700080000024003
:1008700080B584B000AF78600023FB60FB68013373
:10088000FB60F968054802F0E9FF1021044800F018
:10089000ACFD40F6C41001F024FDEFE798470008D6
:1008A0000000024080B584B000AF78600023FB6098
:1008B000FB680133FB60F968054802F0CFFF202197
:1008C000044800F092FD40F6B83001F00AFDEFE771
:1008D000984700080000024080B584B000AF7860FF
:1008E0000023FB60FB680133FB60F968054802F0F8
:1008F000B5FF4021044800F078FD40F6AC5001F00F
:10090000F0FCEFE7984700080000024080B584B093
:1009100000AF78600023FB60FB680133FB60F9687F
:10092000054802F09BFF8021044800F05EFD4FF473
:100930007A6001F0D6FCEFE798470008000002401B
:1009400080B584B000AF78600023FB60FB680133A2
:10095000FB60F968064802F081FF4FF4807105489A
:1009600000F043FD41F2941001F0BBFCEEE700BF44
:10097000984700080000024080B588B000AF07F13A
:100980000C0300221A605A609A60DA601A61002330
:10099000BB601F4B1B6B1E4A43F0800313631C4B51
:1009A0001B6B03F08003BB60BB6800237B60184BAC
:1009B0001B6B174A43F001031363154B1B6B03F0CA
:1009C00001037B607B6800233B60114B1B6B104A6B
:1009D00043F0020313630E4B1B6B03F002033B60F7
:1009E0003B680022FF210B4800F0E6FCFF23FB6080
:1009F00001233B6100237B610023BB6107F10C03F2
:100A00001946044800F054FB00BF2037BD4680BDA6
:100A1000003802400000024080B500AF00F024FA28
:100A200000F008F8FFF7A8FFFFF7C2FD01F006FC91
:100A3000FEE7000080B594B000AF07F1200330223C
:100A40000021184602F05FFF07F10C0300221A6034
:100A50005A609A60DA601A610023BB60224B1B6CFB
:100A6000214A43F0805313641F4B1B6C03F08053E7
:100A7000BB60BB6800237B601C4B1B6823F44043B6
:100A80001A4A43F400431360184B1B6803F44043B5
:100A90007B607B6801233B624FF480337B620023E1
:100AA000BB6307F12003184600F0BAFC0346002B95
:100AB00001D000F02CF80F23FB6001233B610023E1
:100AC0007B610023BB610023FB6107F10C03002164
:100AD000184600F01DFF0346002B01D000F017F868
:100AE00000BF5037BD4680BD003802400070004056
:100AF00080B582B000AF78607B681B68B3F1804F2F
:100B000001D100F0D3F900BF0837BD4680BD80B4E5
:100B100000AF72B600BFFEE780B582B000AF002321
:100B20007B60124B5B6C114A43F4804353640F4B60
:100B30005B6C03F480437B607B6800233B600B4B62
:100B40001B6C0A4A43F080531364084B1B6C03F080
:100B500080533B603B6800220F216FF0010000F0E2
:100B60007DFA00BF0837BD4680BD00BF0038024097
:100B700080B58EB000AF78600023FB620023BB62BB
:100B80000023FB60344B1B6C334A43F001031364B6
:100B9000314B1B6C03F00103FB60FB6807F1100293
:100BA00007F114031146184601F07EF83B6AFB6218
:100BB000FB6A002B03D101F063F8786304E001F0D5
:100BC0005FF803465B007B637B6B244AA2FB032335
:100BD0009B0C013BBB62224B4FF080421A60204BC2
:100BE00040F2E732DA601E4ABB6A53601C4B0022B7
:100BF0001A611B4B00229A60194B00229A61184817
:100C000001F084F8034687F8333097F83330002B2F
:100C10001BD1134801F0D4F8034687F8333097F816
:100C20003330002B11D11C2000F034FA7B680F2BDD
:100C300008D8002279681C2000F010FA094A7B6865
:100C4000136002E0012387F8333097F833301846F9
:100C50003837BD4680BD00BF0038024083DE1B43ED
:100C6000500300200400002080B400AFFEE780B4F1
:100C700000AFFEE780B400AFFEE780B400AFFEE750
:100C800080B400AFFEE780B400AF00BFBD465DF8A2
:100C9000047B704780B500AF024801F0F3F800BF55
:100CA00080BD00BF5003002080B586B000AFF86063
:100CB000B9607A6000237B610AE0AFF300800146EF
:100CC000BB685A1CBA60CAB21A707B6901337B6177
:100CD0007A697B689A42F0DB7B6818461837BD4614
:100CE00080BD80B586B000AFF860B9607A6000233F
:100CF0007B6109E0BB685A1CBA601B781846AFF3E9
:100D000000807B6901337B617A697B689A42F1DB01
:100D10007B6818461837BD4680BD80B483B000AFED
:100D200078604FF0FF3318460C37BD465DF8047B02
:100D3000704780B483B000AF786039603B684FF48F
:100D400000525A60002318460C37BD465DF8047BFC
:100D5000704780B483B000AF7860012318460C3729
:100D6000BD465DF8047B704780B485B000AFF86085
:100D7000B9607A60002318461437BD465DF8047BDD
:100D80007047000080B586B000AF7860144A154BFC
:100D9000D31A7B617B693B61134B1B68002B02D12B
:100DA000114B124A1A60104B1A687B6813443A6957
:100DB0009A4207D202F04CFE03460C221A604FF012
:100DC000FF3309E0084B1B68FB60074B1A687B6820
:100DD0001344054A1360FB6818461837BD4680BDAA
:100DE0000000012000040000980300204042002081
:100DF00080B400AF064BD3F88830054A43F4700343
:100E0000C2F8883000BFBD465DF8047B704700BF64
:100E100000ED00E0DFF834D00D480E490E4A002303
:100E200002E0D458C4500433C4188C42F9D30B4A9E
:100E30000B4C002301E013600432A242FBD3FFF706
:100E4000D7FF02F00BFEFFF7E7FD7047000001201F
:100E5000000000206C0000201C4800086C000020EE
:100E600040420020FEE7000080B500AF0E4B1B683B
:100E70000D4A43F4007313600B4B1B680A4A43F49A
:100E800080631360084B1B68074A43F48073136048
:100E9000032000F0D8F80F20FFF76AFEFFF73CFEB2
:100EA0000023184680BD00BF003C024080B400AF64
:100EB000064B1B781A46064B1B681344044A136002
:100EC00000BFBD465DF8047B704700BF08000020EE
:100ED0009C03002080B400AF034B1B681846BD463E
:100EE0005DF8047B704700BF9C03002080B485B090
:100EF00000AF78607B6803F00703FB600C4BDB6896
:100F0000BB60BA684FF6FF031340BB60FB681A0270
:100F1000BB68134343F0BF6343F40033BB60044A30
:100F2000BB68D36000BF1437BD465DF8047B7047D3
:100F300000ED00E080B400AF044BDB681B0A03F057
:100F400007031846BD465DF8047B704700ED00E0DE
:100F500080B483B000AF0346FB7197F90730002BD4
:100F60000BDBFB7903F01F02074997F907305B0998
:100F7000012000FA02F241F8232000BF0C37BD46E1
:100F80005DF8047B704700BF00E100E080B483B0EF
:100F900000AF03463960FB7197F90730002B0ADB7D
:100FA0003B68DAB20C4997F907301201D2B20B4410
:100FB00083F800230AE03B68DAB20849FB7903F0C2
:100FC0000F03043B1201D2B20B441A7600BF0C3758
:100FD000BD465DF8047B704700E100E000ED00E0F5
:100FE00080B489B000AFF860B9607A60FB6803F044
:100FF0000703FB61FB69C3F10703042B28BF04232C
:10100000BB61FB690433062B02D9FB69033B00E09B
:1010100000237B614FF0FF32BB6902FA03F3DA432E
:10102000BB681A407B699A404FF0FF317B6901FA37
:1010300003F3D9437B680B40134318462437BD465E
:101040005DF8047B704780B582B000AF7860786847
:10105000FFF74CFF00BF0837BD4680BD80B586B0A6
:1010600000AF0346B9607A60FB7300237B61FFF732
:1010700061FF78617A68B9687869FFF7B1FF024665
:1010800097F90F3011461846FFF780FF00BF183759
:10109000BD4680BD80B582B000AF0346FB7197F9B5
:1010A00007301846FFF754FF00BF0837BD4680BD24
:1010B00080B489B000AF7860396000237B61002381
:1010C0003B610023BB610023FB6159E10122FB6905
:1010D00002FA03F37B613B681B687A6913403B614A
:1010E0003A697B699A4240F048813B685B6803F04B
:1010F0000303012B05D03B685B6803F00303022B5D
:1011000030D17B689B68BB61FB695B00032202FAFC
:1011100003F3DB43BA691340BB613B68DA68FB69E0
:101120005B0002FA03F3BA691343BB617B68BA69D7
:101130009A607B685B68BB610122FB6902FA03F37A
:10114000DB43BA691340BB613B685B681B0903F072
:101150000102FB6902FA03F3BA691343BB617B68BE
:10116000BA695A603B685B6803F00303032B17D02E
:101170007B68DB68BB61FB695B00032202FA03F357
:10118000DB43BA691340BB613B689A68FB695B004B
:1011900002FA03F3BA691343BB617B68BA69DA6088
:1011A0003B685B6803F00303022B23D1FB69DA0879
:1011B0007B68083253F82230BB61FB6903F00703F8
:1011C0009B000F2202FA03F3DB43BA691340BB61B1
:1011D0003B681A69FB6903F007039B0002FA03F3FB
:1011E000BA691343BB61FB69DA087B680832B969E5
:1011F00043F822107B681B68BB61FB695B0003221C
:1012000002FA03F3DB43BA691340BB613B685B68D6
:1012100003F00302FB695B0002FA03F3BA691343AC
:10122000BB617B68BA691A603B685B6803F4403352
:10123000002B00F0A2800023FB60574B5B6C564AEA
:1012400043F480435364544B5B6C03F48043FB6072
:10125000FB68524AFB699B08023352F82330BB619A
:10126000FB6903F003039B000F2202FA03F3DB4345
:10127000BA691340BB617B68494A934219D07B68C5
:10128000484A934213D07B68474A93420DD07B680B
:10129000464A934207D07B68454A934201D10423D2
:1012A00008E0072306E0032304E0022302E0012311
:1012B00000E00023FA6902F0030292009340BA6949
:1012C0001343BB613549FB699B080233BA6941F896
:1012D0002320384B9B68BB613B69DB43BA691340F1
:1012E000BB613B685B6803F48013002B03D0BA69D1
:1012F0003B691343BB612F4ABB6993602D4BDB688D
:10130000BB613B69DB43BA691340BB613B685B6807
:1013100003F40013002B03D0BA693B691343BB618C
:10132000244ABB69D360234B5B68BB613B69DB43E9
:10133000BA691340BB613B685B6803F40033002B60
:1013400003D0BA693B691343BB611A4ABB69536056
:10135000184B1B68BB613B69DB43BA691340BB6137
:101360003B685B6803F48033002B03D0BA693B69A8
:101370001343BB610F4ABB691360FB690133FB6117
:10138000FB690F2B7FF6A2AE00BF00BF2437BD461E
:101390005DF8047B704700BF003802400038014010
:1013A000000002400004024000080240000C02401D
:1013B00000100240003C014080B483B000AF786070
:1013C0000B467B8013467B707B78002B03D07A889A
:1013D0007B689A6103E07B881A047B689A6100BF8E
:1013E0000C37BD465DF8047B704780B485B000AF14
:1013F00078600B467B807B685B69FB607A88FB6862
:1014000013401A04FB68D9437B880B401A437B685E
:101410009A6100BF1437BD465DF8047B7047000039
:1014200080B586B000AF78607B68002B01D10123C6
:1014300067E27B681B6803F00103002B75D0884BC3
:101440009B6803F00C03042B0CD0854B9B6803F0C6
:101450000C03082B12D1824B5B6803F48003B3F5B5
:10146000800F0BD17E4B1B6803F40033002B5BD045
:101470007B685B68002B57D1012342E27B685B6885
:10148000B3F5803F06D1764B1B68754A43F4803331
:1014900013601DE07B685B68B3F5A02F0CD1704B27
:1014A0001B686F4A43F4802313606D4B1B686C4AC2
:1014B00043F4803313600BE0694B1B68684A23F4E4
:1014C00080331360664B1B68654A23F480231360E6
:1014D0007B685B68002B13D0FFF7FCFC386108E0E9
:1014E000FFF7F8FC02463B69D31A642B01D90323AA
:1014F00007E25B4B1B6803F40033002BF0D014E0D1
:10150000FFF7E8FC386108E0FFF7E4FC02463B69BE
:10151000D31A642B01D90323F3E1514B1B6803F465
:101520000033002BF0D100E000BF7B681B6803F0A4
:101530000203002B63D04A4B9B6803F00C03002B83
:101540000BD0474B9B6803F00C03082B1CD1444B7A
:101550005B6803F48003002B16D1414B1B6803F03A
:101560000203002B05D07B68DB68012B01D001232F
:10157000C7E13B4B1B6823F0F8027B681B69DB006B
:10158000374913430B603AE07B68DB68002B20D0BF
:10159000344B01221A60FFF79DFC386108E0FFF729
:1015A00099FC02463B69D31A022B01D90323A8E117
:1015B0002B4B1B6803F00203002BF0D0284B1B6859
:1015C00023F0F8027B681B69DB00254913430B609D
:1015D00015E0244B00221A60FFF77CFC386108E01C
:1015E000FFF778FC02463B69D31A022B01D903238B
:1015F00087E11B4B1B6803F00203002BF0D17B68D3
:101600001B6803F00803002B36D07B685B69002B56
:1016100016D0154B01221A60FFF75CFC386108E018
:10162000FFF758FC02463B69D31A022B01D903236A
:1016300067E10B4B5B6F03F00203002BF0D01BE064
:10164000094B00221A60FFF745FC38610EE0FFF7F6
:1016500041FC02463B69D31A022B07D9032350E110
:101660000038024000004742800E4742884B5B6FC3
:1016700003F00203002BEAD17B681B6803F004032C
:10168000002B00F097800023FB75814B1B6C03F04F
:101690008053002B0FD10023BB607D4B1B6C7C4A19
:1016A00043F0805313647A4B1B6C03F08053BB6090
:1016B000BB680123FB75774B1B6803F48073002B19
:1016C00018D1744B1B68734A43F480731360FFF79F
:1016D00001FC386108E0FFF7FDFB02463B69D31AC5
:1016E000022B01D903230CE16A4B1B6803F48073BE
:1016F000002BF0D07B689B68012B06D1644B1B6FDD
:10170000634A43F0010313671CE07B689B68052B69
:101710000CD15F4B1B6F5E4A43F0040313675C4BB5
:101720001B6F5B4A43F0010313670BE0584B1B6FC1
:10173000574A23F001031367554B1B6F544A23F09C
:10174000040313677B689B68002B15D0FFF7C2FB6F
:1017500038610AE0FFF7BEFB02463B69D31A41F24B
:101760008832934201D90323CBE0494B1B6F03F02E
:101770000203002BEED014E0FFF7ACFB38610AE067
:10178000FFF7A8FB02463B69D31A41F28832934225
:1017900001D90323B5E03E4B1B6F03F00203002B7E
:1017A000EED1FB7D012B05D1394B1B6C384A23F060
:1017B000805313647B689B69002B00F0A180344B3D
:1017C0009B6803F00C03082B5CD07B689B69022BA1
:1017D00041D1314B00221A60FFF77CFB386108E0F1
:1017E000FFF778FB02463B69D31A022B01D903238A
:1017F00087E0274B1B6803F00073002BF0D17B6858
:10180000DA697B681B6A1A437B685B6A9B011A432F
:101810007B689B6A5B08013B1B041A437B68DB6A9D
:101820001B061B4913434B601B4B01221A60FFF739
:1018300051FB386108E0FFF74DFB02463B69D31AC4
:10184000022B01D903235CE0114B1B6803F00073EA
:10185000002BF0D054E0104B00221A60FFF73AFB47
:10186000386108E0FFF736FB02463B69D31A022BCA
:1018700001D9032345E0064B1B6803F00073002BDE
:10188000F0D13DE07B689B69012B07D1012338E053
:101890000038024000700040600047421B4B5B680C
:1018A000FB607B689B69012B28D0FB6803F48002F6
:1018B0007B68DB699A4221D1FB6803F03F027B68B9
:1018C0001B6A9A421AD1FA6847F6C07313407A68C5
:1018D000526A9201934211D1FB6803F440327B6853
:1018E0009B6A5B08013B1B049A4207D1FB6803F02B
:1018F00070627B68DB6A1B069A4201D0012300E01C
:10190000002318461837BD4680BD00BF003802408E
:1019100080B584B000AF786039607B68002B01D15E
:101920000123CCE0684B1B6803F007033A689A4236
:101930000CD9654B3A68D2B21A70634B1B6803F03E
:1019400007033A689A4201D00123B8E07B681B681C
:1019500003F00203002B20D07B681B6803F0040314
:10196000002B05D0594B9B68584A43F4E0539360D1
:101970007B681B6803F00803002B05D0534B9B6862
:10198000524A43F460439360504B9B6823F0F0024B
:101990007B689B684D4913438B607B681B6803F031
:1019A0000103002B44D07B685B68012B07D1474BB8
:1019B0001B6803F40033002B19D101237FE07B68FF
:1019C0005B68022B03D07B685B68032B07D13F4B1E
:1019D0001B6803F00073002B09D101236FE03B4B20
:1019E0001B6803F00203002B01D1012367E0374B92
:1019F0009B6823F003027B685B68344913438B6068
:101A0000FFF768FAF8600AE0FFF764FA0246FB683D
:101A1000D31A41F28832934201D903234FE02B4B72
:101A20009B6803F00C027B685B689B009A42EBD1D9
:101A3000254B1B6803F007033A689A420CD2224BED
:101A40003A68D2B21A70204B1B6803F007033A6859
:101A50009A4201D0012332E07B681B6803F0040343
:101A6000002B08D0194B9B6823F4E0527B68DB689D
:101A7000164913438B607B681B6803F00803002B37
:101A800009D0124B9B6823F460427B681B69DB0022
:101A90000E4913438B6000F021F802460B4B9B6804
:101AA0001B0903F00F030A49CB5C22FA03F3094A2E
:101AB0001360094B1B681846FFF75AF800231846B5
:101AC0001037BD4680BD00BF003C024000380240D8
:101AD000C047000800000020040000202DE9B04F9E
:101AE00090B000AF00237B630023FB6300233B63C4
:101AF0000023BB63594B9B6803F00C03082B0DD0EC
:101B0000082B00F2A180002B02D0042B03D09BE015
:101B1000534BBB639BE0534BBB6398E04F4B5B68FD
:101B200003F03F037B634D4B5B6803F48003002BA2
:101B300028D04A4B5B689B0900223B627A623B6A71
:101B4000C3F308000021474B03FB01F2002300FB15
:101B500003F31344434AA0FB0212FA620A46BA6234
:101B6000FA6A1344FB627B6B0022BB61FA61D7E91E
:101B70000623D7E90A01FEF783FB02460B4613460C
:101B8000FB6353E0354B5B689B0900223B617A6144
:101B90003B69C3F3080A4FF0000B52465B464FF017
:101BA00000004FF00001590141EAD26150010246A4
:101BB0000B46B2EB0A0863EB0B094FF000024FF043
:101BC00000034FEA891343EA98634FEA8812B2EBA5
:101BD000080463EB09054FF000024FF00003EB002F
:101BE00043EA5473E20014461D4614EB0A033B60BB
:101BF00045EB0B037B604FF000024FF00003D7E989
:101C0000004529468B02214643EA915321468A0228
:101C1000104619467B6B0022BB60FA60D7E90223AD
:101C2000FEF72EFB02460B461346FB630B4B5B682D
:101C30001B0C03F0030301335B003B63FA6B3B6B4C
:101C4000B2FBF3F3BB6302E0054BBB6300BFBB6BAE
:101C500018464037BD46BDE8B08F00BF003802408F
:101C60000024F40040787D0180B400AF034B1B6872
:101C70001846BD465DF8047B704700BF0000002099
:101C800080B500AFFFF7F0FF0246054B9B689B0A4B
:101C900003F007030349CB5C22FA03F3184680BD27
:101CA00000380240D047000880B483B000AF7860AD
:101CB00039607B680F221A60124B9B6803F00302A5
:101CC0007B685A600F4B9B6803F0F0027B689A6058
:101CD0000C4B9B6803F4E0527B68DA60094B9B680D
:101CE000DB0803F4E0527B681A61074B1B6803F0C2
:101CF00007023B681A6000BF0C37BD465DF8047BE5
:101D0000704700BF00380240003C024080B582B0FE
:101D100000AF78607B68002B01D1012341E07B6834
:101D200093F83D30DBB2002B06D17B68002283F8AC
:101D30003C20786800F039F87B68022283F83D2067
:101D40007B681A687B6804331946104600F0CAF9AC
:101D50007B68012283F846207B68012283F83E20BD
:101D60007B68012283F83F207B68012283F84020B2
:101D70007B68012283F841207B68012283F842209E
:101D80007B68012283F843207B68012283F844208A
:101D90007B68012283F845207B68012283F83D207F
:101DA000002318460837BD4680BD80B483B000AF1D
:101DB000786000BF0C37BD465DF8047B70470000BB
:101DC00080B485B000AF78607B6893F83D30DBB2BB
:101DD000012B01D0012344E07B68022283F83D20DF
:101DE0007B681B68DA687B681B6842F00102DA6076
:101DF0007B681B681E4A934218D07B681B68B3F14E
:101E0000804F13D07B681B681A4A93420ED07B68C0
:101E10001B68194A934209D07B681B68174A934292
:101E200004D07B681B68164A934211D17B681B68FB
:101E30009B6803F00703FB60FB68062B10D07B68F0
:101E40001B681A687B681B6842F001021A6007E091
:101E50007B681B681A687B681B6842F001021A6085
:101E6000002318461437BD465DF8047B704700BF59
:101E7000000001400004004000080040000C004049
:101E80000040014080B582B000AF78607B681B687D
:101E90001B6903F00203022B22D17B681B68DB68FD
:101EA00003F00203022B1BD17B681B686FF0020258
:101EB0001A617B6801221A777B681B689B6903F0B3
:101EC0000303002B03D0786800F0EEF805E0786893
:101ED00000F0E0F8786800F0F1F87B6800221A77EB
:101EE0007B681B681B6903F00403042B22D17B6809
:101EF0001B68DB6803F00403042B1BD17B681B68A1
:101F00006FF004021A617B6802221A777B681B68F3
:101F10009B6903F44073002B03D0786800F0C4F889
:101F200005E0786800F0B6F8786800F0C7F87B68DC
:101F300000221A777B681B681B6903F00803082BD3
:101F400022D17B681B68DB6803F00803082B1BD1D8
:101F50007B681B686FF008021A617B6804221A779D
:101F60007B681B68DB6903F00303002B03D07868F0
:101F700000F09AF805E0786800F08CF8786800F0D6
:101F80009DF87B6800221A777B681B681B6903F049
:101F90001003102B22D17B681B68DB6803F0100351
:101FA000102B1BD17B681B686FF010021A617B68D5
:101FB00008221A777B681B68DB6903F44073002BE7
:101FC00003D0786800F070F805E0786800F062F8F7
:101FD000786800F073F87B6800221A777B681B68CA
:101FE0001B6903F00103012B0ED17B681B68DB68C2
:101FF00003F00103012B07D17B681B686FF001021E
:102000001A617868FEF774FD7B681B681B6903F032
:102010008003802B0ED17B681B68DB6803F0800394
:10202000802B07D17B681B686FF080021A6178688B
:1020300000F0E2F87B681B681B6903F04003402B4B
:102040000ED17B681B68DB6803F04003402B07D18F
:102050007B681B686FF040021A61786800F038F8FE
:102060007B681B681B6903F02003202B0ED17B6863
:102070001B68DB6803F02003202B07D17B681B68FB
:102080006FF020021A61786800F0ACF800BF0837E2
:10209000BD4680BD80B483B000AF786000BF0C3710
:1020A000BD465DF8047B704780B483B000AF7860B4
:1020B00000BF0C37BD465DF8047B704780B483B029
:1020C00000AF786000BF0C37BD465DF8047B7047F9
:1020D00080B483B000AF786000BF0C37BD465DF8B8
:1020E000047B704780B485B000AF786039607B684E
:1020F0001B68FB607B68344A93420FD07B68B3F166
:10210000804F0BD07B68314A934207D07B68304ABE
:10211000934203D07B682F4A934208D1FB6823F097
:102120007003FB603B685B68FA681343FB607B6885
:10213000254A93421BD07B68B3F1804F17D07B6850
:10214000224A934213D07B68214A93420FD07B6886
:10215000204A93420BD07B681F4A934207D07B688A
:102160001E4A934203D07B681D4A934208D1FB6804
:1021700023F44073FB603B68DB68FA681343FB6041
:10218000FB6823F080023B685B691343FB607B685C
:10219000FA681A603B689A687B68DA623B681A687A
:1021A0007B689A627B68084A934203D13B681A694C
:1021B0007B681A637B6801225A6100BF1437BD46F1
:1021C0005DF8047B704700BF000001400004004040
:1021D00000080040000C0040004001400044014065
:1021E0000048014080B483B000AF786000BF0C3776
:1021F000BD465DF8047B704780B483B000AF786063
:1022000000BF0C37BD465DF8047B704780B485B0D5
:1022100000AF0346FB800023FB60B7F90630842B38
:1022200005D0B7F90620FB6813440333FB60FB6855
:1022300018461437BD465DF8047B704780B500AF83
:1022400000F0F6FA0023184680BDF0B589B004AF5F
:10225000786039607B685B69002B20D07B689B6964
:10226000002B1CD07B685C687B681D687B681E69DE
:102270007B68B3F908301846FFF7C8FF01467B6852
:102280005B697A6892690292019300913B683246D9
:102290002946204600F0EDF80346FB601CE07B6811
:1022A0005C687B681D687B681B699EB27B68B3F9BC
:1022B00008301846FFF7AAFF024607F10C03019306
:1022C00000923B6832462946204600F02FF903462B
:1022D000012B01D0002300E0FB6818461437BD46EF
:1022E000F0BD80B584B000AF78607B68FB60FB68B0
:1022F000002B01D0FB6800E00123184600F064FACF
:10230000002318461037BD4680BD80B483B000AFAF
:1023100078607B6803F108027B685A607B684FF045
:10232000FF329A607B6803F108027B68DA607B68A1
:1023300003F108027B681A617B6800221A6000BF03
:102340000C37BD465DF8047B704780B483B000AFA6
:1023500078607B6800221A6100BF0C37BD465DF8CB
:10236000047B704780B485B000AF786039607B68CB
:102370005B68FB603B68FA685A60FB689A683B6878
:102380009A60FB689B683A685A60FB683A689A6092
:102390003B687A681A617B681B685A1C7B681A6004
:1023A00000BF1437BD465DF8047B704780B485B02C
:1023B00000AF786039603B681B68BB60BB68B3F1F5
:1023C000FF3F03D17B681B69FB600CE07B6808332F
:1023D000FB6002E0FB685B68FB60FB685B681B6896
:1023E000BA689A42F6D2FB685A683B685A603B6802
:1023F0005B683A689A603B68FA689A60FB683A687A
:102400005A603B687A681A617B681B685A1C7B6853
:102410001A6000BF1437BD465DF8047B704780B476
:1024200085B000AF78607B681B69FB607B685B6888
:102430007A6892689A607B689B687A6852685A608A
:10244000FB685B687A689A4203D17B689A68FB688C
:102450005A607B6800221A61FB681B685A1EFB6881
:102460001A60FB681B6818461437BD465DF8047B8C
:10247000704780B58EB004AFF860B9607A603B6099
:102480007B6B002B0AD14FF0500383F31188BFF30D
:102490006F8FBFF34F8F3B6200BFFEE7BB6B002B1C
:1024A0000AD14FF0500383F31188BFF36F8FBFF34E
:1024B0004F8FFB6100BFFEE7A0233B613B69A02B70
:1024C0000AD04FF0500383F31188BFF36F8FBFF32F
:1024D0004F8FBB6100BFFEE73B69BB6B002B1ED07B
:1024E0007B6B002B1BD0BB6B7B627B6A7A6B1A63A6
:1024F0007B6A022283F89D20002303937B6A029368
:1025000007F1140301933B6B00933B687A68B96849
:10251000F86800F051F8786A00F0ECF801E0002368
:102520007B617B6918462837BD4680BD80B58CB07D
:1025300004AFF860B9603B601346FB80FB889B00EA
:10254000184600F0F1FE78617B69002B0ED0A020C8
:1025500000F0EAFEF861FB69002B03D0FB697A69A1
:102560001A6305E0786900F0ABFF01E00023FB612E
:10257000FB69002B17D0FB69002283F89D20FA88A5
:1025800000230393FB690293FB6A0193BB6A0093E8
:102590003B68B968F86800F00FF8F86900F0AAF82D
:1025A0000123BB6102E04FF0FF33BB61BB691846FA
:1025B0002037BD4680BD000080B588B000AFF86010
:1025C000B9607A603B603B6B1A6B7B6803F18043B8
:1025D000013B9B001344BB61BB6923F00703BB6154
:1025E000BB6903F00703002B0AD04FF0500383F3BD
:1025F0001188BFF36F8FBFF34F8F7B6100BFFEE782
:10260000BB68002B1FD00023FB6112E0BA68FB6996
:10261000134419783A6BFB69134434330A461A7031
:10262000BA68FB6913441B78002B06D0FB690133A1
:10263000FB61FB690F2BE9D900E000BF3B6B002277
:1026400083F8432003E03B6B002283F83420BB6A0D
:10265000062B01D90623BB623B6BBA6ADA623B6B7D
:10266000BA6A5A643B6B00229A643B6B0433184687
:10267000FFF76BFE3B6B18331846FFF766FE3B6BAC
:102680003A6B1A61BB6AC3F107023B6B9A613B6B01
:102690003A6B5A623B6B0022C3F898203B6B0022D6
:1026A00083F89C203B6B4C334C220021184601F0F0
:1026B0002AF93B6B0C4A1A653B6B0C4A5A653B6B1B
:1026C0000B4A9A653A68F968B86900F01FFC02463F
:1026D0003B6B1A60FB6A002B02D0FB6A3A6B1A60F4
:1026E00000BF2037BD4680BDF44000205C41002083
:1026F000C441002080B582B000AF786000F032FDA8
:102700002A4B1B680133294A1360294B1B68002B95
:1027100009D1274A7B681360244B1B68012B10D119
:1027200000F0CCFA0DE0234B1B68002B09D1204BA5
:102730001B68DA6A7B68DB6A9A4202D81C4A7B68AB
:1027400013601D4B1B6801331B4A13607B68DB6AF7
:1027500001229A40194B1B681343184A13607B6887
:10276000DA6A13469B0013449B00154A1A447B689F
:10277000043319461046FFF7F5FD00F023FD0D4B1D
:102780001B68002B0ED00A4B1B68DA6A7B68DB6A79
:102790009A4207D20B4B4FF080521A60BFF34F8F13
:1027A000BFF36F8F00BF0837BD4680BDA004002077
:1027B000A0030020AC040020BC040020A8040020DA
:1027C000A403002004ED00E080B584B000AF786081
:1027D0000023FB607B68002B17D0134B1B68002B7A
:1027E0000AD04FF0500383F31188BFF36F8FBFF30C
:1027F0004F8FBB6000BFFEE700F084F800217868CF
:1028000000F01EFB00F08CF8F860FB68002B07D18D
:10281000064B4FF080521A60BFF34F8FBFF36F8F9C
:1028200000BF1037BD4680BDC804002004ED00E0A5
:1028300080B58AB004AF0023BB6000237B603A46BA
:10284000391D07F108031846FDF798FE39687B68C3
:10285000BA68029201930023009300230A4621499B
:102860002148FFF706FE0346204A13601F4B1B68F2
:10287000002B02D001237B6101E000237B617B6997
:10288000012B1BD14FF0500383F31188BFF36F8FDF
:10289000BFF34F8F3B6100BF154B1B684C33154A8C
:1028A0001360154B4FF0FF321A60144B01221A606F
:1028B000134B00221A6000F0B3FB0EE07B69B3F10A
:1028C000FF3F0AD14FF0500383F31188BFF36F8F9E
:1028D000BFF34F8FFB6000BFFEE700BF1837BD4658
:1028E00080BD00BFB84700088D2C0008C40400203C
:1028F000A003002068000020C0040020AC040020D9
:10290000A404002080B400AF044B1B680133034AC9
:10291000136000BFBD465DF8047B7047C80400200B
:1029200080B584B000AF0023FB600023BB60414B47
:102930001B68002B0AD14FF0500383F31188BFF3BB
:102940006F8FBFF34F8F3B6000BFFEE700F00AFCC4
:10295000384B1B68013B374A1360364B1B68002B12
:1029600061D1354B1B68002B5DD02EE0334BDB680B
:10297000DB68FB60FB6818331846FFF750FDFB6807
:1029800004331846FFF74BFDFB68DB6A01229A40CF
:102990002B4B1B6813432A4A1360FB68DA6A134601
:1029A0009B0013449B00274A1A44FB6804331946D2
:1029B0001046FFF7D7FCFB68DA6A234B1B68DB6A1B
:1029C0009A4202D3214B01221A601C4B1B68002B38
:1029D000CCD1FB68002B01D000F012FA1C4B1B6815
:1029E0007B607B68002B10D000F036F80346002B8C
:1029F00002D0164B01221A607B68013B7B607B682A
:102A0000002BF1D1124B00221A60104B1B68002BD7
:102A100009D00123BB600F4B4FF080521A60BFF307
:102A20004F8FBFF36F8F00F0CDFBBB681846103798
:102A3000BD4680BDC8040020A00400206004002022
:102A4000A8040020A4030020A0030020B404002058
:102A5000B004002004ED00E080B586B000AF002394
:102A60007B614E4B1B68002B40F08E804C4B1B68EB
:102A700001333B614A4A3B6913603B69002B20D11B
:102A8000484B1B681B68002B0AD04FF0500383F3A0
:102A90001188BFF36F8FBFF34F8F3B6000BFFEE71E
:102AA000404B1B68FB60404B1B683E4A13603E4A2C
:102AB000FB6813603D4B1B6801333C4A136000F018
:102AC0009FF93B4B1B683A699A4248D3354B1B68C8
:102AD0001B68002B04D1364B4FF0FF321A603EE0EA
:102AE000304B1B68DB68DB68BB60BB685B687B6086
:102AF0003A697B689A4203D22D4A7B6813602EE0C4
:102B0000BB6804331846FFF78AFCBB689B6A002B3E
:102B100004D0BB6818331846FFF781FCBB68DB6A3A
:102B200001229A40234B1B681343224A1360BB685F
:102B3000DA6A13469B0013449B001F4A1A44BB6881
:102B4000043319461046FFF70DFCBB68DA6A1B4BCD
:102B50001B68DB6A9A42B9D301237B61B6E7174B46
:102B60001B68DA6A144913469B0013449B000B440C
:102B70001B68012B01D901237B61114B1B68002BC2
:102B800007D001237B6104E00E4B1B6801330D4A23
:102B900013607B6918461837BD4680BDC804002005
:102BA000A4040020580400205C040020B804002085
:102BB000C0040020A8040020A4030020A0030020DB
:102BC000B4040020B004002080B487B000AF294BCB
:102BD0001B68002B03D0284B01221A6044E0264BCF
:102BE00000221A60254B1B68FB60FB68B3FA83F375
:102BF000FB72FB7AC3F11F037B6121497A6913469B
:102C00009B0013449B000B441B68002B0AD14FF020
:102C1000500383F31188BFF36F8FBFF34F8F7B6037
:102C200000BFFEE77A6913469B0013449B00144AD9
:102C300013443B613B695B685A683B695A603B6976
:102C40005A683B6908339A4204D13B695B685A6809
:102C50003B695A603B695B68DB680A4A1360094B51
:102C60001B684C33084A136000BF1C37BD465DF833
:102C7000047B7047C8040020B4040020A80400208E
:102C8000A4030020A00300206800002080B582B0CB
:102C900000AF786000F052F8064B1B68012BF9D9A1
:102CA000054B4FF080521A60BFF34F8FBFF36F8F09
:102CB000F0E700BFA403002004ED00E080B582B07F
:102CC00000AF00237B600CE07A6813469B0013443E
:102CD0009B00124A13441846FFF717FB7B68013329
:102CE0007B607B68062BEFD90D48FFF70EFB0D4884
:102CF000FFF70BFB0C48FFF708FB0C48FFF705FB41
:102D00000B48FFF702FB0B4B054A1A600A4B054ABA
:102D10001A6000BF0837BD4680BD00BFA403002075
:102D200030040020440400206004002074040020CB
:102D30008C040020580400205C04002080B582B080
:102D400000AF19E000F00EFA104BDB68DB687B6027
:102D50007B6804331846FFF762FB0D4B1B68013B91
:102D60000B4A13600B4B1B68013B0A4A136000F0CF
:102D700029FA786800F010F8064B1B68002BE1D1A7
:102D800000BF00BF0837BD4680BD00BF74040020EF
:102D9000A00400208804002080B584B000AF7860D3
:102DA0007B684C33184600F0C7FD7B6893F89D3074
:102DB000002B08D17B681B6B184600F081FB7868FC
:102DC00000F07EFB18E07B6893F89D30012B03D167
:102DD000786800F075FB0FE07B6893F89D30022B5C
:102DE0000AD04FF0500383F31188BFF36F8FBFF306
:102DF0004F8FFB6000BFFEE700BF1037BD4680BDB0
:102E000080B483B000AF0C4B1B681B68002B04D14F
:102E10000A4B4FF0FF321A6008E0074B1B68DB6873
:102E2000DB687B607B685B68044A136000BF0C371B
:102E3000BD465DF8047B704758040020C0040020A4
:102E400080B584B000AF78603960294B1B68FB60A7
:102E5000284B1B6804331846FFF7E1FA0346002BA2
:102E60000BD1244B1B68DB6A012202FA03F3DA431D
:102E7000214B1B681340204A13607B68B3F1FF3F6E
:102E80000AD13B68002B07D01A4B1B680433194644
:102E90001A48FFF767FA26E0FA687B681344BB60BC
:102EA000144B1B68BA685A60BA68FB689A4209D228
:102EB000134B1A680F4B1B68043319461046FFF773
:102EC00075FA10E00F4B1A680A4B1B680433194659
:102ED0001046FFF76BFA0C4B1B68BA689A4202D295
:102EE000094ABB68136000BF1037BD4680BD00BFF4
:102EF000A4040020A0030020A80400208C040020CB
:102F00005C04002058040020C004002080B485B078
:102F100000AFF860B9607A60FB68043BFB60FB6857
:102F20004FF080721A60FB68043BFB60BB6823F0C3
:102F30000102FB681A60FB68043BFB600C4AFB68FB
:102F40001A60FB68143BFB607A68FB681A60FB68D8
:102F5000043BFB60FB686FF002021A60FB68203BD9
:102F6000FB60FB6818461437BD465DF8047B70476C
:102F7000752F000880B485B000AF00237B60124B32
:102F80001B68B3F1FF3F0AD04FF0500383F3118861
:102F9000BFF36F8FBFF34F8FFB6000BFFEE74FF0B3
:102FA000500383F31188BFF36F8FBFF34F8FBB6064
:102FB00000BF00BF7B68002BFCD000BF00BF1437F0
:102FC000BD465DF8047B70470C0000200000000047
:102FD000074B19680868B0E8F04F80F30988BFF321
:102FE0006F8F4FF0000080F311887047AFF30080BF
:102FF000A003002000BF00BF08480068006880F3FD
:1030000008884FF0000080F3148862B661B6BFF301
:103010004F8FBFF36F8F00DF00BF00BF08ED00E0F0
:1030200080B586B000AF464B1B68464A93420AD132
:103030004FF0500383F31188BFF36F8FBFF34F8FAF
:103040003B6100BFFEE73E4B1B683F4A93420AD1FB
:103050004FF0500383F31188BFF36F8FBFF34F8F8F
:10306000FB6000BFFEE7394B7B617B691B78DBB2FD
:103070007B607B69FF221A707B691B78DBB2FB7077
:10308000FB78DBB203F05003DAB2314B1A70314BEC
:1030900007221A6009E02F4B1B68013B2D4A136081
:1030A000FB78DBB25B00DBB2FB70FB78DBB203F0DA
:1030B0008003802BEFD0274B1B68C3F10703042B41
:1030C0000AD04FF0500383F31188BFF36F8FBFF323
:1030D0004F8FBB6000BFFEE71E4B1B681B021D4AE3
:1030E00013601C4B1B6803F4E0631A4A13607B688F
:1030F000DAB27B691A70184B1B68174A43F47003E5
:103100001360154B1B68144A43F07043136000F0C2
:10311000DDF8124B00221A6000F0FCF8104B1B681F
:103120000F4A43F040431360FFF766FFFFF74CFD83
:10313000FFF720FF002318461837BD4680BD00BFAB
:1031400000ED00E071C20F4170C20F4100E400E0E9
:10315000CC040020D004002020ED00E00C00002072
:1031600034EF00E080B483B000AF4FF0500383F33E
:103170001188BFF36F8FBFF34F8F7B6000BF0F4B82
:103180001B6801330D4A13600C4B1B68012B0FD1D8
:103190000B4B1B68DBB2002B0AD04FF0500383F3BC
:1031A0001188BFF36F8FBFF34F8F3B6000BFFEE707
:1031B00000BF0C37BD465DF8047B70470C00002053
:1031C00004ED00E080B483B000AF124B1B68002B0D
:1031D0000AD14FF0500383F31188BFF36F8FBFF311
:1031E0004F8F7B6000BFFEE70A4B1B68013B094A1B
:1031F0001360084B1B68002B05D100233B603B6824
:1032000083F3118800BF00BF0C37BD465DF8047B17
:10321000704700BF0C00002000000000000000000C
:10322000EFF30980BFF36F8F154B1A681EF0100F74
:1032300008BF20ED108A20E9F04F10602DE9090049
:103240004FF0500080F31188BFF34F8FBFF36F8FA3
:10325000FFF7BAFC4FF0000080F3118809BC196831
:103260000868B0E8F04F1EF0100F08BFB0EC108AED
:1032700080F30988BFF36F8F704700BFAFF3008002
:10328000A003002000BF00BF80B582B000AF4FF0A8
:10329000500383F31188BFF36F8FBFF34F8F7B60B1
:1032A00000BFFFF7D9FB0346002B03D0064B4FF0BE
:1032B00080521A6000233B603B6883F3118800BF93
:1032C00000BF0837BD4680BD04ED00E080B400AF0C
:1032D0000B4B00221A600B4B00221A600A4B1B6832
:1032E0000A4AA2FB03239B09094A013B1360044BD2
:1032F00007221A6000BFBD465DF8047B704700BF1F
:1033000010E000E018E000E000000020D34D621063
:1033100014E000E0DFF80C00016841F47001016086
:10332000704700BF88ED00E080B58AB000AF7860DC
:103330000023FB61FFF7E6FA5B4B1B68002B01D112
:1033400000F020F9594B1A687B681340002B40F0BD
:1033500093807B68002B1DD008227B6813447B6020
:103360007B6803F00703002B14D07B6823F007036E
:1033700008337B607B6803F00703002B0AD04FF013
:10338000500383F31188BFF36F8FBFF34F8F7B61BF
:1033900000BFFEE77B68002B6ED0454B1B687A6848
:1033A0009A4269D8434B3B62424B1B687B6204E004
:1033B0007B6A3B627B6A1B687B627B6A5B687A68BC
:1033C0009A4203D97B6A1B68002BF1D1364B1B68EC
:1033D0007A6A9A4250D03B6A1B6808221344FB6108
:1033E0007B6A1A683B6A1A607B6A5A687B68D21AE1
:1033F00008235B009A421FD97A6A7B681344BB6139
:10340000BB6903F00703002B0AD04FF0500383F38E
:103410001188BFF36F8FBFF34F8F3B6100BFFEE793
:103420007B6A5A687B68D21ABB695A607B6A7A6881
:103430005A60B86900F008F91D4B1A687B6A5B682E
:10344000D31A1B4A13601A4B1A681B4B1B689A420B
:1034500003D2174B1B68184A13607B6A5A68134BD8
:103460001B681A437B6A5A607B6A00221A60134BFE
:103470001B680133114A1360FFF752FAFB6903F02E
:103480000703002B0AD04FF0500383F31188BFF3DA
:103490006F8FBFF34F8FFB6000BFFEE7FB691846DD
:1034A0002837BD4680BD00BFDC400020F040002032
:1034B000E0400020D4400020E4400020E84000200C
:1034C00080B586B000AF78607B687B617B68002B3D
:1034D0004DD008235B427A6913447B617B693B6171
:1034E0003B695A68244B1B681340002B0AD14FF0EC
:1034F000500383F31188BFF36F8FBFF34F8FFB60CF
:1035000000BFFEE73B691B68002B0AD04FF0500359
:1035100083F31188BFF36F8FBFF34F8FBB6000BF82
:10352000FEE73B695A68144B1B681340002B1ED002
:103530003B691B68002B1AD13B695A680E4B1B680C
:10354000DB431A403B695A60FFF7DCF93B695A6874
:103550000A4B1B681344094A1360386900F074F879
:10356000074B1B680133064A1360FFF7D9F900BF08
:103570001837BD4680BD00BFF0400020E04000206D
:10358000EC40002080B485B000AF4FF47053BB60B6
:10359000274BFB60FB6803F00703002B0CD0FB6894
:1035A0000733FB60FB6823F00703FB60BA68FB6826
:1035B000D31A1F4A1344BB60FB687B601D4A7B68BB
:1035C00013601C4B00225A607B68BA681344FB608E
:1035D0000822FB689B1AFB60FB6823F00703FB6073
:1035E000FB68154A1360144B1B6800225A60124B8B
:1035F0001B6800221A607B683B603B68FA68D21A3D
:103600003B685A600C4B1A683B681A603B685B6801
:103610000A4A13603B685B68094A1360094B4FF024
:1036200000421A6000BF1437BD465DF8047B704746
:10363000D4040020D4400020DC400020E4400020DE
:10364000E0400020F040002080B485B000AF7860FA
:10365000284BFB6002E0FB681B68FB60FB681B6893
:103660007A689A42F7D8FB68BB60FB685B68BA6807
:1036700013447A689A4208D1FB685A687B685B6891
:103680001A44FB685A60FB687B607B68BB607B68A0
:103690005B68BA681A44FB681B689A4218D1FB68D9
:1036A0001A68154B1B689A420DD07B685A68FB68F4
:1036B0001B685B681A447B685A60FB681B681A6861
:1036C0007B681A6008E00C4B1A687B681A6003E09C
:1036D000FB681A687B681A60FA687B689A4202D0B5
:1036E000FB687A681A6000BF1437BD465DF8047B3A
:1036F000704700BFD4400020DC400020002310B5FC
:103700000446C0E90033C0E9043383608181436625
:10371000C2818361194608225C3000F0F4F8054B41
:103720006362054BA362054BE362054B246223638E
:1037300010BD00BF81380008A3380008DB3800083E
:10374000FF380008024A0349034800F069B800BF87
:10375000100000204D4300081C00002041680C4B65
:10376000994210B5044601D000F0F0FDA168094B64
:10377000994202D0204600F0E9FDE168064B9942EB
:1037800004D02046BDE8104000F0E0BD10BD00BFF1
:10379000F44000205C410020C441002010B50B4BD8
:1037A0000B4C0C4A1A60204600220421FFF7A6FFAA
:1037B00004F1680001220921FFF7A0FF04F1D00005
:1037C0000222BDE810401221FFF798BF2C420020D2
:1037D000F440002045370008014800F063B900BFFD
:1037E00035420020014800F05EB900BF354200209C
:1037F00010B50446FFF7F0FF236A1BB1BDE8104087
:10380000FFF7F0BF044B2362044B1B68002BF5D17C
:10381000FFF7C4FFF2E700BF5D3700082C4200202D
:103820002DE9F8430746884614460026D4E9019559
:10383000B9F1010905D52468002CF7D13046BDE85F
:10384000F883AB89012B07D9B5F90E30013303D0CA
:1038500029463846C04706436835E9E70FB407B53F
:10386000064904AB086853F8042B8168019300F003
:103870003DFA03B05DF804EB04B070476800002027
:1038800010B50C46B1F90E1000F0BEF80028ABBF21
:10389000636DA3891B1823F48053ACBF6365A381B8
:1038A00010BD2DE9F0411F468B89DB0505460C460E
:1038B000164605D5B1F90E100223002200F092F849
:1038C000A389B4F90E1023F48053A38132463B46FA
:1038D0002846BDE8F04100F0A9B810B50C46B1F992
:1038E0000E1000F07FF8431CA38915BF606523F418
:1038F000805343F48053A38118BFA38110BDB1F955
:103900000E1000F009B802440346934200D17047FC
:1039100003F8011BF9E7000038B5064D0023044603
:1039200008462B60FDF7F9F9431C02D12B6803B15F
:10393000236038BD30420020294B1B68834270B59C
:1039400004464BD0C36943B1DB68002B44D1E36923
:10395000196811B1204600F0A7F8616911B120463D
:1039600000F0A2F8E16911B1204600F09DF8216B4A
:1039700011B1204600F098F8616B11B1204600F0BB
:1039800093F8A16B11B1204600F08EF8A16C11B133
:10399000204600F089F8616C11B1204600F084F8EF
:1039A000E16A11B1204600F07FF8236AB3B12046E6
:1039B000BDE870401847495941B90435E369802D85
:1039C000D968F8D1204600F06FF8C0E70E682046AD
:1039D00000F06AF83146EFE70025EFE770BD00BF61
:1039E0006800002038B5074D0446084611460022FD
:1039F0002A601A46FDF7B8F9431C02D12B6803B1BF
:103A0000236038BD3042002038B5074D04460846D3
:103A1000114600222A601A46FDF746F9431C02D1DE
:103A20002B6803B1236038BD3042002038B5074D04
:103A300004460846114600222A601A46FDF751F94D
:103A4000431C02D12B6803B1236038BD30420020F3
:103A5000014B1868704700BF6800002070B50D4D1D
:103A60000D4C641BA4100026A64209D10B4D0C4C32
:103A700000F0BEFD641BA4100026A64205D170BD57
:103A800055F8043B98470136EEE755F8043B984754
:103A90000136F2E7144800081448000814480008EA
:103AA000184800087047704737B5002944D051F8CE
:103AB000043C0190002BA1F10404B8BFE41800F00D
:103AC000DFF81E4A0198136833B96360146003B0CD
:103AD000BDE8304000F0DAB8A34208D92568611982
:103AE0008B4201BF19685B6849192160EDE71A46EE
:103AF0005B680BB1A342FAD911685518A5420BD1E6
:103B0000246821445418A3421160E0D11C685B680A
:103B100053600C441460DAE702D90C230360D6E743
:103B2000256861198B4204BF19685B68636004BF34
:103B3000491921605460CAE703B030BD3842002003
:103B400070B50E4E0C463168054611B900F0BCFC4C
:103B500030602146284600F0B7FC431C0AD0C41C44
:103B600024F00304A04207D0211A284600F0ACFC40
:103B7000013001D14FF0FF34204670BD3C4200209F
:103B80002DE9F843CD1C25F0030508350C2D38BF71
:103B90000C25002D074601DBA94205D90C233B600B
:103BA00000263046BDE8F883DFF8D08000F068F8E2
:103BB000D8F800301C465CBB29463846FFF7C0FFEA
:103BC000431C044655D1D8F800402646002E45D166
:103BD000002C48D023683146384604EB030900F036
:103BE00073FC81453FD121686D1A29463846FFF79D
:103BF000A7FF013037D023682B442360D8F800306A
:103C0000002B38D05A68A2422BD100225A600FE014
:103C10002268521B1FD40B2A17D96119A3422560B1
:103C200018BF5960636808BFC8F8001062514B6044
:103C3000384604F10B0600F029F826F00706231D8C
:103C4000F21AAED09B1BA350ABE7A3426268DDD152
:103C5000C8F80020ECE723466468ACE73446766891
:103C6000B4E71346CCE70C233B60384600F00EF86F
:103C700097E72560DCE75B60FFDE00BF384200208D
:103C80000148FFF70FBF00BF344200200148FFF793
:103C90000ABF00BF344200209368013B002B10B4E0
:103CA000936008DA9469A34201DB0A2903D15DF825
:103CB000044B00F073BB1368581C10601970084661
:103CC0005DF8044B7047F8B506460F461446D51804
:103CD000AC4201D1002007E014F8011B3A463046FF
:103CE000FFF7DAFF431CF3D1F8BD00002DE9F04FD8
:103CF0000D469DB014469846064618B1036A0BB9A6
:103D0000FFF776FD6B6ED90705D4AB899A0502D40F
:103D1000A86DFFF7C7FEAB891B0701D52B699BB9BF
:103D20002946304600F078FB70B16B6EDC0704D595
:103D30004FF0FF301DB0BDE8F08FAB899805F7D488
:103D4000A86DFFF7B0FEF3E70023099320238DF859
:103D50002930CDF80C803023DFF8B0818DF82A307F
:103D60004FF0010923469A4613F8012B0AB1252A80
:103D7000F9D1BAEB040B0BD05B46224629463046FC
:103D8000FFF7A1FF013000F0A980099A5A44099277
:103D90009AF80030002B00F0A18000234FF0FF3292
:103DA000CDE905230AF1010A049307938DF85330F6
:103DB0001A935446052214F8011B5448FCF710FAD4
:103DC000049AD8B9D10644BF20238DF85330130785
:103DD00044BF2B238DF853309AF800302A2B15D08E
:103DE000079A544600204FF00A0C214611F8013B77
:103DF000303B092B4DD9B0B1079214E0A0EB08037A
:103E000009FA03F313430493A246D2E7039B191D57
:103E10001B680391002BBBBF5B4242F00202079379
:103E20000793B8BF049223782E2B0CD163782A2BEA
:103E300034D1039B1A1D1B680392002BB8BF4FF0AF
:103E4000FF3302340593DFF8D4A0217803225046D3
:103E5000FCF7C6F938B1049BA0EB0A00402282406F
:103E600013430134049314F8011B29488DF82810DA
:103E70000622FCF7B5F900283FD0264B1BBB039B5D
:103E8000073323F0070308330393099B3B4409934B
:103E900068E70CFB02320C460120A6E70023013440
:103EA000059319464FF00A0C204610F8012B303AC2
:103EB000092A03D9002BC6D00591C4E70CFB0121C8
:103EC00004460123F0E703AB00932A46124B04A9F2
:103ED0003046AFF300800746781CD6D16B6ED90709
:103EE00005D4AB899A0502D4A86DFFF7DCFDAB8938
:103EF0005B063FF51DAF09981CE703AB00932A460C
:103F0000054B04A9304600F079F8E4E7D8470008EB
:103F1000E247000800000000C73C0008DE47000838
:103F20002DE9F047164699468A680B69DDF820802E
:103F30009342B8BF1346336091F8432007460C46BE
:103F40000AB1013333602368990642BF33680233F4
:103F50003360256815F0060506D104F1190AE368F7
:103F600032689B1AAB4226DC94F84320131E226869
:103F700018BF012392062BD404F143024946384668
:103F8000C04701301ED02368226903F00603042BCA
:103F900002BFE5683368ED1AA3680CBF25EAE57532
:103FA00000259342C4BF9B1AED1800261A34B5426F
:103FB0001AD1002008E00123524649463846C0473E
:103FC000013003D14FF0FF30BDE8F0870135C6E77F
:103FD000E1185A1C302081F84300224494F845101F
:103FE00082F843100233C7E7012322464946384688
:103FF000C0470130E6D00136D9E700002DE9FF4780
:104000000F7E0C9D782F914680460C469A4601F112
:10401000430207D8622F0AD8002F00F0D480582F0F
:1040200000F0C08004F1420584F842703AE0A7F144
:104030006303152BF6D801A151F823F09540000831
:10404000A940000825400008254000082540000838
:1040500025400008A9400008254000082540000828
:104060002540000825400008AD410008D540000863
:10407000674100082540000825400008CF4100089E
:1040800025400008D54000082540000825400008CC
:104090006F4100082B681A1D1B682A6004F1420555
:1040A00084F8423001239FE020682B68070603F163
:1040B0000401296001D51E6803E04606FBD5B3F96B
:1040C0000060002E03DA2D23764284F843305A48EC
:1040D0000A2312E02B682068191D2960050601D506
:1040E0001E6802E04106FBD51E8853486F2F0CBFA7
:1040F00008230A23002184F843106568A560002D79
:10410000A2BF216821F0040121600EB9002D4BD01F
:104110001546B6FBF3F103FB1167C75D05F8017D9A
:104120003746BB420E46F4D9082B0BD12368DE0775
:1041300008D5236961689942DEBF302305F8013C48
:1041400005F1FF35521B2261CDF800A04B4603AAB2
:1041500021464046FFF7E4FE01304AD14FF0FF30E0
:1041600004B0BDE8F087236843F0200323603348A0
:10417000782784F84570236829681F0651F8046B76
:1041800002D45F0648BFB6B2DF0748BF43F0200342
:10419000296048BF23601EB9236823F020032360F1
:1041A0001023A7E72448E4E71546BDE72B682668F7
:1041B0006169181D286035061B6801D5196002E089
:1041C0007006FBD51980002323611546BCE72B68D8
:1041D0001A1D2A601D68626800212846FCF700F855
:1041E00008B1401B606063682361002384F843309A
:1041F000AAE723692A4649464046D0470130ADD058
:1042000023689B0713D4E068039B9842B8BF184605
:10421000A6E70123324649464046D04701309DD0AB
:104220000135E36803995B1AAB42F2DCEBE700254A
:1042300004F11906F5E700BFE9470008FA4700084E
:104240008A892DE9F041054610070C4658D44B6881
:10425000002B05DC0B6C002B02DC0020BDE8F0819C
:10426000E66A002EF9D0002312F480522F68216AEA
:104270002B6032D0606DA3895A0705D56368C01AD8
:10428000636B0BB1236CC01A00230246E66A216AF5
:104290002846B047431CA38906D129681D292BD87D
:1042A000294A0A41D60727D400226260D90422692C
:1042B000226004D5421C01D12B6803B96065616B93
:1042C0002F600029C9D004F14403994202D0284646
:1042D000FFF7EAFB00206063C0E701232846B047F0
:1042E000411CC8D12B68002BC5D01D2B01D0162B2B
:1042F00001D12F60B1E7A38943F04003A381ADE76B
:104300000F69002FA9D093070E6808BF4B690F6093
:1043100018BF0023A6EB07088B60B8F1000F9CDDE7
:10432000216AA66A43463A462846B047002806DC7A
:10433000A38943F04003A3814FF0FF308EE7074489
:10434000A8EB0008E9E700BFFEFFBFDF38B50B6947
:1043500005460C4613B90025284638BD18B1036A36
:104360000BB9FFF745FAB4F90C30002BF3D0626EAD
:10437000D00704D4990502D4A06DFFF793FB28461B
:104380002146FFF75DFF636EDA070546E4D4A38993
:104390009B05E1D4A06DFFF786FBDDE7F8B50E467F
:1043A0001446054618B1036A0BB9FFF721FAA36951
:1043B000A360A3891A0725D523691BB32368226943
:1043C000981A6369F6B28342374604DC21462846D0
:1043D000FFF7BCFFE0B9A368013BA36023685A1C48
:1043E00022601E706269431C9A4204D0A389DB07D5
:1043F00006D50A2E04D121462846FFF7A7FF38B973
:104400003846F8BD2146284600F006F80028D5D0E9
:104410004FF0FF37F4E7000038B52A4B054618681F
:104420000C4618B1036A0BB9FFF7E2F9A389B4F996
:104430000C20180722D4D90607D409232B6042F098
:104440004003A3814FF0FF3034E0580712D5616B71
:1044500041B104F14403994202D02846FFF724FBFE
:1044600000236363A38923F02403A38100236360F3
:1044700023692360A38943F00803A38123694BB90F
:10448000A38903F42073B3F5007F03D021462846A7
:1044900000F050F8A089B4F90C2010F001030AD004
:1044A0000023A36063695B42A361236943B910F0F1
:1044B0008000C4D138BD810758BF6369A360F4E7A9
:1044C0000020F7E76800002038B5064D00230446B9
:1044D00008462B60FCF756FC431C02D12B6803B145
:1044E000236038BD3042002070B50C46B1F90E1083
:1044F000002996B015461E460DDAA38913F0800FE9
:104500004FF000010CBF4FF4806340230020316066
:104510002B6016B070BD6A4600F048F80028ECDB4E
:10452000019901F47041A1F50053594259414FF4EA
:104530008063EBE78B8973B59D0706460C4607D56C
:1045400004F14703236023610123636102B070BD5E
:1045500001AB6A46FFF7C8FF009905463046FFF7F2
:104560000FFB48B9B4F90C309A05EFD423F00303DC
:1045700043F00203A381E3E7A389206043F08003B3
:10458000A381009B6361019B20615BB1B4F90E10B4
:10459000304600F01DF828B1A38923F0030343F04F
:1045A0000103A381A3891D43A581CFE738B5074D3A
:1045B00000230446084611462B60FCF7BAFB431C57
:1045C00002D12B6803B1236038BD00BF3042002008
:1045D00038B5064D0023044608462B60FCF7B9FBAE
:1045E000431C02D12B6803B1236038BD3042002048
:1045F000F8B500BFF8BC08BC9E467047F8B500BFD0
:08460000F8BC08BC9E4670479F
:1046080064656661756C745461736B0008460008D4
:104618009107000800000000000000008000000072
:1046280000000000000000006D795461736B3032A7
:104638000000000030460008A1070008FDFF000048
:1046480000000000800000000000000000000000E2
:104658006D795461736B30330000000058460008D0
:10466800D5070008FDFF00000000000080000000E2
:1046780000000000000000006D795461736B303455
:10468800000000008046000809080008FDFF00003F
:104698000000000080000000000000000000000092
:1046A8006D795461736B303500000000A84600082E
:1046B8003D080008FDFF0000000000008000000029
:1046C80000000000000000006D795461736B303603
:1046D80000000000D046000871080008FDFF000037
:1046E8000000000080000000000000000000000042
:1046F8006D795461736B303700000000F84600088C
:10470800A5080008FDFF0000000000008000000070
:1047180000000000000000006D795461736B3038B0
:104728000000000020470008D9080008FDFF00002D
:1047380000000000800000000000000000000000F1
:104748006D795461736B30390000000048470008E8
:104758000D090008FDFF00000000000080000000B7
:1047680000000000000000006D795461736B313067
:10477800000000007047000841090008FDFF000024
:1047880000000000800000000000000000000000A1
:104798005461736B5F4F6E6520436F756E746572FD
:1047A8005F5461736B203D202569200A00000000DA
:1047B80049444C45000000000000000000000000D3
:1047C80001020304060708090000000001020304AF
:1047D800232D302B2000686C4C00656667454647E2
:1047E8000030313233343536373839414243444565
:1047F80046003031323334353637383961626364D4
:0448080065660000E1
:08480C00A4BAFF7F01000000C7
:04481400C5010008D2
:04481800A1010008F2
:10481C000024F4001000000001000000AAAAAAAABB
:10482C000000000003000000F44000200000000025
:10483C00F44000205C410020C44100200000000036
:10484C00000000000000000000000000000000005C
:10485C00000000000000000000000000000000004C
:10486C00000000000000000000000000000000003C
:0C487C0000000000000000001C000020F4
:0400000508000E15CC
:00000001FF
