:020000040800F2
:1000000000000120550B0008990A00089B0A00080F
:100010009D0A00089F0A0008A10A000800000000CD
:10002000000000000000000000000000111F000898
:10003000A30A000800000000A11F00080520000816
:10004000A50B0008A50B0008A50B0008A50B0008D0
:10005000A50B0008A50B0008A50B0008A50B0008C0
:10006000A50B0008A50B0008A50B0008A50B0008B0
:10007000A50B0008A50B0008A50B0008A50B0008A0
:10008000A50B0008A50B0008A50B00080000000048
:10009000000000000000000000000000A50B0008A8
:1000A000A50B0008A50B0008A50B0008A50B000870
:1000B000A50A0008A50B0008A50B0008A50B000861
:1000C000A50B0008A50B0008A50B0008A50B000850
:1000D000A50B0008A50B0008A50B000800000000F8
:1000E000A50B0008A50B0008A50B000800000000E8
:1000F000000000000000000000000000A50B000848
:1001000000000000A50B0008A50B0008A50B0008C7
:1001100000000000000000000000000000000000DF
:10012000A50B0008A50B0008A50B0008A50B0008EF
:10013000A50B000800000000000000000000000007
:10014000000000000000000000000000A50B0008F7
:10015000A50B0008A50B0008A50B0008A50B0008BF
:10016000A50B0008A50B000800000000000000001F
:10017000000000000000000000000000000000007F
:1001800000000000A50B00080000000000000000B7
:04019000A50B0008B3
:1001A00010B5054C237833B9044B13B10448AFF3B1
:1001B00000800123237010BD6C00002000000000AF
:1001C0004C32000808B5034B1BB103490348AFF399
:1001D000008008BD00000000700000204C320008C4
:1001E00001F0FF01102A2BDB10F0070F08D010F8E8
:1001F000013B013A8B422DD010F0070F42B3F6D1EC
:10020000F0B441EA012141EA014122F007047FF004
:1002100000070023F0E80256083C85EA010586EA5B
:10022000010685FA47F5A3FA87F586FA47F6A5FA97
:1002300087F68EB9EED1F0BC01F0FF0102F00702A3
:1002400032B110F8013B013A83EA010313B1F8D14E
:100250000020704701387047002D06BF354603382F
:10026000073815F0010F07D1013015F4807F02BF68
:10027000013015F4C03F0130F0BC0138704700BFB9
:1002800053B94AB9002908BF00281CBF4FF0FF31FD
:100290004FF0FF3000F070B9ADF1080C6DE904CEFD
:1002A00000F006F8DDF804E0DDE9022304B0704751
:1002B0002DE9F047089E0D4604460F46002B4AD113
:1002C0008A42944665D9B2FA82F343B102FA03FC3A
:1002D000C3F120029F4020FA02F217439C404FEAEC
:1002E0001C4E1FFA8CF5B7FBFEF1220C0EFB1177AA
:1002F00042EA074201FB05F090420AD91CEB0202D8
:1003000001F1FF3780F01C81904240F219810239DF
:100310006244121AA4B2B2FBFEF00EFB102244EAB1
:10032000024400FB05F5A5420AD91CEB040400F1C8
:10033000FF3280F00781A54240F204816444023814
:1003400040EA0140641B00211EB1DC400023C6E9E5
:100350000043BDE8F0878B4208D9002E00F0ED8005
:100360000021C6E900050846BDE8F087B3FA83F12D
:10037000002949D1AB4202D3824200F2F880841AAC
:1003800065EB030201201746002EE2D0C6E90047C4
:10039000DFE702B9FFDEB2FA82F3002B40F0908073
:1003A0008A1A4FEA1C471FFA8CFE0121B2FBF7F5AF
:1003B00007FB1520220C42EA00420EFB05F090429A
:1003C00008D91CEB020205F1FF3802D2904200F27C
:1003D000CB804546121AA4B2B2FBF7F007FB1022FD
:1003E00044EA02440EFB00FEA64508D91CEB0404B7
:1003F00000F1FF3202D2A64500F2BB801046A4EB0A
:100400000E0440EA05409FE7C1F120078B4022FA25
:1004100007FC4CEA030C05FA01F420FA07F3FD404F
:100420004FEA1C492343B5FBF9F81FFA8CFE09FB80
:1004300018551C0C44EA054408FB0EF5A54202FAC7
:1004400001F200FA01F00BD91CEB040408F1FF3AA9
:1004500080F08880A54240F28580A8F102086444BB
:10046000641B9DB2B4FBF9F309FB134445EA044451
:1004700003FB0EFEA64508D91CEB040403F1FF356F
:100480006CD2A6456AD9023B644443EA0843A3FB05
:100490000295A4EB0E04AC42C846AE4656D353D0E8
:1004A00056B1B0EB080264EB0E0404FA07F7CA4039
:1004B000CC401743C6E9007418460021BDE8F08718
:1004C000C3F1200102FA03FC20FA01F225FA01F13E
:1004D0009D402A434FEA1C471FFA8CFEB1FBF7F000
:1004E00007FB1015110C41EA054100FB0EF58D428A
:1004F00004FA03F408D91CEB010100F1FF382FD2F4
:100500008D422DD902386144491B92B2B1FBF7F5F7
:1005100007FB151142EA014205FB0EF1914208D991
:100520001CEB020205F1FF3816D2914214D9023DAC
:100530006244521A45EA004138E73146304608E73E
:100540003946E6E61046FBE64845A9D2B9EB020873
:1005500065EB0C0E013BA3E74546EAE72B4694E723
:100560004046D1E7D0467BE7023D624432E7084689
:100570000AE76444023842E7704700BF08B501202B
:1005800001F08BF8FBE7000070B5084E084D002421
:1005900001342146304601F08FFF2846012100F04A
:1005A0004EFC4FF4FA7001F078F8F1E77C33000864
:1005B0000000024070B5084E084D00240134214669
:1005C000304601F079FF2846022100F038FC4FF454
:1005D0007A7001F062F8F1E77C3300080000024015
:1005E00070B5084E084D002401342146304601F014
:1005F00063FF2846042100F022FC40F2DC5001F0A9
:100600004CF8F1E77C3300080000024070B5084E5A
:10061000084D002401342146304601F04DFF2846A4
:10062000082100F00CFC4FF4FA6001F036F8F1E715
:100630007C3300080000024070B5084E084D0024CD
:1006400001342146304601F037FF2846102100F0E2
:10065000F6FB40F6C41001F020F8F1E77C33000807
:100660000000024070B5084E084D002401342146B8
:10067000304601F021FF2846202100F0E0FB40F643
:10068000B83001F00AF8F1E77C33000800000240BE
:1006900070B5084E084D002401342146304601F063
:1006A0000BFF2846402100F0CAFB40F6AC5000F09A
:1006B000F4FFF1E77C3300080000024070B5084EFB
:1006C000084D002401342146304601F0F5FE28464D
:1006D000802100F0B4FB4FF47A6000F0DEFFF1E718
:1006E0007C3300080000024070B5094E094D00241B
:1006F00001342146304601F0DFFE28464FF4807178
:1007000000F09DFB41F2941000F0C7FFF0E700BF3E
:100710007C33000800000240034B0360034B0B6076
:1007200080231360704700BFB0020020B00000209B
:1007300070B54C4C26460FCEC6B06D460FC596E838
:10074000070085E807000021684600F07EFF464B61
:1007500004F11C0618600FCE07AD0FC596E8070020
:1007600085E80700002107A800F06FFF3F4B04F168
:10077000380618600FCE0EAD0FC596E8070085E865
:10078000070000210EA800F060FF394B04F1540669
:1007900018600FCE15AD0FC596E8070085E8070075
:1007A000002115A800F051FF324B04F170061860CB
:1007B0000FCE1CAD0FC596E8070085E807000021A5
:1007C0001CA800F042FF2C4B04F18C0618600FCEE1
:1007D00023AD0FC596E8070085E80700002123A890
:1007E00000F033FF254B04F1A80618600FCE2AADA8
:1007F0000FC596E8070085E8070000212AA800F049
:1008000024FF1F4B04F1C40618600FCE31AD0FC595
:1008100096E8070085E80700002131A800F015FFE1
:10082000184B04F1E00618600FCE38AD0FC596E8FE
:10083000070085E80700002138A800F006FF124BEA
:10084000FC3418600FCC3FAD0FC594E8070085E875
:10085000070000213FA800F0F8FE0C4B186046B0DE
:1008600070BD00BF64320008880000208C000020AA
:100870009000002094000020980000209C000020A0
:10088000A0000020A4000020A8000020AC00002050
:1008900010B588B01422002103A801F062FE0024E4
:1008A000174B00941A6B174842F080021A631A6BB8
:1008B00002F080020092009A01941A6B42F0010249
:1008C0001A631A6B02F001020192019A02941A6BE8
:1008D00042F002021A631B6B03F0020302932246EA
:1008E000FF21029B00F0A6FAFF220123054803A97D
:1008F000CDE90323CDE9054400F0D4F908B010BDDB
:10090000003802400000024010B5282294B00021B7
:100910000DEB020001F025FE1422002103A801F0D6
:1009200020FE0022194B0192196C41F0805119648C
:100930001B6C174903F080530193019B02920B68D3
:1009400023F4404343F400430B600B680E9203F41E
:1009500040430293029B01244FF4803308A8CDE961
:10096000084300F075FA014608B172B6FEE7CDE91A
:1009700005000F23079003A8CDE9033400F042FCE3
:1009800008B172B6FEE714B010BD00BF00380240D7
:100990000070004008B500F007F9FFF7B5FFFFF75A
:1009A00077FFFFF7C5FE00F04BFEFEE70368B3F1EB
:1009B000804F01D100F012B97047000082B00E4B99
:1009C00000220092596C41F480415964596C01F441
:1009D0008041009100990192196C41F08051196495
:1009E0001B6C03F080530193019B0F216FF00100FA
:1009F00002B000F017B900BF0038024070B588B0EF
:100A000000230293204B1A6C42F001021A641B6C03
:100A100003F001030293054601A903A8029B00F01D
:100A20009BFC069B53BB00F087FC184E4FF08043A5
:100A3000336040F2E733F360154BB0FBF3F3013B57
:100A40007360304600233361B360B36100F0CAFDC8
:100A5000044680B9304600F09FFC044658B91C207B
:100A600000F012F90F2D0DD8224629461C2000F067
:100A7000D9F8084B1D60204608B070BD00F05CFC42
:100A80004000D2E70124F6E700380240500300207E
:100A900040420F0008000020FEE7FEE7FEE7FEE709
:100AA000FEE77047014800F0ADBC00BF50030020D6
:100AB00070B50D4614460E46731B9C4201DC204661
:100AC00070BDAFF3008006F8010BF5E770B50D4679
:100AD00014460E46731B9C4201DC204670BD16F87E
:100AE000010BAFF30080F5E74FF0FF3070474FF494
:100AF00000534B6000207047012070470020704772
:100B00000B4A116810B5034609B90A49116010680B
:100B100009490A4C0344091B8B4206D901F0C6FD62
:100B20000C2303604FF0FF3010BD1360FCE700BFE3
:100B30009803002040420020000001200004000033
:100B4000034AD2F8883043F47003C2F88830704703
:100B500000ED00E0DFF834D00D480E490E4A0023C6
:100B600002E0D458C4500433C4188C42F9D30B4A61
:100B70000B4C002301E013600432A242FBD3FFF7C9
:100B8000DFFF01F099FDFFF705FF7047000001202E
:100B9000000000206C000020583400086C00002089
:100BA0003C420020FEE7000008B50B4B1A6842F4F7
:100BB00000721A601A6842F480621A601A6842F47D
:100BC00080721A60032000F01BF80F20FFF716FF59
:100BD000FFF7F4FE002008BD003C0240034A044B2E
:100BE00011681B780B441360704700BF9C03002002
:100BF00004000020014B1868704700BF9C030020D0
:100C00000749CA6822F4E0620302120403F4E063B5
:100C1000120C134343F0BF6343F40033CB607047BF
:100C200000ED00E0164B30B5DC68C4F30224C4F1DB
:100C30000703251D042B28BF0423062D4FF0FF3585
:100C40008CBF033C002405FA03F321EA0303A5400B
:100C500022EA0502A340002843EA0203ACBF00F1E8
:100C60006040084A4FEA0313B8BF00F00F00DBB240
:100C7000AABF00F56140135480F8003330BD00BFB7
:100C800000ED00E014ED00E0002807DB4109044A14
:100C900000F01F000123834042F82130704700BF5D
:100CA00000E100E02DE9F74FDFF884915E4A002370
:100CB0000D6801249C4004EA050CAC4340F0A5807B
:100CC0004D6805F003044FEA43080326671E06FA41
:100CD00008F6012F6FEA060634D8876807EA060E81
:100CE000CF6807FA08F747EA0E078760476827EAE0
:100CF0000C0EC5F300179F4047EA0E074760C76810
:100D000007EA060E8F6807FA08F747EA0E07022C73
:100D1000C76019D14FEAD30A00EB8A0A03F0070B28
:100D2000DAF820704FEA8B0B4FF00F0E0EFA0BFE25
:100D300027EA0E0E0F6907FA0BF747EA0E07CAF803
:100D4000207001E0032CDAD1076804FA08F4374078
:100D50003C4315F4403F046057D04FF0000ACDF8F3
:100D600004A0D9F84460314C46F48046C9F8446088
:100D7000D9F8446006F480460196019E23F00306EC
:100D800006F1804606F59C3603F0030ED6F808807F
:100D90004FEA8E0E0F2707FA0EF7A04228EA070740
:100DA0003AD004F58064A04238D004F58064A042B3
:100DB00036D004F58064A04234D004F58064A042AB
:100DC0000CBF0424072404FA0EF43C43B460946876
:100DD0006FEA0C06EF0254BF34404CEA04049460FE
:100DE000D468AF0254BF34404CEA0404D460546861
:100DF000AF0354BF34404CEA040454601468ED035C
:100E000054BF34404CEA040414600133102B7FF4C7
:100E10004FAF03B0BDE8F08F5446D4E70124D2E7CA
:100E20000224D0E70324CEE7003C0140000002404A
:100E3000003802400AB1816170470904FBE7436949
:100E400001EA030221EA030141EA0241816170479C
:100E50002DE9F341044640B30368DD0710D423684D
:100E600098075BD423681A0700F19D8023685B070D
:100E700000F1BD80A069002840F0248100202CE012
:100E80008D4B9A6802F00C02042A07D09A6802F08F
:100E90000C02082A0BD15B68590208D5864B1B68E7
:100EA0009A03DCD56368002BD9D1012015E0636873
:100EB000814DB3F5803F13D12B6843F480332B6011
:100EC000FFF798FE7C4E054633689B03C7D4FFF7B7
:100ED00091FE401B6428F7D9032002B0BDE8F081E1
:100EE000B3F5A02F04D12B6843F480232B60E3E7F4
:100EF0002A6822F480322A602A6822F480222A603A
:100F0000002BDDD1FFF776FE06462B689F03A6D5A2
:100F1000FFF770FE801B6428F7D9DDE7664B9A68FF
:100F200012F00C0F07D09A6802F00C02082A11D1B7
:100F30005B685E020ED4604A13689D0702D5E368C1
:100F4000012BB2D11368216923F0F80343EAC103EE
:100F5000136087E7E268594BB2B101221A60FFF7CC
:100F600049FE554D06462B68980707D52B68226920
:100F700023F0F80343EAC2032B6073E7FFF73AFE5E
:100F8000801B0228EFD9A7E71A60FFF733FE4A4E0D
:100F90000546336899077FF565AFFFF72BFE401BC9
:100FA0000228F6D998E76269444B82B10122C3F85E
:100FB000802EFFF71FFE404E0546736F9F073FF5DB
:100FC00055AFFFF717FE401B0228F6D984E7C3F898
:100FD000802EFFF70FFE384E0546736F98077FF59A
:100FE00045AFFFF707FE401B0228F6D974E7324BE6
:100FF0001A6C12F0805228D101921A6C42F0805281
:101000001A641B6C03F080530193019B01272C4D44
:101010002B68D9051BD5A368274D012B27D12B6F32
:1010200043F001032B67FFF7E5FD234E054641F230
:101030008838336F9B0739D5002F3FF41BAF1E4A0A
:10104000136C23F08053136414E70027DFE72B6849
:1010500043F480732B60FFF7CDFD06462B68DA055D
:10106000D9D4FFF7C7FD801B0228F7D934E7052B39
:1010700004D12B6F43F004032B67D0E72A6F22F0D3
:1010800001022A672A6F22F004022A67002BCAD1C4
:10109000FFF7B0FD41F2883806462B6F9807CBD595
:1010A000FFF7A8FD801B4045F7D915E7FFF7A2FD24
:1010B000401B4045BDD90FE70038024000004742C1
:1010C00000700040364DAB6803F00C03082B3DD098
:1010D000344B002202281A662BD1FFF78BFD0646FF
:1010E0002B6899011FD4D4E907321343626A43EA9B
:1010F0008213E26A43EA0263A26A5208013A43EAAF
:1011000002436B60274B264D01221A66FFF772FDE2
:1011100004462B689A013FF5B1AEFFF76BFD001B4B
:101120000228F6D9D8E6FFF765FD801B0228D7D93B
:10113000D2E6FFF75FFD04462B689B017FF59EAE6C
:10114000FFF758FD001B0228F6D9C5E601283FF439
:10115000C4AE6B68E26903F4800191427FF4A5AEEE
:10116000216A03F03F028A427FF49FAE616A47F62C
:10117000C0721A40B2EB811F7FF497AEA26A520888
:1011800003F44031013AB1EB024F7FF48EAEE26AD4
:1011900003F07063B3EB026F3FF470AE85E600BFFF
:1011A0000038024000004742134908B58B6803F03D
:1011B0000C03042B1CD0082B1CD14A684B684968CF
:1011C00013F4800314BF0D480D48C1F3881118BFF4
:1011D000002302F03F02A1FB0001FFF751F8064B8C
:1011E0005B68C3F3014301335B00B0FBF3F008BD60
:1011F0000248FCE70248FAE70038024040787D01E7
:101200000024F4002DE9F0410D46044610B90120F8
:10121000BDE8F081434B1A6802F007028A4228D3E6
:1012200021688F072DD4C80740D43E4B1A6802F0BE
:101230000702AA4265D8226851076BD4130707D565
:10124000394A2169936823F4604343EAC1039360F8
:10125000FFF7AAFF344B354A9B68C3F30313D35CF3
:10126000D840334B1860334B1868FFF7C7FB00209A
:10127000CEE7CAB21A701B6803F007038B42C6D1CF
:10128000CEE7294B11F0040F1EBF9A6842F4E052DA
:101290009A600E0742BF9A6842F460429A609A6868
:1012A000A06822F0F00202439A60BCE762681E4B1D
:1012B000012A1CD11B6813F4003FA8D01A4EB36852
:1012C00023F003031343B360FFF794FC41F2883823
:1012D0000746B368626803F00C03B3EB820FA4D037
:1012E000FFF788FCC01B4045F3D9032090E7911E0F
:1012F00001291B6802D813F0007FDEE713F0020F0C
:10130000DBE7EAB21A701B6803F00703AB427FF415
:101310007EAF90E70449E0688B6823F4E053034311
:101320008B608BE7003C024000380240F633000837
:101330000000002008000020044B054A9B68C3F30E
:101340008223D35C034A1068D840704700380240BB
:1013500006340008000000200F2303600B4B9A683E
:1013600002F0030242609A6802F0F00282609A681A
:1013700002F4E052C2609B68DB0803F4E0530361AF
:10138000034B1B6803F007030B60704700380240F3
:10139000003C02407047000090F83D30012B28D1FE
:1013A000022380F83D300368DA6842F00102DA6017
:1013B000114A934212D0B3F1804F0FD0A2F57C4274
:1013C00093420BD002F58062934207D002F580620F
:1013D000934203D002F59A32934204D19A6802F004
:1013E0000702062A03D01A6842F001021A600020A0
:1013F00070470120704700BF0000014070477047F0
:101400007047704703681A69910710B504460ED5F6
:10141000DA6892070BD56FF002021A610122027797
:101420009B699B0777D0FFF7EAFF002323772368A8
:101430001A69500710D5DA6851070DD56FF004020C
:101440001A61022222779B6913F4407F204668D0FC
:10145000FFF7D5FF0023237723681A6912070FD5FA
:10146000DA6810070CD56FF008021A61042222779F
:10147000DB69990720465AD0FFF7C1FF0023237785
:1014800023681A69D20610D5DA68D0060DD56FF038
:1014900010021A6108222277DB6913F4407F20468C
:1014A0004BD0FFF7ACFF0023237723681A69D107DD
:1014B00008D5DA68D20705D56FF001021A61204617
:1014C000FFF774FA23681A69100608D5DA6811065E
:1014D00005D56FF080021A61204600F0B0F823684D
:1014E0001A69520608D5DA68500605D56FF0400231
:1014F0001A612046FFF785FF23681A69910622D5F5
:10150000DA6892061FD56FF0200220461A61BDE806
:10151000104000F093B8FFF771FF2046FFF770FF0F
:1015200083E7FFF76BFF2046FFF76AFF92E7FFF7BD
:1015300065FF2046FFF764FFA0E7FFF75FFF204647
:10154000FFF75EFFAFE710BD244A036890420ED05C
:10155000B0F1804F0BD0A2F57C42904207D002F54B
:101560008062904203D002F58062904215D14A68B1
:1015700023F070031343194A904219D0B0F1804F01
:1015800016D0A2F57C42904212D002F580629042C1
:101590000ED002F5806290420AD0114A904207D0E4
:1015A00002F58062904203D002F58062904203D13E
:1015B000CA6823F4407313434A6923F0800313433A
:1015C00003608B68C3620B688362044B984204BF5C
:1015D0000B69036301234361704700BF00000140B2
:1015E0000040014010B5044630B390F83D3003F0A0
:1015F000FF021BB980F83C20FFF7CCFE02232068D5
:1016000084F83D30211DFFF79FFF012384F8463009
:10161000002084F83E3084F83F3084F8403084F86D
:10162000413084F8423084F8433084F8443084F800
:10163000453084F83D3010BD0120FCE7704770470D
:1016400008B500F053FA002008BD70B5054646699C
:101650002A69B5F908400B4686B0D0E9001076B18A
:10166000AD6965B1842C14BF03340024CDE9016554
:10167000009400F0D5F90590059806B070BD842C53
:1016800014BF0334002405ADCDE9004592B200F04B
:10169000FFF90128F0D00020EFE708B5012838BF96
:1016A000012000F07DFB002008BD00F108034FF091
:1016B000FF32C0E9022343600361002303607047E7
:1016C00000230361704743684B609A688A609A6898
:1016D000516099600368086101330360704730B559
:1016E0000C68631C0AD103695A684A6091608B6078
:1016F0005960036808610133036030BD00F10802DE
:10170000134652681568A542FAD9EDE7D0E90112EF
:1017100003698A6051605968814208BF5A6000229B
:1017200002611A68013A1A60186870472DE9F041A1
:10173000044600F0FFFB2F4B2F4E1A682F4F01324B
:101740001A603568002D4AD134601B68012B1FD107
:10175000B84640460135FFF7A8FF072D08F11408E9
:10176000F7D1DFF8C080264D4046FFF79EFF2846A0
:10177000FFF79BFF2348FFF798FF2348FFF795FFEC
:101780002248FFF792FF224BC3F80080214B1D60D7
:10179000214A22491368086801331360E26A012371
:1017A0009340034314200B6000FB0270211DFFF7E0
:1017B0008AFF00F0DFFB1A4B1B6873B13368DA6AEB
:1017C000E36A9A4209D24FF0E0234FF08052C3F807
:1017D000042DBFF34F8FBFF36F8FBDE8F081104B27
:1017E0001A68E36A002AD3D13268D26A9A4298BF53
:1017F0003460CDE738040020A0030020AC030020B3
:101800006004002080040020AC0400209804002024
:10181000A4030020A8030020440400204804002062
:10182000940400204C040020F8B51A4B1A4D1C6893
:101830000646286804300F46FFF768FF40B92A685B
:101840001649D06A0B680122824023EA02030B602A
:10185000731C07D137B129681148BDE8F84004313D
:10186000FFF731BF2B68A4195C6007D30D4B1868D4
:101870002968BDE8F8400431FFF731BF0A4B18680A
:1018800029680431FFF72BFF084B1A68A24288BF72
:101890001C60F8BDC0040020A00300204804002004
:1018A00098040020A8030020A40300207404002052
:1018B000064A13681968064B19B94FF0FF321A60CF
:1018C00070471268D268D2685268F8E7A403002013
:1018D0007404002010B504464C3000F05BFE94F810
:1018E0009D303BB9206B00F0F9FC2046BDE810406C
:1018F00000F0F4BC012BF8D0022B08D04FF05003BD
:1019000083F31188BFF36F8FBFF34F8FFEE710BDD6
:1019100080B5134C134F144D236873B9134B1B68D8
:10192000012BF8D94FF0E0234FF08052C3F8042D7B
:10193000BFF34F8FBFF36F8FEDE700F0FBFAFB684B
:10194000DE68301DFFF7E2FE2B68013B2B60236849
:10195000013B236000F00EFB3046FFF7BBFFDBE7E7
:101960003C040020AC04002038040020AC0300201C
:101970002DE9F047DDE9098402F18042266B013A46
:1019800006EB82060746994626F00706002941D055
:101990004B1E04F1330201F10F0513F8011F02F889
:1019A000011F09B1AB42F8D1002384F84330089DF0
:1019B000062D28BF06254FF0000AE5626564201D4C
:1019C000C4F848A0FFF77CFE04F11800FFF778FE8A
:1019D000C5F107054C22C4F898A05146A01824610F
:1019E000A561646284F89CA000F0BBFD0B4B2365ED
:1019F00003F16802D0336265A3654A463946304632
:101A000000F070FA2060B8F1000F01D0C8F8004073
:101A1000BDE8F08784F83410C9E700BFF04000202B
:101A200070B586B0DDE90B5445B94FF0500383F330
:101A30001188BFF36F8FBFF34F8FFEE744B94FF0AC
:101A4000500383F31188BFF36F8FBFF34F8FFEE70F
:101A5000A0260596059EA02E08D04FF0500383F3D4
:101A60001188BFF36F8FBFF34F8FFEE72563022509
:101A700084F89D5004AD01950A9D02940095059E41
:101A8000FFF776FF2046FFF751FE049806B070BDC1
:101A90002DE9F043074685B09000884616469946E2
:101AA00000F084FB0546E8B1A02000F07FFB04466F
:101AB000A8B1002380F89D300D9B056301930C9B1A
:101AC0000290009332464B4641463846FFF750FF9E
:101AD0002046FFF72BFE012005B0BDE8F083284625
:101AE00000F0FCFB4FF0FF30F6E7000010B588B0C7
:101AF000002407AA06A905A8CDE90544FEF70CFEB7
:101B0000059B0293069B079A12491348CDE90043AF
:101B10002346FFF785FFD0B14FF0500383F31188C0
:101B2000BFF36F8FBFF34F8F0C4B0D4A1B684C33C5
:101B300013600C4B4FF0FF321A600B4B01221A60FE
:101B40000A4B1C6008B0BDE8104000F083BA08B032
:101B500010BD00BF0E34000811190008A0030020BA
:101B6000680000207404002094040020C0040020B9
:101B7000024A136801331360704700BF400400201D
:101B8000404B1B682DE9F74F002B74D13E4B1D686D
:101B900001351D60BDB93D4B1A68126842B14FF066
:101BA000500383F31188BFF36F8FBFF34F8FFEE7AE
:101BB000374A1968106818601160364A1368013393
:101BC0001360FFF775FE344E344F3368DFF8D8806A
:101BD0009D424FF0000411D2D8F80030DB6A142285
:101BE0005343FB58022B2E4B1B6828BF0124002BAC
:101BF00018BF0124204603B0BDE8F08FDFF88CA0A9
:101C0000DFF8A890DAF800301B681BB94FF0FF33FB
:101C10003360E1E7DAF80030DB68D3F80CB0DBF8CA
:101C20000420954201D23260D6E70BF10401084648
:101C30000191FFF76BFDDBF82820019922B10BF130
:101C40001800FFF763FD0199DBF82C00D9F800308C
:101C5000012282401A43C9F80020142202FB0070BE
:101C6000FFF731FDD8F80010DBF82C20CB6A9A4240
:101C700028BF0124C6E70B4A136801331360002410
:101C8000B8E700BF40040020C0040020A4030020E7
:101C9000A80300207804002074040020AC03002076
:101CA000C40400207C040020A0030020480400207D
:101CB0002DE9F341324C236843B94FF0500383F3CD
:101CC0001188BFF36F8FBFF34F8FFEE700F032F93B
:101CD0002368013B2360246834B1002400F04AF9F2
:101CE000204602B0BDE8F081264B1B68002BF4D0E3
:101CF000254D264EDFF8A4801FE0EB68DC6804F178
:101D00001800FFF703FD211D08460191FFF7FEFCB7
:101D1000E26A30680199012707FA02F303431420AD
:101D200000FB02803360FFF7CEFC194BE26A1B68B0
:101D3000DB6A9A4201D3174B1F602B68002BDCD162
:101D40000CB1FFF7B5FD144D2C6844B1114E0127BD
:101D5000FFF716FF00B13760013CF9D12C600D4B45
:101D60001B68002BB9D04FF0E0234FF08052C3F82E
:101D7000042DBFF34F8FBFF36F8F0124AEE700BF79
:101D80004004002038040020800400204804002083
:101D9000A0030020C40400207C040020AC03002029
:101DA00008B550B94FF0E0234FF08052C3F8042D2E
:101DB000BFF34F8FBFF36F8F08BD0A4B196841B156
:101DC0004FF0500383F31188BFF36F8FBFF34F8F32
:101DD000FEE7FFF7CDFEFFF727FDFFF769FF0028BD
:101DE000E0D0E9E740040020194B1A68194B10B500
:101DF00012B101221A6010BD1A60174B1A68B2FAAC
:101E000082F2D2B2C2F11F02142314495343C818FC
:101E1000CC5844B94FF0500383F31188BFF36F8F50
:101E2000BFF34F8FFEE744680833646844600B4497
:101E30009C4204BF63684360142303FB02114B6898
:101E4000DA68074B1A601B68064A4C331360D2E706
:101E500040040020C404002048040020AC030020FB
:101E6000A00300206800002008480068006880F394
:101E700008884FF0000080F3148862B661B6BFF3A3
:101E80004F8FBFF36F8F00DF00BF000008ED00E051
:101E9000DFF80C00016841F4700101607047000038
:101EA00088ED00E082B0002301930D4B1B680133E5
:101EB00008D04FF0500383F31188BFF36F8FBFF347
:101EC0004F8FFEE74FF0500383F31188BFF36F8FFE
:101ED000BFF34F8F019B002BFCD002B0704700BFB7
:101EE0000C0000204FF0807340F8043C074B40F892
:101EF0000C3C21F001016FF0020340F8081C40F88F
:101F0000202C40F8243C4438704700BFA51E000830
:101F1000074B19680868B0E8F04F80F30988BFF3F1
:101F20006F8F4FF0000080F311887047AFF300808F
:101F3000A00300204FF0500383F31188BFF36F8F8D
:101F4000BFF34F8F0A4A13680133012B13600ED180
:101F50004FF0E023D3F8043DDBB243B14FF0500320
:101F600083F31188BFF36F8FBFF34F8FFEE7704786
:101F70000C000020084A136843B94FF0500383F364
:101F80001188BFF36F8FBFF34F8FFEE7013B1360E4
:101F90000BB983F3118870470C000020000000008B
:101FA000EFF30980BFF36F8F154B1A681EF0100F07
:101FB00008BF20ED108A20E9F04F10602DE90900DC
:101FC0004FF0500080F31188BFF34F8FBFF36F8F36
:101FD000FFF70AFF4FF0000080F3118809BC196871
:101FE0000868B0E8F04F1EF0100F08BFB0EC108A80
:101FF00080F30988BFF36F8F704700BFAFF3008095
:10200000A003002008B54FF0500383F31188BFF3FD
:102010006F8FBFF34F8FFFF7B3FD28B14FF0E02371
:102020004FF08052C3F8042D002383F3118808BDBC
:102030004FF0E022002313619361054B4FF47A7156
:102040001B68B3FBF1F3013B536107231361704736
:10205000000000204FF0E02337B5D3F8001D3A4AC6
:10206000914208D14FF0500383F31188BFF36F8F73
:10207000BFF34F8FFEE7D3F8002D344B9A4208D1BF
:102080004FF0500383F31188BFF36F8FBFF34F8F6F
:10209000FEE72F4B1A78D2B20192FF221A701B78FA
:1020A0002C4ADBB28DF803309DF8033003F0500367
:1020B0001370294A0723136000219DF803000006CE
:1020C00003F1FF340CD411B1032B136011D04FF086
:1020D000500383F31188BFF36F8FBFF34F8FFEE779
:1020E0009DF803305B00DBB28DF8033001212346FD
:1020F000E3E74FF440731360019B154A4FF0E0246F
:10210000DBB21370D4F8203D43F47003C4F8203DD3
:10211000D4F8203D43F07043C4F8203DFFF788FF1A
:102120000E4B00251D60FFF7B3FED4F8343F43F09B
:102130004043C4F8343FFFF797FEFFF755FEFFF723
:10214000B1FE284603B030BD71C20F4170C20F41CD
:1021500000E400E0C8040020CC0400200C000020B3
:1021600010B5104B1A461B688342FBD354681119F3
:10217000884201BF4168104609195160446801193D
:102180008B420CD1084909688B4203D0596821441D
:10219000416019680160904218BF106010BD194677
:1021A000F8E700BFE8400020D00400202DE9F0410E
:1021B0000446FFF7DDFC4249424D0B680BBB424A27
:1021C00056071FBFD01D20F0070002F57052131AEA
:1021D0000CBF4FF47053024613443C4E083B23F0AF
:1021E0000703002070603260C3E90000981AC2E95A
:1021F00000300B60364B1860364B18604FF00043D0
:102200002B602E68264255D1002C46D004F10803DD
:1022100060071CBF23F007030833002B4AD02D4F63
:102220003C689C4246D3294A15686868984204D2A3
:10223000D5F800C0BCF1000F15D10968A94239D00A
:102240002968D2F800801160C21A102A12D9E81841
:1022500041070BD04FF0500383F31188BFF36F8F0A
:10226000BFF34F8FFEE72A466546DEE742606B60AC
:10227000FFF776FF6A681649A41A1643164A0868DB
:102280003C6000232B6013686E60844203F10103FD
:1022900038BF0C60136008F10804FFF709FD6307FD
:1022A0000AD04FF0500383F31188BFF36F8FBFF351
:1022B0004F8FFEE70024F0E72046BDE8F08100BF25
:1022C000D0040020D4400020D4040020E8400020A6
:1022D000DC400020D8400020E040002010B504463B
:1022E00090B31A4A50F8043C1268134208D14FF0D8
:1022F000500383F31188BFF36F8FBFF34F8FFEE757
:1023000050F8081C41B14FF0500383F31188BFF31C
:102310006F8FBFF34F8FFEE723EA020340F8043CC0
:10232000FFF726FC0A4A54F8043C1168A4F108009F
:102330000B441360FFF714FF064A1368BDE8104012
:1023400001331360FFF7B4BC10BD00BFD4400020C0
:10235000D8400020E4400020002310B50446C0E926
:102360000033C0E90433836081814366C2818361A5
:10237000194608225C3000F0F4F8054B6362054B07
:10238000A362054BE362054B2462236310BD00BFCB
:10239000DD240008FF240008372500085B2500081D
:1023A000024A0349034800F069B800BF100000204A
:1023B000A92F00081C00002041680C4B994210B561
:1023C000044601D000F0F0FDA168094B994202D00B
:1023D000204600F0E9FDE168064B994204D0204612
:1023E000BDE8104000F0E0BD10BD00BFF04000208F
:1023F00058410020C041002010B50B4B0B4C0C4A3B
:102400001A60204600220421FFF7A6FF04F16800AD
:1024100001220921FFF7A0FF04F1D0000222BDE84C
:1024200010401221FFF798BF28420020F040002002
:10243000A1230008014800F063B900BF3142002029
:10244000014800F05EB900BF3142002010B50446DB
:10245000FFF7F0FF236A1BB1BDE81040FFF7F0BFA4
:10246000044B2362044B1B68002BF5D1FFF7C4FF1C
:10247000F2E700BFB9230008284200202DE9F84305
:102480000746884614460026D4E90195B9F10109AA
:1024900005D52468002CF7D13046BDE8F883AB8918
:1024A000012B07D9B5F90E30013303D02946384640
:1024B000C04706436835E9E70FB407B5064904ABE2
:1024C000086853F8042B8168019300F03DFA03B0CB
:1024D0005DF804EB04B070476800002010B50C46AE
:1024E000B1F90E1000F0BEF80028ABBF636DA389F0
:1024F0001B1823F48053ACBF6365A38110BD2DE985
:10250000F0411F468B89DB0505460C46164605D56E
:10251000B1F90E100223002200F092F8A389B4F959
:102520000E1023F48053A38132463B462846BDE873
:10253000F04100F0A9B810B50C46B1F90E1000F04A
:102540007FF8431CA38915BF606523F4805343F4CF
:102550008053A38118BFA38110BDB1F90E1000F004
:1025600009B802440346934200D1704703F8011BA7
:10257000F9E7000038B5064D0023044608462B60F5
:10258000FEF7B2FA431C02D12B6803B1236038BDB9
:102590002C420020294B1B68834270B504464BD067
:1025A000C36943B1DB68002B44D1E369196811B1F9
:1025B000204600F0A7F8616911B1204600F0A2F8AA
:1025C000E16911B1204600F09DF8216B11B1204660
:1025D00000F098F8616B11B1204600F093F8A16B00
:1025E00011B1204600F08EF8A16C11B1204600F028
:1025F00089F8616C11B1204600F084F8E16A11B1EC
:10260000204600F07FF8236AB3B12046BDE8704051
:102610001847495941B90435E369802DD968F8D183
:10262000204600F06FF8C0E70E68204600F06AF818
:102630003146EFE70025EFE770BD00BF68000020DE
:1026400038B5074D04460846114600222A601A464E
:10265000FEF754FA431C02D12B6803B1236038BD46
:102660002C42002038B5074D04460846114600228A
:102670002A601A46FEF71CFA431C02D12B6803B1EC
:10268000236038BD2C42002038B5074D044608466B
:10269000114600222A601A46FEF718FA431C02D19E
:1026A0002B6803B1236038BD2C420020014B186811
:1026B000704700BF6800002070B50D4D0D4C641BC5
:1026C000A4100026A64209D10B4D0C4C00F0BEFD13
:1026D000641BA4100026A64205D170BD55F8043B2A
:1026E00098470136EEE755F8043B98470136F2E784
:1026F00050340008503400085034000854340008A6
:102700007047704737B5002944D051F8043C019018
:10271000002BA1F10404B8BFE41800F0DFF81E4A52
:102720000198136833B96360146003B0BDE83040AA
:1027300000F0DAB8A34208D9256861198B4201BFBD
:1027400019685B6849192160EDE71A465B680BB1AF
:10275000A342FAD911685518A5420BD12468214427
:102760005418A3421160E0D11C685B6853600C44AC
:102770001460DAE702D90C230360D6E725686119F3
:102780008B4204BF19685B68636004BF491921600C
:102790005460CAE703B030BD3442002070B50E4E1D
:1027A0000C463168054611B900F0BCFC306021468A
:1027B000284600F0B7FC431C0AD0C41C24F00304D4
:1027C000A04207D0211A284600F0ACFC013001D10C
:1027D0004FF0FF34204670BD384200202DE9F84309
:1027E000CD1C25F0030508350C2D38BF0C25002D18
:1027F000074601DBA94205D90C233B600026304681
:10280000BDE8F883DFF8D08000F068F8D8F8003031
:102810001C465CBB29463846FFF7C0FF431C0446F4
:1028200055D1D8F800402646002E45D1002C48D07E
:1028300023683146384604EB030900F073FC8145F8
:102840003FD121686D1A29463846FFF7A7FF0130AE
:1028500037D023682B442360D8F80030002B38D0C1
:102860005A68A2422BD100225A600FE02268521B04
:102870001FD40B2A17D96119A342256018BF5960CC
:10288000636808BFC8F8001062514B60384604F115
:102890000B0600F029F826F00706231DF21AAED029
:1028A0009B1BA350ABE7A3426268DDD1C8F80020B0
:1028B000ECE723466468ACE734467668B4E7134631
:1028C000CCE70C233B60384600F00EF897E7256014
:1028D000DCE75B60FFDE00BF344200200148FFF709
:1028E0000FBF00BF304200200148FFF70ABF00BF02
:1028F000304200209368013B002B10B4936008DA4B
:102900009469A34201DB0A2903D15DF8044B00F06E
:1029100073BB1368581C1060197008465DF8044BAF
:102920007047F8B506460F461446D518AC4201D19B
:10293000002007E014F8011B3A463046FFF7DAFFA3
:10294000431CF3D1F8BD00002DE9F04F0D469DB0BA
:1029500014469846064618B1036A0BB9FFF776FD90
:102960006B6ED90705D4AB899A0502D4A86DFFF721
:10297000C7FEAB891B0701D52B699BB92946304699
:1029800000F078FB70B16B6EDC0704D54FF0FF30C0
:102990001DB0BDE8F08FAB899805F7D4A86DFFF79F
:1029A000B0FEF3E70023099320238DF82930CDF8FA
:1029B0000C803023DFF8B0818DF82A304FF0010908
:1029C00023469A4613F8012B0AB1252AF9D1BAEB0E
:1029D000040B0BD05B46224629463046FFF7A1FF89
:1029E000013000F0A980099A5A4409929AF80030FF
:1029F000002B00F0A18000234FF0FF32CDE905232A
:102A00000AF1010A049307938DF853301A93544640
:102A1000052214F8011B5448FDF7E2FB049AD8B9CB
:102A2000D10644BF20238DF85330130744BF2B2316
:102A30008DF853309AF800302A2B15D0079A544657
:102A400000204FF00A0C214611F8013B303B092BC6
:102A50004DD9B0B1079214E0A0EB080309FA03F3D3
:102A600013430493A246D2E7039B191D1B680391ED
:102A7000002BBBBF5B4242F0020207930793B8BF33
:102A8000049223782E2B0CD163782A2B34D1039B0C
:102A90001A1D1B680392002BB8BF4FF0FF3302349E
:102AA0000593DFF8D4A0217803225046FDF798FB68
:102AB00038B1049BA0EB0A0040228240134301344A
:102AC000049314F8011B29488DF828100622FDF7FD
:102AD00087FB00283FD0264B1BBB039B073323F00B
:102AE000070308330393099B3B44099368E70CFBF6
:102AF00002320C460120A6E7002301340593194653
:102B00004FF00A0C204610F8012B303A092A03D95D
:102B1000002BC6D00591C4E70CFB0121044601231C
:102B2000F0E703AB00932A46124B04A93046AFF3FB
:102B300000800746781CD6D16B6ED90705D4AB89C7
:102B40009A0502D4A86DFFF7DCFDAB895B063FF563
:102B50001DAF09981CE703AB00932A46054B04A957
:102B6000304600F079F8E4E7133400081D3400081B
:102B70000000000023290008193400082DE9F0475F
:102B8000164699468A680B69DDF820809342B8BFE3
:102B90001346336091F8432007460C460AB10133CF
:102BA00033602368990642BF336802333360256877
:102BB00015F0060506D104F1190AE36832689B1A7C
:102BC000AB4226DC94F84320131E226818BF012371
:102BD00092062BD404F1430249463846C0470130DF
:102BE0001ED02368226903F00603042B02BFE568A8
:102BF0003368ED1AA3680CBF25EAE57500259342FA
:102C0000C4BF9B1AED1800261A34B5421AD1002011
:102C100008E00123524649463846C047013003D1F7
:102C20004FF0FF30BDE8F0870135C6E7E1185A1CC8
:102C3000302081F84300224494F8451082F8431074
:102C40000233C7E70123224649463846C0470130D0
:102C5000E6D00136D9E700002DE9FF470F7E0C9D35
:102C6000782F914680460C469A4601F1430207D8D8
:102C7000622F0AD8002F00F0D480582F00F0C080B7
:102C800004F1420584F842703AE0A7F16303152B82
:102C9000F6D801A151F823F0F12C0008052D000809
:102CA000812C0008812C0008812C0008812C000850
:102CB000052D0008812C0008812C0008812C0008BB
:102CC000812C0008092E0008312D0008C32D0008B2
:102CD000812C0008812C00082B2E0008812C000874
:102CE000312D0008812C0008812C0008CB2D000814
:102CF0002B681A1D1B682A6004F1420584F84230D3
:102D000001239FE020682B68070603F10401296076
:102D100001D51E6803E04606FBD5B3F90060002E1E
:102D200003DA2D23764284F843305A480A2312E00E
:102D30002B682068191D2960050601D51E6802E070
:102D40004106FBD51E8853486F2F0CBF08230A236A
:102D5000002184F843106568A560002DA2BF21689A
:102D600021F0040121600EB9002D4BD01546B6FBB1
:102D7000F3F103FB1167C75D05F8017D3746BB42E0
:102D80000E46F4D9082B0BD12368DE0708D523693A
:102D900061689942DEBF302305F8013C05F1FF353B
:102DA000521B2261CDF800A04B4603AA21464046A3
:102DB000FFF7E4FE01304AD14FF0FF3004B0BDE828
:102DC000F087236843F0200323603348782784F892
:102DD0004570236829681F0651F8046B02D45F060A
:102DE00048BFB6B2DF0748BF43F02003296048BFA1
:102DF00023601EB9236823F0200323601023A7E774
:102E00002448E4E71546BDE72B6826686169181D6C
:102E1000286035061B6801D5196002E07006FBD5F5
:102E20001980002323611546BCE72B681A1D2A6010
:102E30001D68626800212846FDF7D2F908B1401BE1
:102E4000606063682361002384F84330AAE7236944
:102E50002A4649464046D0470130ADD023689B07FB
:102E600013D4E068039B9842B8BF1846A6E7012335
:102E7000324649464046D04701309DD00135E3688F
:102E800003995B1AAB42F2DCEBE7002504F119066B
:102E9000F5E700BF24340008353400088A892DE99D
:102EA000F041054610070C4658D44B68002B05DC52
:102EB0000B6C002B02DC0020BDE8F081E66A002EDE
:102EC000F9D0002312F480522F68216A2B6032D08F
:102ED000606DA3895A0705D56368C01A636B0BB18F
:102EE000236CC01A00230246E66A216A2846B047CE
:102EF000431CA38906D129681D292BD8294A0A41D8
:102F0000D60727D400226260D9042269226004D542
:102F1000421C01D12B6803B96065616B2F600029E9
:102F2000C9D004F14403994202D02846FFF7EAFBD6
:102F300000206063C0E701232846B047411CC8D188
:102F40002B68002BC5D01D2B01D0162B01D12F6073
:102F5000B1E7A38943F04003A381ADE70F69002FD8
:102F6000A9D093070E6808BF4B690F6018BF0023F4
:102F7000A6EB07088B60B8F1000F9CDD216AA66AFA
:102F800043463A462846B047002806DCA38943F06A
:102F90004003A3814FF0FF308EE70744A8EB000801
:102FA000E9E700BFFEFFBFDF38B50B6905460C46F9
:102FB00013B90025284638BD18B1036A0BB9FFF7CD
:102FC00045FAB4F90C30002BF3D0626ED00704D46C
:102FD000990502D4A06DFFF793FB28462146FFF721
:102FE0005DFF636EDA070546E4D4A3899B05E1D44F
:102FF000A06DFFF786FBDDE7F8B50E4614460546E3
:1030000018B1036A0BB9FFF721FAA369A360A3897A
:103010001A0725D523691BB323682269981A6369A7
:10302000F6B28342374604DC21462846FFF7BCFF50
:10303000E0B9A368013BA36023685A1C22601E709C
:103040006269431C9A4204D0A389DB0706D50A2E85
:1030500004D121462846FFF7A7FF38B93846F8BD06
:103060002146284600F006F80028D5D04FF0FF375B
:10307000F4E7000038B52A4B054618680C4618B12D
:10308000036A0BB9FFF7E2F9A389B4F90C2018071A
:1030900022D4D90607D409232B6042F04003A38130
:1030A0004FF0FF3034E0580712D5616B41B104F1A5
:1030B0004403994202D02846FFF724FB00236363B0
:1030C000A38923F02403A381002363602369236081
:1030D000A38943F00803A38123694BB9A38903F4AF
:1030E0002073B3F5007F03D02146284600F050F846
:1030F000A089B4F90C2010F001030AD00023A360CA
:1031000063695B42A361236943B910F08000C4D1B5
:1031100038BD810758BF6369A360F4E70020F7E773
:103120006800002038B5064D0023044608462B6091
:10313000FDF7E6FC431C02D12B6803B1236038BDC8
:103140002C42002070B50C46B1F90E10002996B043
:1031500015461E460DDAA38913F0800F4FF00001CB
:103160000CBF4FF480634023002031602B6016B009
:1031700070BD6A4600F048F80028ECDB019901F4C4
:103180007041A1F50053594259414FF48063EBE778
:103190008B8973B59D0706460C4607D504F1470396
:1031A000236023610123636102B070BD01AB6A46F5
:1031B000FFF7C8FF009905463046FFF70FFB48B9F7
:1031C000B4F90C309A05EFD423F0030343F0020363
:1031D000A381E3E7A389206043F08003A381009BE0
:1031E0006361019B20615BB1B4F90E10304600F0C1
:1031F0001DF828B1A38923F0030343F00103A38141
:10320000A3891D43A581CFE738B5074D00230446A8
:10321000084611462B60FDF76AFC431C02D12B685F
:1032200003B1236038BD00BF2C42002038B5064DE5
:103230000023044608462B60FDF75EFC431C02D1C8
:103240002B6803B1236038BD2C420020F8B500BFC5
:10325000F8BC08BC9E467047F8B500BFF8BC08BC77
:043260009E467047CF
:10326400EA3300087D0500080000000000000000AB
:10327400800000000000000000000000E1330008AE
:1032840089050008FDFF0000000000008000000028
:103294000000000000000000D8330008B505000855
:1032A400FDFF00000000000080000000000000009E
:1032B40000000000CF330008E1050008FDFF000016
:1032C400000000008000000000000000000000007A
:1032D400C63300080D060008FDFF000000000000D2
:1032E400800000000000000000000000BD33000862
:1032F40039060008FDFF0000000000008000000007
:103304000000000000000000B43300086506000857
:10331400FDFF00000000000080000000000000002D
:1033240000000000AB33000891060008FDFF000018
:103334000000000080000000000000000000000009
:10334400A2330008BD060008FDFF000000000000D5
:103354008000000000000000000000009933000815
:10336400E9060008FDFF00000000000080000000E6
:1033740000000000000000005461736B5F4F6E6535
:1033840020436F756E7465725F5461736B203D20CA
:103394002569200A006D795461736B3130006D79B1
:1033A4005461736B3039006D795461736B3038003C
:1033B4006D795461736B3037006D795461736B3080
:1033C40036006D795461736B3035006D79546173D7
:1033D4006B3034006D795461736B3033006D795404
:1033E40061736B30320064656661756C745461732B
:1033F4006B00000000000000000001020304060747
:103404000809000000000102030449444C4500235C
:103414002D302B2000686C4C0065666745464700DC
:1034240030313233343536373839414243444546F6
:10343400003031323334353637383961626364658C
:04344400660000001E
:0834480068CEFF7F01000000C7
:04345000C5010008AA
:04345400A1010008CA
:103458000024F4000100000010000000AAAAAAAA93
:103468000000000003000000F04000200000000001
:10347800F040002058410020C0410020000000001A
:103488000000000000000000000000000000000034
:103498000000000000000000000000000000000024
:1034A8000000000000000000000000000000000014
:0C34B80000000000000000001C000020CC
:0400000508000B558F
:00000001FF
